:020000040800F2
:1000000000000220E58500083586000835860008D6
:100010003586000835860008358600080000000097
:10002000000000000000000000000000358600080D
:10003000358600080000000035860008775E00085D
:1000400035860008358600083586000835860008A4
:100050003586000835860008715F0008775F000864
:100060007D5F0008835F0008895F0008358600080F
:100070003586000835860008358600083586000874
:100080003586000835860008358600083586000864
:100090003586000835860008358600088F5F000821
:1000A000F94F0008114F00080D500008354F0008A7
:1000B000494F00085D4F0008714F00083586000861
:1000C0003586000835860008358600083586000824
:1000D00035860008FD690008156A0008316A0008C5
:1000E000B75F000835860008A1810008215000088C
:1000F000C14F000835500008E54F0008358600085C
:100100003586000835860008854F000835860008CA
:100110004D6A0008656A0008994F0008AD4F000855
:1001200035860008358600083586000835860008C3
:1001300035860008358600083586000835860008B3
:100140003586000835860008358600089581000848
:100150003586000835860008358600087D6A000867
:100160003586000835860008358600083586000883
:100170003586000835860008358600080000000036
:080180003586000835860008F1
:10019000034613F8012B002AFBD1181A01387047C7
:1001A00001F0FF01102A2BDB10F0070F08D010F828
:1001B000013B013A8B422DD010F0070F42B3F6D12C
:1001C000F0B441EA012141EA014122F007047FF045
:1001D00000070023F0E80256083C85EA010586EA9C
:1001E000010685FA47F5A3FA87F586FA47F6A5FAD8
:1001F00087F68EB9EED1F0BC01F0FF0102F00702E4
:1002000032B110F8013B013A83EA010313B1F8D18E
:100210000020704701387047002D06BF354603386F
:10022000073815F0010F07D1013015F4807F02BFA8
:10023000013015F4C03F0130F0BC0138704700BFF9
:1002400053B94AB9002908BF00281CBF4FF0FF313D
:100250004FF0FF3000F00CB8ADF1080C6DE904CEA2
:1002600009F008FADDF804E0DDE9022304B0704784
:10027000704700BF10B5054C237833B9044B13B158
:100280000448AFF300800123237010BD64020020F6
:10029000000000007499000808B5034B1BB1034926
:1002A0000348AFF3008008BD000000006802002092
:1002B000749900080146C02008F0CCBA38B50D4644
:1002C00001461A20144608F0C9F9A9081C2008F0B4
:1002D000C5F9E1081B20BDE8384008F0BFB9C2B23B
:1002E000C0F30721C0F30740FFF7E8BF08B5054694
:1002F0000C462846FFF7F3FF4FF4FA7008F0E4FAD3
:100300002046FFF7ECFF4FF4FA7008F0DDFAF0E753
:1003100008B54FF47F01FFF7E9FF0000F0B5324C5C
:10032000324D334F8BB0204600F0F2FA28604FF484
:100330007F00FFF7D4FF00F00BF9286800F046F9C2
:100340002C48FFF7CCFF63680293A368039304F182
:100350001005E368049395E80F0005AE019707C602
:1003600001A83370236A099300F0A2F9002833D161
:1003700063680293A3680393E368049395E80F000E
:1003800005AE019707C601A83370236A099300F0F0
:10039000C7F9A8B9204600F0D2FA1749174800F06B
:1003A00065FC00F0E3F8164800F0E0F96FF07F40DC
:1003B000FFF795FF13480BB0BDE8F04000F064B9BB
:1003C000204600F0BCFA00F0D1F80F4800F0CEF95A
:1003D0006FF07F40FFF79CFF204600F0B0FA00F07E
:1003E000C5F80A48F2E700BF80020020A4020020FE
:1003F000A49A000800FFFF0000000020CC0A0020A3
:100400008C99000800C00008A1990008BB99000859
:1004100030B501218BB0C02008F0B2F90020FFF701
:1004200049FF4FF47A7008F04FFA0120FFF742FFBE
:100430004FF47A7008F048FA07F0F0FF0121252008
:1004400008F09EF92B492C4AC86B2C4B52F820001F
:100450001866886B496A52F82000D86552F8212046
:100460005A6601211A2008F08BF901211C2008F09E
:1004700087F901211B2008F083F90121C02008F031
:100480007FF9FF20FFF72BFF1D48252100F0F0FA30
:1004900010B9FF20FFF73CFF4FF6FF70194DFFF733
:1004A0001EFF194A1649012301A800F06FFB029BA9
:1004B0006B60039BAB60049BEB6005AB0FCB05F15E
:1004C000100407C428462370099B2B6200F043FAEE
:1004D00020B10BB0BDE83040FFF720BF094800F065
:1004E0002EFA0A48FFF7FBFE09480BB0BDE8304082
:1004F00000F0CAB82CA200086CA20008440D00202D
:10050000CC0A002080020020000000208080F00043
:1005100000C0000870470000014800F0D7B900BFD4
:100520008002002070B501F025FF084D044641F21D
:100530008836E86810F4803007D001F01BFF001BFC
:10054000B042F6D9F323EB60012070BD003C0240BD
:1005500008B5FFF7E7FF02F0EDF8FFF7E3FF024B06
:10056000F322DA6008BD00BF003C024002F0F4B89C
:10057000144B984219D303F58043984217D303F5DF
:100580008043984215D3104B984214D903F5803319
:10059000984212D903F50033984210D903F500337D
:1005A000984294BF06200720704700207047012022
:1005B00070470220704703207047042070470520D1
:1005C000704700BF00400008FFFF000870B586B00C
:1005D0000446FFF7A7FF1448144B2044002298421A
:1005E000009202D3012006B070BDFFF7C1FF0223C5
:1005F00005930324831E0546019203940493012668
:10060000AC4202D9FFF78EFFEDE7694601A8CDE9BC
:10061000034602F02FF90028E4D1FFF783FF0028FA
:10062000E0D10134ECE700BFFFBF0008004007083D
:1006300070B505460E46FFF775FF08B1012070BD85
:10064000104C236923F440732361236943F400733E
:100650002361236943F00103236172B62E60BFF367
:100660004F8F62B6FFF75EFF236923F0010323611A
:100670000028E3D1E06800F01300003818BF012023
:10068000DDE700BF003C024038B50446456803F092
:1006900029F901F007FE4FF0E02300221A615A61A8
:1006A0009A61C3F8084D236883F30888A847FEE7DA
:1006B000F8B5184B184C1A6822F400721A601A68C0
:1006C00022F4806206461A60304600F025F948B9E7
:1006D000104B1A6842F400721A601A6842F4806281
:1006E0001A6013E00D490D4F4FF40062304600F0E0
:1006F000F9F820F003052544AC42E5D057F8041B77
:100700002046FFF795FF10B1024BDB68F8BD0434BB
:10071000F2E700BF003C024000C00008A802002031
:1007200070B50021ADF5007D044600F0E1F80E4DF6
:10073000204600F0F1F810B90DF5007D70BD4FF4C2
:1007400000726946204600F0CDF86A4600238342D5
:1007500001D11D44ECE712F8011BEE5C8E4201D181
:100760000133F4E70120E7E700C0000870B59AB054
:10077000114E124A12490546172301A800F006FA45
:10078000029B7360039BB360049BF36005AB0FCBCC
:1007900006F1100407C42A4623700A49099B3362F4
:1007A00001A808F027FB01A9304607F0C9FE304632
:1007B00000F0C5F81AB070BDA80A00200D00002096
:1007C000CC0A0020C8990008014800F07FB800BF9B
:1007D000A80A002007B503688DF807105B6801229E
:1007E0000DF10701984703B05DF804FB006A10B1F2
:1007F00003689B681847704710B50446006A18B92B
:1008000001236360002010BD0023436092B200F01A
:10081000E7FF236A5B68002BF5D0F1E7006A10B1AF
:10082000012100F017BE704707B501220DF1070145
:1008300000F040FD01280CBF9DF807004FF0FF308D
:1008400003B05DF804FB006A08B510B1FFF7ECFFD8
:1008500008BD4FF0FF30FBE738B50546006A58B1D8
:10086000FFF7E2FF431C044604D0286A01690139FE
:1008700000F0C2FD204638BD0446FBE7F8B54FF452
:100880007A7317460022C0E901230F4B0360054627
:1008900028200C4608F0C2F9286298B1234603F1DB
:1008A0002802044618685968264603C6083393424E
:1008B0003446F7D10C22394605F1100008F0FAFA57
:1008C00000232B772846F8BDA49A000800224FF495
:1008D0007A71C0E901210249016002620274704725
:1008E000A49A0008006A08B508B100F0E3FC08BD4E
:1008F000006A08B520B100F07FFD003818BF012064
:1009000008BD036A0BB1186970474FF0FF3070479C
:10091000006A00B1C069704708B5036A014663B157
:10092000FFF7F6FF02460846FFF7EBFF47F6FF73B7
:10093000101A984228BF184608BD1846FCE710B5A3
:100940000446006A30B100F0B7FD206A08F06EF985
:100950000023236210BD006A18B1407A003818BF26
:100960000120704708B52AB100F022FF003818BFF7
:10097000012008BD0120FCE738B5012204460D46E0
:1009800001F0A0F9024628B929462046BDE83840C2
:1009900001F098B9012038BD30B50B68C45C2F2C2C
:1009A00008BF01330024C55C2F2D06D02DB115558D
:1009B00001340C2C03F10103F5D100251555C25C5F
:1009C0002F2A08BF01330B60C05C003818BF01201C
:1009D00030BD00002DE9F04F9246244A9BB09B4663
:1009E0000023CDE9102381460D46079306928DF82A
:1009F00021308DF8493001930C460DF1180802AAF8
:100A000001A94846FFF7C8FF80F0010207465B4690
:100A1000D2B202A92046D047064650B9AC4204D112
:100A2000002630461BB0BDE8F08F204600F044FDA4
:100A3000F6E76FB1012302AA2146404600F014FEFA
:100A4000AC4206460AD0204600F036FD4EB9E7E734
:100A5000AC42E6D0204600F02FFDE2E70028DFD0D0
:100A600010AC234644469846C9E700BFD09A000818
:100A700038B590F8413004460D4613B1383000F0D7
:100A80001BFD2A460121204600F0D8F908B90020B4
:100A900038BD04F1100521462846FFF76DFF0028F8
:100AA000F5D0294604F1380000F0DCFB003818BF0F
:100AB0000120EDE72DE9F04FDFF8CCA09BB04FF01F
:100AC00000090546103106A89346CDE910A9019307
:100AD000CDF81C90CDF818A08DF821908DF8499094
:100AE00000F0C0FB5F460DF1400806AC2F213846F0
:100AF00008F0D3F9B8B9019BA7EB0B071F60636837
:100B0000C5E900A323892B81E368EB6023692B618E
:100B100063696B61237E2B76E369EB61236A2B6249
:100B2000636A6B6226E03B782F2B07D1434601377F
:100B3000A0461C46234644469846D7E7C61BF6B255
:100B40000C2E28BF0C263246394602A808F0B2F90E
:100B500006F168036B44404603F8609C00F0ACFC6F
:100B6000012302AA2146404600F07EFD30B9C5E9C6
:100B700000A0687228461BB0BDE8F08F20463744BD
:100B800000F09AFCD6E700BFD09A00082DE9F041AA
:100B9000A0B004461D46002701AB02A816460197E7
:100BA000FFF788FF019A9DF8113006EB0208B25C4E
:100BB0002C4EF2B98DF86130059B1993069B1A9360
:100BC000079B039A1B939DF820308DF87030099B8A
:100BD0001D93CDE916620A9B9DF810208DF86020C8
:100BE0001E93214A0B9B1F9316A92046FFF746FE32
:100BF00007E0CDE90C678DF8397033B92046FFF76F
:100C000065FE204620B0BDE8F0812B46424602A991
:100C10000CA800F029FD0028F0D002A805F0060578
:100C200000F04AFC062D03D113990CA800F0E4FB58
:100C30000D9BCDE91663BDF83830ADF860300F9BE1
:100C40001993109B1A93119B1B939DF848308DF8B4
:100C50007030139B1D93149B1E93159B1F9342464C
:100C6000C2E700BFD09A0008D499000810B4044627
:100C7000044A0846002304F138015DF8044BFFF7ED
:100C8000A9BE00BF65090008074B022100221961B7
:100C900006491A73C3E9012283F83020DA639963A5
:100CA00083F84120704700BFCC0A0020D09A00088A
:100CB00001460022014801F04CB900BF440D00205C
:100CC00002480022FF2101F044B900BF440D00207A
:100CD00008B50121007907F0BDFD054B1A7832B146
:100CE00000221A70BDE80840024801F031B908BD81
:100CF000300B0020440D002010B5094B1A78044633
:100D00003AB901221A70074B074893E8060001F030
:100D1000FDF820790021BDE8104007F09BBD00BF21
:100D2000300B00201C000020440D002038B58379D2
:100D300004465BB140F2012523895A1CAB42228153
:100D400005D92046FFF7C4FF0023A37138BDFFF784
:100D5000B7FFF1E7062903D9162343710020704736
:100D60000D4B0122052915D8DFE801F0030A0C0E0E
:100D700010120A499A80002219609A710120704766
:100D80000749F7E70749F5E70749F3E70749F1E7B7
:100D90000749EFE70749EDE71C00002040787D0197
:100DA00000093D0080841E0040420F0020A1070082
:100DB00090D0030048E8010038B50C4607F082FDEA
:100DC0000546FFF77DFFFF2806D007F07BFD431B9C
:100DD000A342F6D3002038BD0120FCE7F8B5044655
:100DE0000D461746FFF7A2FF2046FFF785FF4FF499
:100DF00096712046FFF7E0FF45F04000FFF758FFEF
:100E0000182627FA06F0C0B2083EFFF751FF16F188
:100E1000080FF6D185B1082D0CBF8720FF20FFF702
:100E200047FF0025FFF74CFF0306E07203D50135AD
:100E3000B5F5807FF6D1F8BD9520F0E7F8B500252F
:100E40000271057385728571457104460F4607F07E
:100E500039FD01210646207907F092FC2079012115
:100E600007F0F8FC2946414801F03AF8404B414A66
:100E70001A6001229D719A8093E806003B4801F0B8
:100E800045F80A25FF20013DFFF712FF15F0FF0589
:100E9000F8D1364801F05CF82046FFF72DFF00221C
:100EA00011462046FFF79AFF01280546E07243D11C
:100EB0004FF4D57208212046FFF790FF42070AD46D
:100EC0000425FFF7FDFE013D15F0FF05E072F8D1A6
:100ED000AA2846D10225AB1E25735D425D41AD07B0
:100EE000002237212046FFF779FF2A462921204694
:100EF000FFF774FF0246E07258BB237B022B12D12E
:100F00003A212046FFF76AFF68BBFFF7D9FE00F0E1
:100F1000C000C02804BF03232373FFF7D1FEFFF7EF
:100F2000CFFEFFF7CDFE2046FFF7D2FE3946204622
:100F3000BDE8F840FFF70EBF07F0C4FC801BB0F51A
:100F4000FA6FACD9012320466371FFF7C1FE002080
:100F5000F8BD07F0B7FC801BB0F5FA6FC0D90823C5
:100F6000F1E70223EFE70623EDE700BF440D002081
:100F70001C00002090D0030038B5044607F0A2FC06
:100F80000546FFF79DFEFF28E07208D0FE280ED030
:100F90000D2320466371FFF79BFE002038BD07F04C
:100FA00091FC401BB0F5967FEBD90F23F1E70120B0
:100FB000F4E7F8B5044617461E46002B3DD013440F
:100FC000B3F5007F15DC83792BB103688B4202D126
:100FD000008990421BD9237B2160032B18BF490253
:100FE0000A4620461121FFF7F9FE054630B10323DA
:100FF00063712046FFF76CFE00201FE02046FFF7DC
:10100000BBFF0028F5D001232581A3712846B842F3
:1010100015D3069DAF19FFF753FE05F8010BBD422E
:10102000F9D123891E44A37AB6B2268113B1B6F54D
:10103000007F02D32046FFF779FE0120F8BDFFF7BD
:101040003FFE2089013080B22081E0E707B54FF4F0
:10105000007300920022FFF7ACFF03B05DF804FBC1
:1010600070B5054608461446FFF722FE661E04F2D8
:10107000FF1416F8010FFFF71BFEA642F9D1FF205F
:10108000FFF716FEFF20FFF713FEFFF719FE00F033
:101090001F03052BE87206D0112328466B71FFF75A
:1010A00017FE002070BD0120FCE7F8B51546044688
:1010B0001F460A4631B9122363712046FFF708FE26
:1010C00000252AE0037B032B18BF4A021821FFF7F3
:1010D00085FE064608B10423EEE72A46FE21204697
:1010E000FFF7BEFF05460028E7D09FB14FF4167109
:1010F0002046FFF761FE08B91523DDE732460D21D2
:101100002046FFF76BFE08B11423D5E7FFF7D8FDA3
:101110000028F9D12046FFF7DBFD2846F8BD38B599
:101120000546FFF7E9FDFFF7CBFD04462846FFF72C
:10113000CFFDB4F1FF0018BF012038BD704710B5D6
:1011400000F10C0204460121406A00F03DFD60B14F
:10115000236A2BB9237AE268226263F07F03237249
:10116000237A43F020032372012010BDF8B5054611
:10117000FFF7E5FF074610B900273846F8BD6B6A50
:10118000EC681A7C1E79023C94405A691444264447
:10119000B44208D16B6A1B7C4FF400729A40EB6931
:1011A0001344EB61E9E7013E304600F057FC0028AC
:1011B000EED1E1E710B50446406900F02BFC18B110
:1011C000237E024800EB431010BD00BF440B0020FB
:1011D0002DE9F0434FF0203385B006464B600A46B8
:1011E0000B60C1F8073000254FF0070816F8013BE7
:1011F00023B91078203818BF01202DE02E2B06D1FE
:10120000B8F10A0F27D008254FF00A08EEE7144C72
:10121000EC4604F110096F4620686168E646AEE8C6
:10122000030008344C45F446F6D1394611F8010B59
:1012300078B9A8450FD3A3F121015D290BD8A3F1FB
:10124000610119299CBF203BDBB2691C5355CDB20B
:10125000CCE78342EAD1002005B0BDE8F08300BFAF
:10126000D699000838B5427A04460D460AB10020E6
:1012700038BD91F82030102B0ED1022343724B8CD5
:1012800002625B01C36100230120C4E9033365628C
:10129000207263612376EBE7202BE8D103234372AE
:1012A000496A016200F11C02284600F025FC002872
:1012B000E9D1DCE72DE9F74F437A04460F4616469D
:1012C00023B94FF0FF3003B0BDE8F08F037ADA079F
:1012D000F7D5C3690269DFF8E0A0DFF8E0B09B1A38
:1012E0009E4288BF9EB2B046B8F1000F01D130B225
:1012F000E9E7637A2269606A022BC2F308054FEAC4
:10130000522122D1406A0844C5F50073227A9845DB
:10131000CCBF1FFA83F9C146530602D4B9F5007F4A
:1013200003D1DAF8002082422CD1002100F072FBB8
:101330000028C6D01F4B1D4405EB09002A4639463C
:10134000824232D17D1B571927E00379013B0B40C4
:101350005FFA83F92DB9B9F1000F02D152B9226AAF
:10136000E260626AE068117C526902388840104489
:101370004844C9E7E16804F10C0200F08BFB002847
:10138000EFD19EE7009701464B46DBF800002A4666
:10139000FFF70FFE002894D04F442269A8EB090301
:1013A0004A4422611FFA83F89EE712F801CB01F844
:1013B00001CBC5E7440B002024000020400B002097
:1013C00037B5437A012B044609D9036901220DF18F
:1013D0000701C3F34315FFF76DFF012802D000207A
:1013E00003B030BD236903481F33236100EB451070
:1013F000F6E700BF440B0020F8B5437A04460E46DA
:101400000BB90020F8BDC2698A42FAD3022B01D081
:1014100019B9E16026610120F4E7436A01691A7C89
:10142000751E09324B1ED340D540AB4200D871B96E
:10143000236AE36004F10C07002DEBD0E168606AD9
:101440003A4600F027FB013D0028F5D1D9E7ED1A17
:10145000F0E7000070B5437A04460E4643B390F9B6
:101460000830002B1ADA0121FFF7A4FE0546F8B177
:10147000637A012B9CBFE369C361236A43831B0C1E
:1014800083820C4B1B682BB100F116011830984772
:101490002B8B6B82237A03F07F0323721EB9237A8E
:1014A00023F0100323723046BDE8704000F08EBA7E
:1014B000002070BD340B002010B501210446FFF759
:1014C000C9FF10B100236372012010BD10B5437A2B
:1014D000012B04460AD1037A9A0707D5590707D486
:1014E000154B1868FFF71BFE014650B1002010BDD8
:1014F000C16903698B42F3D0FFF77EFF0028EFD16B
:10150000F4E7237A9A0607D52046FFF7A3FF237A4C
:1015100023F020032372E9E7084A126812B100F0B1
:101520003DFAE3E72069C0F3080043F01003C0F57B
:101530000070237280B2DAE7400B0020380B0020E5
:10154000F7B5437A012B04460D4603D00023184615
:1015500003B0F0BD027A9207F8D5C2698A42F5D38A
:10156000002AF4D00669FFF747FF0028EED0606A32
:10157000D5B9216A00F084FB0028E7D02562237AE0
:10158000E56163F07F03237201212046FFF762FFCC
:101590000028DBD0AE423146204628BF294603B0A2
:1015A000BDE8F040FFF728BFE16801AA00F072FA39
:1015B0000028CBD0606A0C4A90F8207001994FF651
:1015C000F873102F18BF13469942D8D200F058FB79
:1015D0000028BBD0E168606A6FF0704200F0B0FA9A
:1015E0000028CCD1B2E700BFF8FFFF0F38B51C4B85
:1015F00003EB41131546DA7A12F0110F044604D0BA
:1016000015F0420F01D0002038BD164A217612682D
:10161000598B62619A8A41EA02412162DA7A12F0B8
:10162000180210D1DB69E3610123637205F00F0337
:10163000237200216B06C4E903110FD52046BDE8D3
:101640003840FFF77DBF102ADDD1606A04F11C022B
:1016500000F052FA0028D6D00423E6E70120D3E7B1
:10166000440B0020240000202DE9FF4705460C46CE
:101670006E7A10461F4676BB01A9FFF7A9FD824688
:1016800048B3636A6B62C4E90366DFF8F4902369C8
:10169000E269934214D22046C3F34318FFF790FE49
:1016A0000146C0B10378002B62D0E52B17D146BBB1
:1016B000D9F8003085F818806B610B780BBB564663
:1016C00007F01203122B06D1EEB101212846FFF7D5
:1016D00071FD044608BB002004B0BDE8F0870B2272
:1016E00001A807F0A9FB0028D1D107F03003302B67
:1016F000F1D03A464146284604B0BDE8F047FFF72E
:1017000075BF5646C3E7637A022BE4D02046FFF745
:101710002DFD0028DFD0184C2E761522002104F173
:101720000B0007F0B2FB01AB03CB1A889B78A372C6
:10173000124B20601B68616022818BB104F10E01A5
:1017400004F110009847238A63822383E389E382AC
:10175000012000F03BF90028BDD0297E3A46CAE7B7
:1017600021222274A373282208236274E373EAE718
:10177000002E9DD0A3E700BF440B0020340B0020B7
:101780002400002010B500210446FFF7D9FE68B1FF
:1017900001212046FFF70EFD40B1E5230370002331
:1017A0006372BDE81040012000F010B9002010BDA8
:1017B00000B58BB000230A460849019300918DF8CB
:1017C0000930014602236846FFF74EFF10B1684614
:1017D000FFF7D8FF0BB05DF804FB00BFD09A0008FC
:1017E0002DE9F04F437A012B85B004468846174611
:1017F00023D1057AA90720D56A0716D4C5F30015A9
:1018000085F00105EBB2DFF878B10193BA4625699E
:10181000BAF1000F15D1E269237AAA4280F09280D2
:10182000E56163F07F03237292E0C1690369994225
:10183000E4D0FFF7E1FD0028E0D101236360002040
:101840008AE0606A0679013E06EA552616F0FF0630
:10185000C5F308050BD155B9E168002935D1236AD4
:1018600023B92046FFF76BFC08B9E6E7E360626A3C
:10187000E368117C5269C5F500791FFA89F9D145F1
:10188000A3F1020328BFD1468B401344B9F5007F72
:101890001E442DD1DBF800303448B34204BF4FF072
:1018A000FF33CBF800300068019B42463146FFF71A
:1018B000FCFB0028C1D008F500782369AAEB090ACF
:1018C0004B441FFA8AFA2361A1E703AA00F0E2F869
:1018D0000028B4D0636A264893F82010039A4FF684
:1018E000F873102918BF03469A42BAD2E260BEE7E5
:1018F000E5B92269E3699A4218D3012000F066F83D
:1019000000289AD01B4ACBF80060137843F00103FB
:101910001370194B1D4405EB09012B4642468B42BF
:101920000BD1A8EB050503EB0508C6E701213046FE
:1019300000F070F80028ECD17FE712F8010B03F8F3
:10194000010BECE70D4A126812B1002F7FF469AF6A
:10195000237A1B0703D4384605B0BDE8F08F012178
:101960002046FFF777FD0028F5D166E7400B002001
:10197000F8FFFF0F3C0B0020440B0020340B00202D
:101980002400002007B501228DF807100DF1070192
:10199000FFF726FF03B05DF804FB000010B5084C0C
:1019A0002168034609B9012010BD0648064A0068AF
:1019B000FFF77BFB0028F7D000232360F3E700BF8D
:1019C000380B0020400B0020440B002038B50D4D93
:1019D0002B7804460BB9012038BD0B490B4A096826
:1019E00003460B480068FFF760FB08B90020F3E7E7
:1019F000002CF0D02046FFF7D1FF0028F6D00023BE
:101A00002B70E8E73C0B002024000020440B002052
:101A1000400B002070B50D4E3368834205460C46DE
:101A20000ED00120FFF7D2FF08B9002070BD084B8F
:101A3000084A18682946FFF709FB0028F5D03560E9
:101A4000054B1A7814431C700120EFE72400002096
:101A5000400B0020440B00203C0B002038B505460D
:101A60000120FFF7B3FF044660B14FF4007206484F
:101A7000002107F00AFA054B054A1D60137843F070
:101A800001031370204638BD440B002024000020C1
:101A90003C0B0020C36801338B4270B505460C46F1
:101AA000164601D2002070BD90F82020C369102A8C
:101AB0000CBF080AC80918440D4B1B6883420AD1A1
:101AC00095F82030102B0B4B0BD1E4B233F81430C7
:101AD00033600120E7E70021FFF79CFF0028EFD1EA
:101AE000E0E704F07F0453F8243023F07043EFE77D
:101AF00024000020440B00202DE9F3410F4E0191FA
:101B00000446154600274FF40078019901AA2046A3
:101B1000FFF7C0FF70B1237C94F8202008FA03F38C
:101B20001F444FF6F873102A18BF3346019A9A42A1
:101B3000EBD32F6002B0BDE8F08100BFF8FFFF0FCC
:101B40000129F8B505460C46174601D80020F8BD16
:101B5000C36801338B42F9D390F82020C369102A5F
:101B60000CBF0E0ACE091E44134B1B68B34211D1A1
:101B700095F82030102B114B13D1E4B223F81470D8
:101B80000F4A137843F0010313702B7E012B0DD8FD
:101B90000120DCE700213046FFF73CFF0028E7D1B9
:101BA000D4E704F07F0443F82470E9E7AB68054A02
:101BB00033441360ECE700BF24000020440B0020F6
:101BC0003C0B0020380B00202DE9F74F1468064627
:101BD0000F4690464CB301344FF00009F368254698
:101BE00003F1010B4FF0000AF368534518D95D4526
:101BF00088BF022501AA2946304688BF2C46FFF738
:101C000049FF68B1019A6B1CB2B91A1BBA4214D1D0
:101C10006FF0704229463046FFF792FF0746D0B971
:101C20000027384603B0BDE8F08F4B1ED3F1000902
:101C3000046849EB0309D1E71C460AF1010A1D4675
:101C4000D2E705F1FF3A2A4651463046FFF778FFC2
:101C50000028E5D05546AC42F3D3D8F8001039B986
:101C6000C8F80040B9F1000FDBD001343460D8E788
:101C700022463046FFF764FF0028F1D1D0E700008C
:101C800073B502230E4E036005460C4601AA214699
:101C90002846FFF7FFFE88B1002221462846FFF7BD
:101CA0004FFF58B195F82020019C4FF6F873102A89
:101CB00018BF33469C42E9D302B070BD0020FBE759
:101CC000F8FFFF0FF8B53B4B054619601446DAB133
:101CD000042A01D90020F8BD00210846FFF79AFE2A
:101CE0000028F7D0344B03EB041292F8AE215206D1
:101CF000F0D11B3403EB0413D3F80A20632AE9D98B
:101D0000D3F80640002CE5D000212046FFF782FEE4
:101D10000028DFD0284BB3F80B20B2F5007FD9D1D3
:101D20001A7C002AD6D0D9890029D3D0597B002922
:101D3000D0D02A76002229712A74012707FA02F6E8
:101D4000B14227D1DE8A06B95E6AD989AE602144E4
:101D5000E961B3F811C0A5F822C01FFA8CF793F817
:101D600010C006FB0C117E0106F2FF16696201EB42
:101D700056216961B3F8136006B91E6A641A3444C7
:101D8000D44040F6F4729442EC600AD80C2385F8F3
:101D90002030A0E70132092A2A74CFD19AE7102314
:101DA000F5E74FF6F4729442F9D9DB6A6B622023AF
:101DB000EDE700BF400B0020440B00202DE9F0416F
:101DC0001646444ADDF818801C460123C0E91B234F
:101DD0000D465C220021074607F057F8F3B24A2B64
:101DE00028D83D4A52F8233006F4E0661E43EBB291
:101DF0004A2BFE6532D8384A52F8233005F4E065A4
:101E00001D43E3B24A2B3D663CD8334A52F8233097
:101E100004F4E0641C435FFA88F24A2A7C6645D8E1
:101E20002D4951F8222008F4E0631343BB6638467D
:101E3000BDE8F08106F0C002C02A0CD1CF2B0AD831
:101E4000264B06F03F0206F4E06653F82220224BB0
:101E500053F82230CAE74FF0FF36C8E705F0C0025A
:101E6000C02A0CD1CF2B0AD81C4B05F03F0205F439
:101E7000E06553F82220184B53F82230C0E74FF0AA
:101E8000FF35BEE704F0C002C02A0CD1CF2B0AD820
:101E9000124B04F03F0204F4E06453F822200E4B8E
:101EA00053F82230B6E74FF0FF34B4E708F0C00330
:101EB000C02B0CD1CF2A0AD8084B08F03F0253F8A8
:101EC0002210054A08F4E06352F82120ADE74FF0F4
:101ED000FF33ABE700093D006CA200082CA200080C
:101EE00037B501230D460022074980F85120C1660D
:101EF00080F8703080F8712080F87250009500F002
:101F000079F803B030BD00BF00093D001FB502AB3A
:101F100083E80600C16E029A9142044605D1026F21
:101F200003994A4032F07F4210D09A8802989B79F8
:101F3000E066A4F8702084F87230009394F8703052
:101F400094F87120E16E204600F054F804B010BD02
:101F5000704707B5002A8DF807100DF107014FF003
:101F600001030CBF0A46002200F06AF99DF8070041
:101F700003B05DF804FB000007B54B2300934A2231
:101F8000072306210248FFF719FF03B05DF804FBA1
:101F9000440D002030B591FAA1F391FAA1F1B3FA02
:101FA00083F3C4685B000325B1FA81F105FA03F3FA
:101FB000490024EA03038A401A43C26030BD00008E
:101FC000084A0346106863B1074A934201D101F001
:101FD0005BBC064A934201D101F046BC044A9342DD
:101FE000FAD07047800000200030014000380040E7
:101FF000003C00402DE9F04F0E4685B015461F46C7
:102000000446002800F0C6808349006E04F024F9DD
:1020100082498146E06D04F01FF981498346606E74
:1020200004F01AF97F498046A06E04F015F9824643
:10203000B9F1000F00F0AE80BBF1000F00F0AA80F4
:10204000B8F1000F00F0A6805946484604F02BF97D
:1020500051468146404604F026F9014680464846EE
:1020600004F021F9A065B9F1000F00F09380B8F1F8
:10207000000F00F08F80002800F08C80A26E9DF889
:1020800038302060511C0CBF4FF400724FF4802296
:10209000002B14BF00234FF48273A2616360FFF72B
:1020A0008FFFB6EB500F78D2B6EB900F77D2B6EB2E
:1020B000D00F76D2B6EB101F75D2B6EB501F74D28C
:1020C000B6EB901F73D2B6EBD01F2CBF3023382352
:1020D000E361002D6DD0022D6DD0013D18BF0125AB
:1020E0006D000123B7FA87F7C4E904537F0907237A
:1020F00000269F40E3624849206EA660C4E9087646
:10210000A662E66004F090F84449E06D04F08CF8B3
:10211000606E434904F088F82369B342636EC3F3E9
:10212000031114BF01220222082998BF3E4803F080
:102130000F0398BF50F821003C4988BF3046022A5F
:1021400051F8231018BF0122FFF724FF3549A06E74
:1021500004F06AF82368364A93422ED10023019393
:10216000344B5A6C42F480525A645A6C02F48052D6
:102170000192019A5A6A42F480525A625A6A22F4CF
:1021800080525A62204601F03EFC2268136843F0F8
:102190004003136005B0BDE8F08F002398E70823E3
:1021A00096E7102394E7182392E7202390E728234B
:1021B0008EE72B4696E7002394E71F4A934214D1FB
:1021C000002302931B4B1A6C42F480421A641A6C6F
:1021D00002F480420292029A1A6A42F480421A621F
:1021E0001A6A22F480421A62CCE7144A9342C9D197
:1021F000002303930F4B1A6C42F400421A641A6CCA
:1022000002F400420392039A1A6A42F400421A62EC
:102210001A6A22F40042E6E7589D0008049D00086F
:10222000B09C00085C9C000850000020F09A000858
:10223000003001400038024000380040003C0040BF
:102240002DE9F0410D4616461C4633B3076800F0F1
:1022500091F88046BB689907FCD5D5B115F8013BCC
:102260003B73BB68DA07FCD53B7B0EB106F8013B3C
:1022700000F080F8A0EB0800B0F57A7F04F1FF349D
:1022800009D2002CE6D12046BB681B06FCD4BDE871
:10229000F081FF23E4E70120F6E70220F7E770472B
:1022A000704700000A4B0B4A10B51A6200240A4A14
:1022B0001C625A62094A5C621A61C1221C615A613D
:1022C00001225C619A619C61FFF7EAFF204610BD24
:1022D00000380240FFC9FEF633797704FF1160220F
:1022E00038B50E4B1A784FF47A73B3FBF2F30C4AFD
:1022F00005461068B0FBF3F000F0BAF8044658B990
:102300000F2D09D8024629464FF0FF3000F05EF845
:10231000044B20461D6038BD0120FCE7280000204A
:10232000800000202C00002008B50B4B1A6842F4F6
:1023300000721A601A6842F480621A601A6842F4E5
:1023400080721A60032000F02FF80020FFF7C8FF0A
:10235000FFF7A5FF002008BD003C0240034A044BE4
:1023600011681B780B441360704700BFB80D002044
:1023700028000020014B1868704700BFB80D0020EE
:1023800038B50446FFF7F6FF631C1CBF054B1B78EE
:10239000054618BFE418FFF7EDFF431BA342FAD32D
:1023A00038BD00BF280000200749CA6822F4E06257
:1023B0000302120403F4E063120C134343F0BF63FF
:1023C00043F40033CB60704700ED00E0164B30B5AE
:1023D000DC68C4F30224C4F10703251D042B28BFC5
:1023E0000423062D4FF0FF358CBF033C002405FA73
:1023F00003F321EA0303A54022EA0502A3400028D3
:1024000043EA0203ACBF00F16040084A4FEA0313FD
:10241000B8BF00F00F00DBB2AABF00F56140135453
:1024200080F8003330BD00BF00ED00E014ED00E0A7
:10243000002807DB044A4109012300F01F00834004
:1024400042F82130704700BF00E100E000280CDBBB
:102450004309064900F01F0020330122824041F861
:102460002320BFF34F8FBFF36F8F704700E100E071
:102470000138B0F1807F0BD24FF0E023054A58615C
:10248000F02182F823100020072298611A6170471A
:102490000120704700ED00E0002808DB43090449F3
:1024A00000F01F0001226033824041F82320704772
:1024B00000E100E0704708B5FFF7FCFF08BD70477A
:1024C00010B5044650B1437903F0FF0213B902710D
:1024D000FFF7F5FF01236371002010BD0120FCE729
:1024E00010B5044668B1037903F0FF0213B94271D5
:1024F00003F0BCFB02232371002001232061237120
:1025000010BD0120FCE710B5044640B10223037161
:1025100003F006FC002020616071207110BD0120D5
:10252000FCE730B5034650B34279012A4FF0020070
:1025300016D01A681871156801F010040120A04027
:102540002843106069B9116801F03C013C2903D1AE
:10255000516841F001015160012200201A71587147
:1025600030BD1168002C01F470110CBF3C204FF4F9
:1025700070108142F0D1516841F00201EBE7012077
:10258000EEE710B5012358B1046801F0100122688C
:1025900003FA01F122EA010222600371002010BD5A
:1025A0001846FCE713B50024019470B1006801904F
:1025B00041B9019908310A440192019A002013603F
:1025C00002B010BD01991431F5E70120F8E730B5EC
:1025D00003460C4608B301B3417901294FF00200CC
:1025E0001AD01871186802F01002056840F6FE71E2
:1025F000914025EA0105D4E9001421439140294383
:1026000001600168C02404FA02F221EA02020260B9
:10261000012200201A71587130BD0120FCE770B50D
:102620000446866DFFF7A6FE94F83530022B05466A
:1026300006D0802363650120002384F8343070BD08
:1026400023681A6822F016021A605A6922F0800282
:102650005A61226C0AB9A26C1AB11A6822F00802F7
:102660001A601A6822F001021A602368186810F0D4
:10267000010007D1E26D3F239340B360012384F84A
:102680003530D9E7FFF776FE401B0528EDD920232A
:102690000320636584F83500CEE790F83530022BCF
:1026A00003D080234365012070470268052380F82A
:1026B0003530136823F001031360002070470000D9
:1026C0001A4BDA68D20606D51949CA6942F01002D7
:1026D000CA611022DA60DA68900606D51449CA6920
:1026E00042F00802CA612022DA60104BDA68510613
:1026F00006D50F49CA6942F00402CA614022DA6075
:10270000DA68120606D50A49CA6942F00202CA61AD
:102710008022DA60054AD3689B0706D50449CB6955
:1027200043F02003CB610223D3607047003C02409A
:1027300030000020064B1A69002ABFBF054A5A60C4
:1027400002F188325A60BABF1869C00F0020704782
:10275000003C024023016745034A136943F00043EC
:1027600013610020704700BF003C0240114B70B560
:1027700000220446DA61FFF7FDFD0F4D0646EB68C7
:10278000DA030CD4EB68DB0744BF0123EB60E86895
:1027900010F0F20007D0FFF793FF012003E0611C67
:1027A000EDD00CB9032070BDFFF7E4FD801BA04203
:1027B000E5D9F7E730000020003C0240074B1A69DA
:1027C00022F440721A611A6942F004021A611A690D
:1027D00042EA002242F480321A617047003C024013
:1027E0000D4B1A6922F440721A611A69022994BFCA
:1027F00009024FF440710A431A611A6922F0780203
:102800001A611A6942EAC00040F0020018611A69B0
:1028100042F480321A617047003C0240144B1A683F
:1028200091050FD51A6822F400721A601A6842F4F2
:1028300000621A601A6822F400621A601A6842F490
:1028400000721A600A4B1A6852050FD51A6822F4F2
:1028500080621A601A6842F480521A601A6822F480
:1028600080521A601A6842F480621A60704700BF92
:10287000003C02402DE9F843DFF8948098F81830C6
:10288000012B05460F463FD001234CF2503088F80B
:102890001830FFF76BFF0446A0B94FF0FF333B60E1
:1028A0002B68012B14D1287CFFF788FF4CF25030A5
:1028B000FFF75CFF154A136923F004030446136114
:1028C000FFF7ACFF002388F818302046BDE8F883F6
:1028D000AE68DFF83890D5E902231344B342EFD94C
:1028E000297C3046FFF77CFF4CF25030FFF73EFF6B
:1028F000D9F8103023F07A03C9F8103010B13E60D7
:102900000446DDE70136E6E70224DEE7003C02404C
:1029100030000020044A5169014208B502D05061DC
:1029200003F010FB08BD00BF003C0140F7B50446B2
:1029300010B390F89534056803F0FF021BB980F8D6
:10294000942405F023FB0323B5F1A04F84F89534BC
:1029500004BF0023A371206802F0AEFC237C8DF835
:102960000030251D95E80E00206802F0EAFB0146C4
:1029700030B1022384F895340125284603B0F0BD18
:10298000206802F09FFC0028F3D1267904F114039B
:1029900001270246C1B28E4203F124031BD8002155
:1029A00004F515730A46C8B2864203F1240320D801
:1029B000237C8DF8003095E80E00206802F0FEFCC4
:1029C00005460028D5D101236074206884F8953429
:1029D00003F029F8D1E723F80A0C43E9072203F8AA
:1029E000237C03F8241C03F8202C43F8142C01301A
:1029F000D0E743E9072203F8232C03F8240C03F85B
:102A0000202C43F8142C0131CDE710B504460068A2
:102A100094F89434012B15D0012384F89434C368BE
:102A20005B0606D5637B012B02BF836B43F48033C7
:102A3000836302F03BFC206802F0E7FF002084F88B
:102A4000940410BD0220FCE710B590F89424012AEC
:102A500004460AD0012280F894244174006802F0F0
:102A6000C4FF002084F8940410BD0220FCE770B578
:102A70000546242401F00F0011F0800F00FB04F440
:102A800014BF04F1140104F5157105EB040615BF1C
:102A9000491949190124002414BF747586F8554258
:102AA000C2F30A028A604A7808700B7102B1488347
:102AB000022B04BF00234B7195F89434012B09D0ED
:102AC0000123286885F8943402F03DFD002085F844
:102AD000940470BD0220FCE701F00F02242311F0E2
:102AE000800F02FB03F310B514BF03F1140103F5CB
:102AF0001571044618BF091918440BBF09190123A1
:102B00000023437508BF80F855320A7094F8943456
:102B1000012B09D00123206884F8943402F052FD7F
:102B2000002084F8940410BD0220FCE738B5154657
:102B3000242401F00F02544304F515710444C4E940
:102B40009853002384F8553284F85422C4F868322C
:102B50008279012A014408BFC4F87052006802F06B
:102B6000DDFD002038BD01F00F01242303FB01002F
:102B7000D0F86802704738B51546242401F00F02DA
:102B8000544304F114010444C4E908530023A3622C
:102B900001236375227582799A42014408BF256337
:102BA000006802F0BBFD002038BD38B5037901F0A4
:102BB0000F05AB4204462BD311F0800F4FF02403D6
:102BC0001DD06B4303F114010344012201445A75E3
:102BD00001238B700D7094F894249A421AD02068C7
:102BE00084F8943402F0ADFE2DB9A179206804F286
:102BF0009C4202F067FF002084F8940438BD4B43E8
:102C000003F5157103440022014483F85522DFE7E0
:102C10000120F3E70220F1E738B5037901F00F0254
:102C20009342044625D3242311F0800F02FB03F3C3
:102C300014BF03F1140103F51571184415BF0919E8
:102C40000919012300234FF0000514BF437580F8D4
:102C500055328D700A7094F89434012B0BD00123F7
:102C6000206884F8943402F097FE84F8945428463F
:102C700038BD0120FCE70220FAE701F00F0324220F
:102C800053430A064CBF03F1140103F515710144C7
:102C9000006802F0EDBC00002DE9F04F066889B035
:102CA0000446304602F0FBFE0390002840F05481B9
:102CB000206802F0C6FE002800F04E81D6F80838E1
:102CC0002068C3F30D23C4F8D43402F0BAFE23689D
:102CD000870742BF5A6902F002025A61184602F0A1
:102CE000B0FEC00606F500652DD52268936923F075
:102CF00010039361D6F8208008F4F013B3F5802F09
:102D000008F00F0740F02B8147F6F07318EA030F25
:102D100014D0242303FB0747C8F30A19D7F860121D
:102D20004A46304602F0ECFDD7F860324B44C7F813
:102D30006032D7F868324B44C7F86832226893692A
:102D400043F010039361206802F07BFE010300F161
:102D50001981206802F075FE42030CD5206802F04C
:102D60007CFE2746049006F5106B4FF0000A049B8A
:102D7000002B40F0D181206802F063FE002813DAB6
:102D80006B6823F001036B6094F8CC34012B40F0A6
:102D90006A82002184F8CC14204600F0E8FA226808
:102DA000536903F000435361206802F04AFE0705AF
:102DB0000AD5AB68D80702D5204605F0A9F92268E4
:102DC000536903F400635361206802F03AFEC104C2
:102DD00033D56B68206823F001036B60102102F08B
:102DE000A1FA207906F510634FF67F31039A9042DD
:102DF00000F23D82EB6943F00113EB61E37B002BB2
:102E000000F05282D5F8843043F00B03C5F88430CB
:102E10006B6C43F00B036B64D6F80038206823F426
:102E2000FE63C6F8003804F29C42A17902F04AFE23
:102E30002268536903F480535361206802F001FE55
:102E4000820416D5206802F02EFE206802F070FB86
:102E5000E071276800F002FDE2790146384602F091
:102E6000B5F9204605F043F92268536903F400538D
:102E70005361206802F0E5FD030707D5204605F001
:102E800032F92268536903F008035361206802F0A5
:102E9000D8FD070600F11382206802F0D2FDC002BF
:102EA0000CD5A04606F5126901272379BB4200F232
:102EB0001F822268536903F480135361206802F073
:102EC000C0FD81022BD594F804E0234606F532615B
:102ED0004FF0010CE6451DD993F87C720868012F6C
:102EE00040F01C82002880F21982D4F8D42482EAAF
:102EF0001040C20700F1128283F87B72B06940F083
:102F00008000B0617069000600F108826B6843F4CC
:102F100000736B602268536903F4001353612068E7
:102F200002F08FFD410007D5204605F02BF92268FD
:102F3000536903F080435361206802F082FD420729
:102F40000AD523685D686B0702D5204605F01EF997
:102F5000226853682B43536009B0BDE8F08FB3F586
:102F6000402F7FF4EBAE082204F29C41304602F081
:102F7000C7FC242303FB0747C8F30A18D7F86832B5
:102F80004344D9E6206802F060FD06F530680490FD
:102F9000A2460027049B002B3FF4DBAE049BDB071B
:102FA00079D55FFA87FB2068594602F05EFD10F084
:102FB000010F81461FD020680123C8F8083094F81B
:102FC00006C0016C00F5306303EB4713BCF1010F41
:102FD0009A6840F08B8012F0080F07D0B048814209
:102FE00009D9120407D54FF4004203E012F0200F74
:102FF0005AD020229A6019F0080F21D00823C8F86F
:1030000008302368A6491A6C03F5306303EB4713B5
:103010008A42986804D9010444BF4FF40040986084
:103020002046059205F048F8059A9D498A4207D93D
:10303000A179012904D1206804F29C4202F042FDEA
:1030400019F0100F1CBF1023C8F8083019F0020F38
:1030500014D073691A0642BF6B6843F480636B60D7
:103060009AF85732012B06D100238AF85732594675
:10307000204605F07FF80223C8F8083019F0200F29
:103080001CBF2023C8F8083019F4005F1CBF4FF4A0
:103090000053C8F80830049B5B080137049308F11B
:1030A00020080AF1240A75E7DFF8F4C1614501D967
:1030B000120498D41A69DAF87432C2F312029B1A15
:1030C000CAF868326FB9D4F864222AB904F29C4273
:1030D000012102F0F7FC04E0D4F860221A44C4F89D
:1030E00060225946204604F0EDFF84E7DFF8B4C1C2
:1030F000614507D111043FF576AF9006F1D5202246
:103100009A60EEE7002FECD1D4F86432002BE8D1BE
:1031100004F29C423946DCE7049BDB0740F19A80CD
:103120005FFA8AF320680793194602F0A7FC10F0B3
:10313000010F804620D06B6B01210AF00F0201FACB
:1031400002F223EA02036B63CBF80810A17901298C
:103150000DD1D7E9072313443B62BAF1000F06D122
:10316000636A23B9206804F29C4202F0ABFC5FFA68
:103170008AF1204604F0AFFF18F0080F1CBF0823A7
:10318000CBF8083018F0100F1CBF1023CBF8083014
:1031900018F0400F1CBF4023CBF8083018F0020F86
:1031A00010D05146304602F0BDF8FB7D012B06D110
:1031B0000023FB755FFA8AF1204604F0DFFF02234B
:1031C000CBF8083018F0800F44D0D7E909329A4282
:1031D00040D8A3EB0208FB6921680591984528BFF8
:1031E000984601F5106308F1030803EB4A134FEA10
:1031F00098080693069B99697B6A89B2414527D353
:103200009A420BD3059B0AF00F00D3F83428012112
:10321000814022EA0102C3F834281BE0A3EB020933
:10322000FB69079A0598994528BF9946A3790093A9
:10323000396A1FFA89F302F05DFA3B6ABA6A09F14A
:1032400003084B444A444FEA98083B62BA62D1E70C
:103250009A42D7D2049B5B080AF1010A04932437EF
:103260000BF1200B83E5204604F06AFF97E5996097
:103270001A6822F400121A60C3F80812D3F8002268
:1032800022F40012C3F80022D3F8002242F00062B8
:10329000C3F80022039A013203922033A6E500BF4F
:1032A0000A30544F0A31544F6B6943F4005343F0D2
:1032B0002B036B612B6943F00B032B61ACE5B36906
:1032C00023F08003B361012704F257284FF024094B
:1032D0002379BB427FF6E0AD09FB07F318F8033012
:1032E000012B03D1F9B22046FFF7C7FC0137EFE706
:1032F00098F83C30D9F80020012B09D1002A07DAD0
:1033000067F07F0188F83B30C9B22046FFF7B5FC73
:10331000013708F1240809F12009C6E50CF1010C78
:1033200024332031D6E500BF006870B5436A12042B
:1033300019B913438362002070BD846A4E1E03EBEB
:1033400014430024B44205D33F3100EB8100134302
:103350004360F0E704F1400500EB850501346D683A
:1033600003EB1543EEE7036800205962704770478E
:103370002DE9F341044640B30368DE0710D4236807
:103380009D075BD42368190700F19D8023685A07C5
:1033900000F1BD80A369002B40F0248100202CE0C7
:1033A0008D4B9A6802F00C02042A07D09A6802F04A
:1033B0000C02082A0BD15B68590208D5864B1B68A2
:1033C0009A03DCD56368002BD9D1012015E063682E
:1033D000814DB3F5803F13D12B6843F480332B60CC
:1033E000FEF7C8FF7C4E054633689B03C7D4FEF743
:1033F000C1FF401B6428F7D9032002B0BDE8F0816B
:10340000B3F5A02F04D12B6843F480232B60E3E7AE
:103410002A6822F480322A602A6822F480222A60F4
:10342000002BDDD1FEF7A6FF06462B689F03A6D52D
:10343000FEF7A0FF801B6428F7D9DDE7664B9A688A
:1034400012F00C0F07D09A6802F00C02082A11D172
:103450005B685D020ED4604A1368990702D5E36881
:10346000012BB2D11368216923F0F80343EAC103A9
:10347000136087E7E268594BB2B101221A60FEF788
:1034800079FF554D06462B689B0707D52B682269A7
:1034900023F0F80343EAC2032B6073E7FEF76AFFE9
:1034A000801B0228EFD9A7E71A60FEF763FF4A4E98
:1034B000054633689F077FF565AFFEF75BFF401B4E
:1034C0000228F6D998E76269444B82B10122C3F819
:1034D000802EFEF74FFF404E0546736F9B073FF56A
:1034E00055AFFEF747FF401B0228F6D984E7C3F823
:1034F000802EFEF73FFF384E0546736F9F077FF51E
:1035000045AFFEF737FF401B0228F6D974E7324B70
:103510001A6C12F0805228D101921A6C42F080523B
:103520001A641B6C03F080530193019B01272C4DFF
:103530002B68D8051BD5A368274D012B27D12B6FEE
:1035400043F001032B67FEF715FF234E054641F2BA
:103550008838336F9A0739D5002F3FF41BAF1E4AC6
:10356000136C23F08053136414E70027DFE72B6804
:1035700043F480732B60FEF7FDFE06462B68D905E9
:10358000D9D4FEF7F7FE801B0228F7D934E7052BC4
:1035900004D12B6F43F004032B67D0E72A6F22F08E
:1035A00001022A672A6F22F004022A67002BCAD17F
:1035B000FEF7E0FE41F2883806462B6F9B07CBD51D
:1035C000FEF7D8FE801B4045F7D915E7FEF7D2FE7F
:1035D000401B4045BDD90FE700380240000047427C
:1035E00000700040374DAA6802F00C02082A3ED055
:1035F000022B354B4FF000021A662BD1FEF7BAFEB4
:1036000006462B6899011FD4D4E907321343626A36
:1036100043EA8213E26A43EA0263A26A5208013A69
:1036200043EA02436B60284B264D01221A66FEF7DF
:10363000A1FE04462B689A013FF5B0AEFEF79AFE54
:10364000001B0228F6D9D7E6FEF794FE801B02285D
:10365000D7D9D1E6FEF78EFE04462B689B017FF595
:103660009DAEFEF787FE001B0228F6D9C4E6012BAB
:103670003FF4ABAE6B68E26903F4800191427FF4E2
:10368000A4AE216A03F03F028A427FF49EAE616AD3
:1036900047F6C0721A40B2EB811F7FF496AEA26A61
:1036A000520803F44031013AB1EB024F7FF48DAE82
:1036B000E26A03F07063B3EB026F14BF01200020D5
:1036C0009BE600BF0038024000004742134908B59E
:1036D0008B6803F00C03042B1CD0082B1CD14A6808
:1036E0004B68496813F4800314BF0D480D48C1F3BB
:1036F000881118BF002302F03F02A1FB0001FCF774
:103700009FFD064B5B68C3F3014301335B00B0FBD5
:10371000F3F008BD0248FCE70248FAE7003802402F
:1037200000127A000024F4002DE9F0410D46044611
:1037300010B90120BDE8F081434B1A6802F007027E
:103740008A4228D321688F072DD4C80740D43E4B26
:103750001A6802F00702AA4265D8226851076BD4A2
:10376000130707D5394A2169936823F4604343EA74
:10377000C1039360FFF7AAFF344B354A9B68C3F33C
:103780000313D35CD840334B1860334B1868FEF7F3
:10379000A7FD0020CEE7CAB21A701B6803F007032A
:1037A0008B42C6D1CEE7294B11F0040F1EBF9A6899
:1037B00042F4E0529A600E0742BF9A6842F46042B7
:1037C0009A609A68A06822F0F00202439A60BCE70F
:1037D00062681E4B012A1CD11B6813F4003FA8D05D
:1037E0001A4EB36823F003031343B360FEF7C2FD20
:1037F00041F288380746B368626803F00C03B3EB04
:10380000820FA4D0FEF7B6FDC01B4045F3D90320BC
:1038100090E7911E01291B6802D813F0007FDEE7B4
:1038200013F0020FDBE7EAB21A701B6803F007031C
:10383000AB427FF47EAF90E70449E0688B6823F4E5
:10384000E05303438B608BE7003C024000380240AA
:10385000389B0008800000202C000020014B1868D5
:10386000704700BF80000020044B054A9B68C3F3EB
:103870008223D35C034A1068D84070470038024066
:10388000309B000880000020044B054A9B68C3F36E
:103890004233D35C034A1068D84070470038024076
:1038A000309B0008800000200F2303600B4B9A68B8
:1038B00002F0030242609A6802F0F00282609A68A5
:1038C00002F4E052C2609B68DB0803F4E05303613A
:1038D000034B1B6803F007030B607047003802407E
:1038E000003C024070B5414CFEF744FD236843F0B4
:1038F0000103054623602368980758D5236843F0E1
:1039000080032360FEF736FD0023A360374C054695
:1039100041F28836A36813F00C0F4FD1FEF72AFD51
:10392000236823F450232360304C05462368990311
:103930004AD4FEF71FFD236823F0807323602B4CCD
:10394000054623689A0145D4FEF714FD236823F049
:1039500080632360254C054623681B0140D4244B1B
:103960006360244BC4F88430E368234A23F4F8539B
:10397000E360E36823F40053E360E36843F41F0368
:10398000E360E36843F40013E360636F23F0010333
:103990006367636F43F080736367184B1A60184B5B
:1039A0001868FEF79DFC003818BF012005E0FEF7FF
:1039B000E1FC401B02289ED9032070BDFEF7DAFC13
:1039C000401BB042A6D9F7E7FEF7D4FC401B6428A1
:1039D000ACD9F1E7FEF7CEFC401B0228B1D9EBE7EA
:1039E000FEF7C8FC401B0228B6D9E5E700380240C4
:1039F00010300004003000200024F400800000207B
:103A00002C000020704710B50446002855D0436AAA
:103A1000002B4ED14268B2F5827F00D0C3610023F3
:103A2000A36294F8513003F0FF0223B984F85020C8
:103A30002046FFF7E7FF2168A068A269022384F807
:103A400051300B6823F040030B60636800F40440BE
:103A500003F482730343E06800F4006003432069C9
:103A600000F002000343606900F00100034302F428
:103A700000700343E06900F038000343206A00F05F
:103A800080000343A06A00F4005003430B60636AA4
:103A9000120C03F0100302F004021A434A60CB69CF
:103AA00023F40063CB6100200123606584F851306A
:103AB00010BD0023C0E90433B1E70120F8E700009E
:103AC000036A026A22F0010270B5026244688269E8
:103AD0000D6822F073022A438D6823F002032B4302
:103AE0000C4DA84203D005F58065A8420BD1CD68E6
:103AF00023F008032B43D1E9055624F440743543E1
:103B000023F004032C43446082614A6842630362E9
:103B100070BD00BF00000140036A026A22F4807297
:103B200070B502624468C2690D6822F073022A43CC
:103B30008D6823F4007343EA05230D4DA84203D09A
:103B400005F58065A8420DD1CD6823F4006343EAF2
:103B50000523D1E9055624F44054354323F480630A
:103B600044EA05144460C2614A68C263036270BDDE
:103B700000000140036A026A22F4805230B50262FA
:103B80004468C2690D6822F4E64242EA05228D6863
:103B900023F4005343EA0533084DA84203D005F54A
:103BA0008065A84204D14D6924F4804444EA851418
:103BB0004460C2614A680264036230BD0000014093
:103BC00090F83D30012B2CD10223174A80F83D306C
:103BD000036893421AD0B3F1804F17D0A2F57C420C
:103BE000934213D002F5806293420FD002F58062B7
:103BF00093420BD002F57842934207D002F57052FF
:103C0000934203D0A2F59432934204D19A6802F011
:103C10000702062A03D01A6842F001021A60002047
:103C200070470120704700BF0000014090F83C2021
:103C3000012A03464FF0020009D01A6883F83D00BC
:103C400051610020012283F83D2083F83C00704739
:103C500070477047036870B5DD681E69B107044698
:103C60000DD5AA070BD56FF002021A610122027767
:103C70009B699B0769D001F03AFA0023237771070B
:103C800010D56A070ED523686FF004021A6102226C
:103C900022779B6913F4407F20465CD001F027FA1D
:103CA0000023237733070FD528070DD523686FF03E
:103CB00008021A6104222277DB699907204650D056
:103CC00001F015FA00232377F20610D5EB060ED586
:103CD00023686FF010021A6108222277DB6913F45F
:103CE000407F204643D001F002FA00232377F007FB
:103CF00008D5E90706D523686FF001021A6120464E
:103D000001F0D2F9320608D52B0606D523686FF0EC
:103D100080021A61204600F06CFB700608D5690627
:103D200006D523686FF040021A612046FFF791FF25
:103D3000B20622D5AB0620D523686FF020022046BC
:103D40001A61BDE8704000F053BB01F0CEF9204687
:103D5000FFF77EFF91E701F0C8F92046FFF778FFF3
:103D60009EE701F0C2F92046FFF772FFAAE701F0D3
:103D7000BCF92046FFF76CFFB7E770BD274A036820
:103D8000904212D0B0F1804F0FD0A2F57C42904209
:103D90000BD002F58062904207D002F5806290421B
:103DA00003D002F57842904208D14A6823F07003AC
:103DB0001343CA6823F44073134316E0184A904231
:103DC000F7D002F580629042F3D002F58062904213
:103DD000EFD0A2F598329042EBD002F5806290428B
:103DE000E7D002F580629042E3D04A6923F0800375
:103DF00013438A68C2620A688262084A904203D00A
:103E000002F58062904201D10A690263026842F0C1
:103E10000402026001224261036070470000014019
:103E20000040014010B5044630B390F83D3003F037
:103E3000FF021BB980F83C2002F0B6FC0223206888
:103E400084F83D30211DFFF799FF012384F84630A7
:103E5000002084F83E3084F83F3084F8403084F805
:103E6000413084F8423084F8433084F8443084F898
:103E7000453084F83D3010BD0120FCE7036A026A3A
:103E800022F0100270B50262446882690D6822F463
:103E9000E64242EA05228D6823F0200343EA051337
:103EA0000D4DA84203D005F58065A8420DD1CD681F
:103EB00023F0800343EA0513D1E9055624F4406456
:103EC000354323F0400344EA8504446082614A6834
:103ED0008263036270BD00BF0000014010B590F81E
:103EE0003C30012B04461DD0082A17D007D862B1F8
:103EF000042A0FD00120002384F83C3010BD0C2A86
:103F0000F8D10068FFF736FE02E00068FFF7D8FD41
:103F10000020F0E70068FFF7B1FFF9E70068FFF75E
:103F2000FBFDF5E70220E9E738B590F83C30012BBE
:103F300004464FD00120082A84F83C003AD006D825
:103F4000BAB1042A26D0002384F83C3038BD0C2AAC
:103F5000F9D12068FFF70EFEC3690A6943F40063D4
:103F6000C361C36923F48063C361C36943EA022365
:103F70002EE02068FFF7A4FD83690A6943F0080377
:103F80008361836923F0040383618369134383613D
:103F90000020D8E72068FFF771FF83690A6943F4BE
:103FA00000638361836923F480638361836943EAE7
:103FB0000223ECE72068FFF7AFFDC3690A6943F00D
:103FC0000803C361C36923F00403C361C3691343D6
:103FD000C361DDE70220B9E770B5056A046A194ECE
:103FE00024F001040462B042846926D0B0F1804F0D
:103FF00023D0A6F57C46B0421FD006F58066B042BD
:104000001BD006F58066B04217D006F57846B04260
:1040100013D006F57056B0420FD0A6F59436B042D4
:104020000BD044F0010263F3071201F00A0125F0FE
:104030000A0319438261016270BD24F00304224324
:10404000F1E700BF00000140F8B590F83C30012BCB
:1040500005460C4600F082800120082A85F83C00C5
:104060005CD006D842B3042A36D0002385F83C3011
:10407000F8BD0C2AF9D12B68CE68186AD1E900275F
:10408000196A21F480511962D969120321F440712F
:1040900041EA072120F4204002F4204266F30F3168
:1040A0000243D9611A62DA69A16822F44062DA61D6
:1040B000DA6942EA01224FE02868CB68D1E90012B0
:1040C000FFF78AFF8369A26823F00C038361836989
:1040D000134383610020C8E72B68CE68186AD1E9D2
:1040E0000027196A21F0100119629969120121F45F
:1040F000407141EA072120F0A00002F0A00266F31F
:104100000F31024399611A629A69A16822F44062F0
:104110009A619A6942EA01229A61DBE72B68E768B3
:10412000186A1E6A26F48076D1E900211E62DE69D3
:10413000120226F00306314320F4206002F42062CC
:1041400067F307110243D9611A62DA69A16822F0A4
:104150000C02DA61DA690A43DA61BBE7022087E719
:10416000036A10B501F01F0101248C4023EA040307
:104170000362036A8A401A43026210BD08B529B976
:1041800090F83E30012B1FD0012035E0042907D1E3
:1041900090F83F30012BF7D1022380F83F3016E032
:1041A00008290CBF90F8403090F84130013B18BF0F
:1041B0000123002BE8D108294FF002030CBF80F83F
:1041C000403080F8413002E0022380F83E30006841
:1041D0000122FFF7C5FF164B984203D003F5806319
:1041E00098420AD1436C43F400434364836803F06C
:1041F0000703062B17D1002008BDB0F1804FF5D082
:104200000C4B9842F2D003F580639842EED003F550
:1042100080639842EAD003F59A339842E6D0A3F53A
:1042200094339842E2D0036843F001030360E2E76D
:104230000000014000040040FFF7A0BF08B503469E
:10424000002939D190F83E0093F84220C0B20128ED
:10425000D2B25ED1012A2ED10222002942D183F8A6
:104260003E2083F8422018680122FFF779FF2A4B8D
:1042700098421AD0B0F1804F17D0A3F57C439842F2
:1042800013D003F5806398420FD003F58063984202
:104290000BD003F57843984207D003F5705398424A
:1042A00003D0A3F5943398422ED1836803F007031B
:1042B000062B29D1002008BD042905D190F83F0024
:1042C00093F84320C0B2C2E708290BBF90F8400022
:1042D00093F8410093F8442093F845200CBFC0B2F6
:1042E000C0B2B4E7042904D183F83F2083F8432007
:1042F000B9E708290BBF83F8402083F8412083F8F1
:10430000442083F84520AEE7036843F001030360CF
:10431000D0E70120CFE700BF00000140036A10B5DD
:1043200001F00F0104248C4023EA04030362036AB2
:104330008A401A43026210BD08B529B990F842308C
:10434000012B1DD001204EE0042907D190F8433005
:10435000012BF7D1022380F8433014E0082907D15C
:1043600090F84430012BEDD1022380F844300AE06C
:1043700090F84530012BE5D1022380F8453002E06A
:10438000022380F8423000680422FFF7C7FF436C25
:1043900043F400434364144B98421AD0B0F1804F69
:1043A00017D0A3F57C43984213D003F5806398425D
:1043B0000FD003F5806398420BD003F57843984201
:1043C00007D003F57053984203D0A3F59433984275
:1043D00004D1836803F00703062B03D0036843F07E
:1043E00001030360002008BD00000140FFF7A4BFE7
:1043F00070477047026802F10C0353E8003F23F452
:1044000090730C3242E8003102680029F2D102F1C7
:10441000140353E8003F23F0010302F1140C4CE8AD
:1044200000310029F3D1036B012B0BD102F10C03F6
:1044300053E8003F23F0100302F10C0C4CE800316C
:104440000029F3D1202380F8423000230363704712
:1044500090F84130202B10D189B182B1C284016221
:104460008284016800232122436480F84120CA68C5
:1044700042F08002CA60184670470220704701204F
:10448000704708B5806B0023C38502F079FA08BD38
:10449000704790F84230222B07B542D181680268FC
:1044A000836AB1F5805F3FD1016900293FD152682D
:1044B000C2F3080223F8022B8362C38D013B9BB237
:1044C000C385002B2DD10268D16821F02001D16075
:1044D000D16821F48071D160516921F001015161ED
:1044E000202280F842204363026B012A026828D10F
:1044F000036302F10C0353E8003F23F0100302F1C1
:104500000C0C4CE800310029F3D11368DB0605D50B
:1045100001911368019353680193019B818DFFF70B
:10452000B7FF03B05DF804FB39B9016929B95268D6
:10453000D2B21A70836A0133BEE7526802F07F027A
:10454000F7E702F017FAECE703681A6873B5160785
:10455000D9685D69044608D1960668D58D0666D58A
:1045600002B0BDE87040FFF794BF05F0010001F410
:10457000907505435BD0D60705D5CD0542BF636C6A
:1045800043F001036364530704D518B1636C43F02F
:1045900002036364960704D518B1636C43F0040307
:1045A0006364150707D501F0200303431EBF636C46
:1045B00043F008036364636C002B32D0920604D589
:1045C0008B0602D52046FFF764FF26687369626C8C
:1045D00003F0400302F0080253EA0205204622D00D
:1045E000FFF708FF73695E0618D5226802F114030D
:1045F00053E8003F23F04003143242E80031002921
:10460000F3D1E06B50B1774B0365FEF746F840B14C
:10461000E06B036D02B0BDE870401847204602F021
:10462000AFF902B070BD02F0ABF96564F9E7206B39
:10463000012840F09B80D50640F19880C80640F1E3
:104640009580002201921A6801925A680192019A9B
:104650005A69A18D520656D5E06B0268526892B233
:10466000002A47D0914245D9E285C269B2F5807FE0
:1046700036D003F10C0252E8002F22F4807203F1CD
:104680000C0040E800210029F3D103F1140252E8A4
:10469000002F22F0010203F1140040E8002100295C
:1046A000F3D103F1140252E8002F22F0400203F18B
:1046B000140040E800210029F3D1202284F8422090
:1046C000216303F10C0252E8002F22F0100203F1E3
:1046D0000C0040E800210029F3D1E06BFDF79FFFBB
:1046E00002236363E38DA18DC91A89B22046FFF7C7
:1046F000CFFE96E7914294D1C369B3F5807F90D104
:1047000002236363F2E7E28DE08D80B292B200286B
:1047100087D0891A89B2002983D003F10C0252E8AC
:10472000002F22F4907203F10C0545E800200028C8
:10473000F3D103F1140252E8002F22F0010203F139
:10474000140545E800200028F3D1202284F84220F7
:10475000206303F10C0252E8002F22F0100203F153
:104760000C0545E800200028F3D1C9E7160628D536
:104770000D0626D594F84120212A7FF452AFA16876
:10478000226AB1F5805F17D12169A9B932F8021BFD
:10479000C1F3080159602262E28C013A92B2E284CC
:1047A000002A7FF43EAFDA6822F08002DA60DA682D
:1047B00042F04002DA6034E7511C216212785A60FC
:1047C000EAE750067FF52DAF4A067FF52AAFDA6893
:1047D00022F04002DA60202384F84130204602F0C3
:1047E000CCF81EE78344000890F84030012B11D02C
:1047F0000268242380F84130D36823F00C0343F08F
:104800000803D360202380F84130002380F8403033
:10481000184670470220704790F84030012B11D0A5
:104820000268242380F84130D36823F00C0343F05E
:104830000403D360202380F84130002380F8403007
:10484000184670470220704790F8412090F84200C7
:1048500010437047C2850023828502694364222386
:1048600080F84230816203681AB1DA6842F48072DB
:10487000DA605A6942F001025A61DA6842F02002B5
:10488000DA600020704770B590F84260202E07D1A2
:1048900041B13AB100240463FFF7DCFF204670BD4C
:1048A0000220FCE70120FAE7836810B504462BB12B
:1048B0000322014698470023C4E9023310BD8368F0
:1048C00010B5044613B1032201469847204610BD97
:1048D0004B1E032B00D9FEE78900081F704700001C
:1048E0000139435C13F0100004D0022916D80C4A99
:1048F00032F81100DB0712D503290FD8DFE801F0E9
:104900000205080B40F00100704740F010007047AE
:1049100040F48070704740F480507047FEE7704765
:10492000E89A00080139032900D9FEE7014B585CD9
:10493000704700BFE49A00080139032900D9FEE757
:10494000014B585C704700BFE09A00082DE9F04128
:1049500004460E46FFF7BCFF06F1060804EB0818F4
:10496000054631462046FFF7DDFFD8F808302BB169
:104970002369C2431A61DA680243DA60771E04EBE6
:1049800047039B880B2B49D8DFE803F05118181810
:10499000060618184A4A4A2AE35DDE0604D5294667
:1049A00004F11000FFF722FDE35DD80736D5294654
:1049B00004F11000BDE8F041FFF73EBCE35DD9060D
:1049C00004D5294604F11000FFF7B6FCE35DDA07D1
:1049D00024D5294604F11000BDE8F041FFF7CEBB15
:1049E000294604F11000FFF729FC31462046FFF765
:1049F000A3FF2569014606462046FFF771FF2B6A93
:104A00001843D8F80830286243B131462046FFF7F2
:104A100089FFC3432B61EB681843E860BDE8F08170
:104A2000294604F11000BDE8F041FFF707BC2369F7
:104A30001B68DB07F2D404F11000BDE8F041FFF77A
:104A4000BFB870B501250446861C294636F8023FDA
:104A500023B129462046FFF779FF00210135052DB6
:104A6000F4D1A36E3BB123696FF001021A61DA68D9
:104A700042F00102DA6049B123691B68DB0705D403
:104A800004F11000BDE87040FFF79AB870BD000057
:104A90002DE9F0438DB004461F460E46FFF718FF80
:104AA0004FF6FF730593904623690546C8B95B6BC3
:104AB000069300210123CDE902319DF85030079182
:104AC000CDE9091108910B9101910493B8F10B0FF5
:104AD0001DD8DFE808F00F153E41434C4E505452AC
:104AE0005B5D042801D19B6BE2E708280CBFDB6B00
:104AF0001B6CDDE705912A4605A904F1100004E0CE
:104B0000102305932A4605A9E018FFF7E7F9013EAF
:104B100004EB4603A3F80480B8F1000F16D07B1C09
:104B200014D0384601F0B6FEA8425BD12E49384673
:104B300001F07AFB2C49384601F0B0FBA35D10F47C
:104B4000801F0CBF012210221343A3550DB0BDE8F6
:104B5000F08320230593CEE73023FBE760232A462A
:104B600005A904F110000593FFF7DEF9CFE77023E4
:104B7000F5E75023EEE74023ECE7022301932A46B2
:104B800001A904F11000FFF75FFAC0E70A23F5E777
:104B90001549384601F082FB10F4801000D0FEE782
:104BA00004F11009012301902A4601A94846029305
:104BB000FFF74AFA31462046FFF7BEFE431E014684
:104BC000E25C42F00102E25404EB43030B229A80C0
:104BD00020460223CDE90133FFF77AFE01A9024600
:104BE0004846D0E7FEE700BFCC9E00080139032904
:104BF0009ABF00EB410080880020704701211030EF
:104C0000FFF714B80369186800F00100704710B589
:104C100002460C46FFF7F6FF80B9CB68DB070ED5DE
:104C2000CB6823F00103CB601046FFF7E7FF6FF07E
:104C300001032361E36843F00103E36010BDBDE8B5
:104C400010401046FFF7DABF294A9042034633D09E
:104C5000B0F1804F32D0A2F57C42904230D002F5C4
:104C6000806290422ED002F5806290422CD002F5F4
:104C7000806290422AD002F58062904228D002F5EC
:104C80007042904226D04FF6FF701A4A934223D0CA
:104C9000194A934222D0194A934221D0184A93428A
:104CA00020D0184A93421FD0174A93421ED04FF685
:104CB000FF7398421BD1FEE70020E6E70120E7E7FB
:104CC0000220E8E70320E9E70420EAE70520EBE714
:104CD0000620ECE70720704708207047092070473E
:104CE0000A2070470B2070470C2070470D2070473A
:104CF00000000140004001400044014000480140E4
:104D000000180040001C004000200040014670B523
:104D1000044651F8100FFFF797FF0546084601F0CB
:104D2000EFFB094A002342F8253004F16006E360F6
:104D300004F1B005B54204D0103D2846FFF7BFFD91
:104D4000F8E7204670BD00BFBC0D0020F8B5044652
:104D50000846FFF779FF236903B1FEE71B4DA36403
:104D600004F10C0245F8202004F110060E22C4E9DB
:104D70000C33C4E90E33C4E91033C4E916232161AE
:104D800084F82C3084F84C3084F84D30E4603046A0
:104D900001F0BEFA04F1600504F1B00728461035B1
:104DA000FFF782FDBD42F9D10023C4E900334FF67D
:104DB000FF72C4E90632C4E90833A360636180234B
:104DC000A3623046BDE8F840FFF72CB8BC0D0020C8
:104DD00010B586B014220446002101A804F055F84D
:104DE0000023694601A80093FEF75EFD206901F0EB
:104DF00003FD012802D002280FD0FEE7049CFEF735
:104E000033FDB4F5C05F05D00BD824F48064B4F54D
:104E1000805F00D1400006B010BD059CFEF734FD58
:104E2000EFE7B4F5E05FF4E7012A38B505460C4634
:104E30000BD0022A16D004B1013C29692846CC6265
:104E4000EC61BDE83840FFF7E2BEFFF7C1FF084B59
:104E5000B0FBF3F044432A69230C93620133B4FBA3
:104E6000F3F4E8E7FFF7B4FFB0FBF4F4F3E700BFB7
:104E700040420F00F8B5054614461A46FFF728FDD4
:104E80002B699E6A822A074606F1010629D01FD89F
:104E9000102A11D852BB2969CB6A4FF6FF72934290
:104EA00003D1B4F5803F08BF1C4637BB4C6328468E
:104EB000BDE8F840FFF7ABBE812AECD12846FFF7EA
:104EC00087FF124BB0FBF3F06043B0FBF6F4E2E770
:104ED000832AE0D1DB6A03FB04436424B3FBF4F4CC
:104EE000D9E72846FFF774FF6643EEE7DB6A03FB6A
:104EF000044301249440013CF0E7042F01D18C636A
:104F0000D5E7082F0CBFCC630C64D0E740420F00FC
:104F100010B5074C206810B10430FEF79BFE606AA4
:104F200020B1BDE810400430FEF794BE10BD00BFB4
:104F3000BC0D0020034B186810B10430FEF78ABE88
:104F4000704700BFBC0D0020034B586810B10430FF
:104F5000FEF780BE704700BFBC0D0020034B986871
:104F600010B10430FEF776BE704700BFBC0D0020C4
:104F7000034BD86810B10430FEF76CBE704700BF19
:104F8000BC0D0020034B186910B10430FEF762BE5F
:104F9000704700BFBC0D0020034B586910B10430AE
:104FA000FEF758BE704700BFBC0D0020034B986948
:104FB00010B10430FEF74EBE704700BFBC0D00209C
:104FC00010B5074CE06910B10430FEF743FE206BCA
:104FD00020B1BDE810400430FEF73CBE10BD00BF5C
:104FE000BC0D0020034BD86910B10430FEF732BE6F
:104FF000704700BFBC0D0020034B186A10B104308D
:10500000FEF728BE704700BFBC0D0020034B986A16
:1050100010B10430FEF71EBE704700BFBC0D00206B
:10502000034BD86A10B10430FEF714BE704700BFBE
:10503000BC0D0020034B586B10B10430FEF70ABEC4
:10504000704700BFBC0D00200022C0E90022C0E96B
:1050500002227047F8B504460E4600F1600500F1E3
:10506000B00728461035FFF7EFFFBD42F9D1002306
:10507000204623613146FFF769FE2046F8BD82686D
:1050800010B50AB904F072FCBDE81040C3681847B7
:1050900008B500B9FEE701F039F90068836E13B175
:1050A0006030FFF7ECFF08BDFFF7F2BF10B500B9A5
:1050B000FEE7037F013B072B10D8DFE803F0041461
:1050C0000F100F0F0F12012401F020F900680634B1
:1050D00000EB041083680BB1FFF7D1FF10BD032470
:1050E000F2E70424F0E70224EEE7FFF7DFBFFFF763
:1050F000DDBF82B0002302460193019B013301937F
:10510000019BB3F1706F1AD81369002BF5DA0A23EB
:105110000193019B83B9136943F001031361019B60
:1051200001330193019BB3F1706F08D8106910F03F
:105130000100F4D102B07047019B013BE8E7032076
:10514000F8E784B038B505AD85E80E009DF8193054
:10515000012B044627D1836B23F480338363C36818
:1051600023F4840323F04003C360C36823F4401393
:10517000C3609DF82030012B02BFC36843F4801345
:10518000C360FFF7B6FF9DF81630012B07D1A36867
:1051900043F00603A360A36843F02003A360BDE8C7
:1051A000384004B07047C36843F04003C360FFF762
:1051B000A0FF9DF81D3023B9A36B43F48033A36394
:1051C000E1E7A36B23F48033F9E70000022A4AD118
:1051D000274B284A0B44934239D9274B274A0B4483
:1051E000934236D9264AA1F57403A3F5105393428E
:1051F00031D9244AA1F18373A3F5E74393422CD319
:10520000214B224A0B44934229D9214B214A0B447A
:10521000934226D3204B214A0B44934223D3204A66
:10522000A1F1B773A3F5585393421ED31D4B1E4AE9
:105230000B4493422CBF06230723C26822F470520A
:10524000C260C26842EA8323C360002070470F2314
:10525000F3E70E23F1E70D23EFE70C23EDE70B2334
:10526000EBE70A23E9E70923E7E70823E5E700BFBF
:10527000405327FFFF340C00401E1BFF3F420F002E
:105280007F4F120020D6130060B6E5FE5FE31600E4
:1052900000D3CEFE40771B00C05BB3FEC09121005F
:1052A00020753800E05459FEE09C4100836843F0CB
:1052B0000103836000207047836823F0010383604B
:1052C0000020704738B5C368012923F0C043054664
:1052D0000C46C36014D1C36843F00053C36000247C
:1052E0000A20FDF74DF86B69D90704F10A0402D4CE
:1052F000C82CF5D1C824A4F1C8035842584138BD80
:1053000071B9C36843F08043C3600A20FDF738F8E1
:105310006B69DA0704F10A04EDD5C82CF5D1E9E789
:105320000120ECE782B0002302460193019B013388
:105330000193019BB3F1706F15D81369002BF5DA57
:105340008901002341F0200101931161019B013388
:105350000193019BB3F1706F05D8106910F0200024
:10536000F4D102B070470320FBE782B0002302466D
:105370000193019B01330193019BB3F1706F13D82B
:105380001369002BF5DA0023019310231361019BAD
:1053900001330193019BB3F1706F05D8106910F0D0
:1053A0001000F4D102B070470320FBE7D0F80038BA
:1053B0001943C0F8001800207047000084B02DE9A0
:1053C000F843044609A880E80E0000239DF82460F5
:1053D0009DF82E50194603F1400204EB820201337E
:1053E0000F2B5160F7D104F50067002D6CD17B685D
:1053F00043F002037B60A36B43F40013A363A36B2E
:1054000023F40023A363A36B23F48023A36300236B
:10541000C4F8003E9DF82930012B5FD19DF827107C
:10542000002959D12046FFF7C1FF10212046FFF780
:1054300079FF01462046FFF798FF0843C0B20023DA
:1054400000383B6118BF01207B6104F51062FB61ED
:1054500019464FF0904C4FF0006E4FF67F389E4249
:105460003ED8002204F5306311464FF0904C4FF0C7
:10547000006E4FF67F38964245D83B6923F480731F
:105480003B610023A3616FF0804363619DF8263088
:105490001BB9A36943F01003A361A269234B134313
:1054A000A3619DF82A301BB1A36943F00803A361EF
:1054B000012D01BFA36943F0804343F00403A361BE
:1054C000BDE8F84304B07047A36B23F40013A36353
:1054D000A36B43F4002399E71946A3E70321A1E74F
:1054E000D2F80090B9F1000F0BDA3BB9C2F800E036
:1054F00011610133C2F808802032B0E7C2F800C061
:10550000F6E71160F4E7D3F80090B9F1000F0BDA79
:105510003AB9C3F800E019610132C3F808802033BA
:10552000A9E7C3F800C0F6E71960F4E700383C804B
:10553000D0F8083813F0060004D013F0020F14BF9F
:1055400002200F20704730B50C78012204F00F05BF
:10555000AA404D78012D00F5006300EB441019D1ED
:10556000DD692A43DA61D0F800391A0410D48A6858
:10557000D0F80059C2F30A030A792B4343EA824365
:1055800043EA845343F0805343F40043C0F80039A6
:10559000002030BDDC6944EA0242DA61D0F8003B09
:1055A0001B04F5D48B68D0F8002BC3F30A03134314
:1055B0000A7943EA824343F0805343F40043C0F83E
:1055C000003BE5E710B50A784978012900EB421362
:1055D00000F5006002F00F0222D1D3F80019002973
:1055E0000BDAD3F8001941F00061C3F80019D3F8C1
:1055F000001941F08041C3F80019C46B012101FA80
:1056000002F224EA0204C463C16921EA0202C2610F
:10561000D3F80019144A0A40C3F80029002010BD2D
:10562000D3F8001B00290BDAD3F8001B41F000610E
:10563000C3F8001BD3F8001B41F08041C3F8001BE6
:10564000C46B4FF4803101FA02F224EA0204C4630D
:10565000C16921EA0202C261D3F8001B034A0A4071
:10566000C3F8002BDAE700BF007833EC0078F3EFE3
:1056700082B000234A7801930B78012A4FEA431342
:105680001ED100F51060C118C258002A02DB0020AC
:1056900002B07047C25842F00062C250C25842F095
:1056A0008042C25042F21072019B01330193019B70
:1056B000934201D90120EBE70B68002BF4DBE6E70E
:1056C00000F53060C118C258002AE0DAC25842F032
:1056D0000062C250C25842F08042C25042F2107280
:1056E000019B01330193019B9342E3D80B68002B8C
:1056F000F6DBCCE710B59DF8084044B9033301321E
:105700009B0800EB023001EB8303994201D100209A
:1057100010BD51F8042B0260F7E700002DE9F743B4
:105720004B7891F800E091F804C0724C012B1746B9
:10573000714B0A6900EB4E1540F08D8005F510663F
:1057400042BB326913403361336943F40023336150
:10575000336923403361012F52D1CB6903B17361A7
:10576000BCF1010F0CD1D0F8083813F4807FD5F8C4
:1057700000390CBF43F0005343F08053C5F80039A3
:10578000D5F8003943F00443C5F80039002003B0D0
:10579000BDE8F083D6F8108008EA04043461346967
:1057A000234033618B68BEF1000F0DD193423CBFA3
:1057B0000B611A46336943F4002333613369C2F342
:1057C00012041C433461C6E79C18013CB4FBF3F49B
:1057D0004A4BD6F810801FFA84F903EAC44444EA1D
:1057E0000804BCF1010F3461E8D1336923F0C043F0
:1057F000336134694FEA497303F0C0432343DCE764
:10580000D5F80039BCF1010F43F00443C5F8003965
:105810000B690CD0002BB9D0D0F834280EF00F0E45
:10582000012303FA0EF31343C0F83438AEE7D0F87F
:10583000082812F4807FD5F800290CBF42F00052EE
:1058400042F08052C5F800290097C9689BB27246A1
:10585000FFF750FF9AE7D5F8108B08EA0404C5F863
:10586000104BD5F8104B234005F5306633618B683B
:10587000BEF1000F27D102B10B610B623269C3F395
:10588000120313433361336943F40023012F33615F
:1058900002D1CB6803B17361BCF1010F0CD1D0F818
:1058A000083813F4807FD5F8003B0CBF43F0005359
:1058B00043F08053C5F8003BD5F8003B43F0044368
:1058C000C5F8003B62E7002AD8D09C180B4AD6F8EE
:1058D00010E0013CB4FBF3F4A4B202EAC442634317
:1058E00042EA0E020B6232613269C3F312031343C0
:1058F000CCE700BF0000F8FFFFFF07E00000F81F43
:1059000070B50023940800F5805502F00302A3420D
:1059100004D301EB840132B9084670BD2E6841F80A
:1059200023600133F3E700F5805000230468D800BA
:1059300024FA00F05854013398B28242F7D150183B
:10594000EBE74A780B78012A00EB431012D1D0F82C
:105950000029002A06DB2BB1D0F8003923F0804360
:10596000C0F80039D0F8003943F40013C0F800390A
:1059700000207047D0F8002B002A06DB2BB1D0F8AE
:10598000003B23F08043C0F8003BD0F8003B43F4D9
:105990000013C0F8003BEBE70B784A7800EB4310AC
:1059A0000B79012AA3F10203DBB20FD1D0F8002951
:1059B000012B22F40012C0F8002905D8D0F80039D4
:1059C00043F08053C0F8003900207047D0F8002B16
:1059D00022F40012012BC0F8002B9EBFD0F8003B30
:1059E00043F08053C0F8003BEEE7D0F8003823F4D2
:1059F000FE63C0F80038D0F80038090101F4FE61F8
:105A00001943C0F8001800207047D0F8003E23F07A
:105A10000303C0F8003ED0F8043823F00203C0F8B6
:105A2000043800207047D0F8003E23F00303C0F88C
:105A3000003ED0F8043843F00203C0F804380020D8
:105A400070474269806910407047D0F8183800F5F7
:105A50000060C0691840000C7047D0F8183800F595
:105A60000060C069184080B2704700EB411100F53A
:105A70000060D1F8082B406910407047D0F810281A
:105A8000D0F8343800EB411001F00F01CB4000F5A5
:105A90001060DB018068DBB2134318407047406937
:105AA00000F001007047D0F800396FF30A03C0F826
:105AB0000039D0F8043843F48073C0F8043800206B
:105AC0007047000030B5056C104CA54200F53063FE
:105AD00003D9D0F8004B002C16DB00241C611C6994
