:020000040800F2
:10C0000000000220FD2102084D2202084D220208F4
:10C010004D2202084D2202084D22020800000000B5
:10C020000000000000000000000000004D22020897
:10C030004D220208000000004D22020803EF010813
:10C040004D2202084D2202084D22020829930108C0
:10C050004D2202084D220208A9F10108AFF10108A2
:10C06000B5F10108BBF10108C1F101084D22020838
:10C070004D2202084D2202084D2202084D220208DC
:10C080004D2202084D2202084D2202084D220208CC
:10C090004D2202084D2202084D220208C7F1010874
:10C0A000B9DE0108D1DD0108CDDE0108F5DD0108AA
:10C0B00009DE01081DDE010831DE01085D4F0108BF
:10C0C000694F0108754F0108814F01084D22020890
:10C0D0004D220208A9FF0108C1FF0108DDFF010888
:10C0E000EFF101080D9301087D0C0208E1DE010863
:10C0F00081DE0108F5DE0108A5DE01084D220208F7
:10C100004D2202084D22020845DE01084D22020898
:10C11000F9FF01081100020859DE01086DDE01086F
:10C120004D2202084D2202084D2202084D2202082B
:10C130004D2202084D2202084D2202084D2202081B
:10C140004D2202084D2202084D220208710C0208FD
:10C150004D2202084D2202084D2202082900020841
:10C160008D4F0108994F01084D2202084D22020807
:10C170004D2202084D2202084D2202080000000054
:08C180004D2202084D220208C5
:10C19000EC46A0E8F05F80EC108B4FF00000704799
:10C1A000B0E8F05FE54690EC108B080008BF012076
:10C1B000704700BF10F8012B11F8013B012A28BF7E
:10C1C0009A42F7D0D01A704700000000000000002B
:10C1D00001F0FF01102A2BDB10F0070F08D010F838
:10C1E000013B013A8B422DD010F0070F42B3F6D13C
:10C1F000F0B441EA012141EA014122F007047FF055
:10C2000000070023F0E80256083C85EA010586EAAB
:10C21000010685FA47F5A3FA87F586FA47F6A5FAE7
:10C2200087F68EB9EED1F0BC01F0FF0102F00702F3
:10C2300032B110F8013B013A83EA010313B1F8D19E
:10C240000020704701387047002D06BF354603387F
:10C25000073815F0010F07D1013015F4807F02BFB8
:10C26000013015F4C03F0130F0BC0138704700BF09
:10C27000034613F8012B002AFBD1181A0138704726
:10C2800081F0004102E000BF83F0004330B54FEA87
:10C2900041044FEA430594EA050F08BF90EA020FF4
:10C2A0001FBF54EA000C55EA020C7FEA645C7FEA87
:10C2B000655C00F0E2804FEA5454D4EB5555B8BFAA
:10C2C0006D420CDD2C4480EA020281EA030382EA1B
:10C2D000000083EA010180EA020281EA0303362DAD
:10C2E00088BF30BD11F0004F4FEA01314FF4801C80
:10C2F0004CEA113102D0404261EB410113F0004F92
:10C300004FEA03334CEA133302D0524263EB430348
:10C3100094EA050F00F0A780A4F10104D5F1200EE6
:10C320000DDB02FA0EFC22FA05F2801841F1000141
:10C3300003FA0EF2801843FA05F359410EE0A5F115
:10C3400020050EF1200E012A03FA0EFC28BF4CF046
:10C35000020C43FA05F3C01851EBE37101F00045FC
:10C3600007D54FF0000EDCF1000C7EEB00006EEB09
:10C370000101B1F5801F1BD3B1F5001F0CD3490893
:10C380005FEA30004FEA3C0C04F101044FEA4452EA
:10C3900012F5800F80F09A80BCF1004F08BF5FEA71
:10C3A000500C50F1000041EB045141EA050130BD51
:10C3B0005FEA4C0C404141EB0101013C28BFB1F563
:10C3C000801FE9D291F0000F04BF01460020B1FAAE
:10C3D00081F308BF2033A3F10B03B3F120020CDA81
:10C3E0000C3208DD02F1140CC2F10C0201FA0CF05F
:10C3F00021FA02F10CE002F11402D8BFC2F1200CC4
:10C4000001FA02F120FA0CFCDCBF41EA0C01904079
:10C41000E41AA2BF01EB0451294330BD6FEA0404C2
:10C420001F3C1CDA0C340EDC04F11404C4F12002AD
:10C4300020FA04F001FA02F340EA030021FA04F3BF
:10C4400045EA030130BDC4F10C04C4F1200220FA16
:10C4500002F001FA04F340EA0300294630BD21FA54
:10C4600004F0294630BD94F0000F83F4801306BF1A
:10C4700081F480110134013D4EE77FEA645C18BF0E
:10C480007FEA655C29D094EA050F08BF90EA020FA5
:10C4900005D054EA000C04BF1946104630BD91EA9D
:10C4A000030F1EBF0021002030BD5FEA545C05D1A0
:10C4B0004000494128BF41F0004130BD14F58004DF
:10C4C0003CBF01F5801130BD01F0004545F0FE4153
:10C4D00041F470014FF0000030BD7FEA645C1ABF88
:10C4E000194610467FEA655C1CBF0B46024650EABF
:10C4F000013406BF52EA033591EA030F41F40021EB
:10C5000030BD00BF90F0000F04BF0021704730B570
:10C510004FF4806404F132044FF000054FF0000145
:10C5200050E700BF90F0000F04BF0021704730B506
:10C530004FF4806404F1320410F0004548BF4042DB
:10C540004FF000013EE700BF42004FEAE2014FEA30
:10C5500031014FEA02701FBF12F07F4393F07F4F0B
:10C5600081F06051704732F07F4208BF704793F00E
:10C570007F4F04BF41F40021704730B54FF4607421
:10C5800001F0004521F000411CE700BF50EA010224
:10C5900008BF704730B54FF000050AE050EA0102CD
:10C5A00008BF704730B511F0004502D5404261EB3D
:10C5B00041014FF4806404F132045FEA915C3FF47E
:10C5C000D8AE4FF003025FEADC0C18BF03325FEA1B
:10C5D000DC0C18BF033202EBDC02C2F1200300FACC
:10C5E00003FC20FA02F001FA03FE40EA0E0021FAF1
:10C5F00002F11444BDE600BF70B54FF0FF0C4CF4DF
:10C60000E06C1CEA11541DBF1CEA135594EA0C0F90
:10C6100095EA0C0F00F0DEF82C4481EA030621EACB
:10C620004C5123EA4C5350EA013518BF52EA033506
:10C6300041F4801143F4801338D0A0FB02CE4FF0B8
:10C640000005E1FB02E506F00042E0FB03E54FF0E8
:10C650000006E1FB03569CF0000F18BF4EF0010EE0
:10C66000A4F1FF04B6F5007F64F5407404D25FEADC
:10C670004E0E6D4146EB060642EAC62141EA55518F
:10C680004FEAC52040EA5E504FEACE2EB4F1FD0CD1
:10C6900088BFBCF5E06F1ED8BEF1004F08BF5FEA4F
:10C6A000500E50F1000041EB045170BD06F0004601
:10C6B00046EA010140EA020081EA0301B4EB5C04AE
:10C6C000C2BFD4EB0C0541EA045170BD41F48011A6
:10C6D0004FF0000E013C00F3AB8014F1360FDEBFCB
:10C6E000002001F0004170BDC4F10004203C35DAA7
:10C6F0000C341BDC04F11404C4F1200500FA05F32A
:10C7000020FA04F001FA05F240EA020001F00042CA
:10C7100021F0004110EBD37021FA04F642EB060140
:10C720005EEA430E08BF20EAD37070BDC4F10C046A
:10C73000C4F1200500FA04F320FA05F001FA04F22E
:10C7400040EA020001F0004110EBD37041F100011A
:10C750005EEA430E08BF20EAD37070BDC4F1200525
:10C7600000FA05F24EEA020E20FA04F301FA05F28D
:10C7700043EA020321FA04F001F0004121FA04F235
:10C7800020EA020000EBD3705EEA430E08BF20EA05
:10C79000D37070BD94F0000F0FD101F0004640003F
:10C7A00041EB010111F4801F08BF013CF7D041EAC1
:10C7B000060195F0000F18BF704703F000465200C5
:10C7C00043EB030313F4801F08BF013DF7D043EA96
:10C7D0000603704794EA0C0F0CEA135518BF95EA4C
:10C7E0000C0F0CD050EA410618BF52EA4306D1D1D3
:10C7F00081EA030101F000414FF0000070BD50EAF2
:10C80000410606BF1046194652EA430619D094EA7B
:10C810000C0F02D150EA013613D195EA0C0F05D165
:10C8200052EA03361CBF104619460AD181EA0301B9
:10C8300001F0004141F0FE4141F470014FF0000071
:10C8400070BD41F0FE4141F4780170BD70B54FF00C
:10C85000FF0C4CF4E06C1CEA11541DBF1CEA13558C
:10C8600094EA0C0F95EA0C0F00F0A7F8A4EB05046E
:10C8700081EA030E52EA03354FEA013100F0888065
:10C880004FEA03334FF0805545EA131343EA12632E
:10C890004FEA022245EA111545EA10654FEA0026E3
:10C8A0000EF000419D4208BF964244F1FD0404F59C
:10C8B000407402D25B084FEA3202B61A65EB0305F8
:10C8C0005B084FEA32024FF480104FF4002CB6EBB5
:10C8D000020E75EB030E22BFB61A754640EA0C0035
:10C8E0005B084FEA3202B6EB020E75EB030E22BF75
:10C8F000B61A754640EA5C005B084FEA3202B6EBB6
:10C90000020E75EB030E22BFB61A754640EA9C0074
:10C910005B084FEA3202B6EB020E75EB030E22BF44
:10C92000B61A754640EADC0055EA060E18D04FEA02
:10C93000051545EA16754FEA06164FEAC30343EAA2
:10C9400052734FEAC2025FEA1C1CC0D111F4801F6F
:10C950000BD141EA00014FF000004FF0004CB6E768
:10C9600011F4801F04BF01430020B4F1FD0C88BF07
:10C97000BCF5E06F3FF6AFAEB5EB030C04BFB6EB12
:10C98000020C5FEA500C50F1000041EB045170BD05
:10C990000EF0004E4EEA113114EB5C04C2BFD4EB32
:10C9A0000C0541EA045170BD41F480114FF0000EB6
:10C9B000013C90E645EA060E8DE60CEA135594EA32
:10C9C0000C0F08BF95EA0C0F3FF43BAF94EA0C0F35
:10C9D0000AD150EA01347FF434AF95EA0C0F7FF4AA
:10C9E00025AF104619462CE795EA0C0F06D152EAFE
:10C9F00003353FF4FDAE1046194622E750EA4106E2
:10CA000018BF52EA43067FF4C5AE50EA41047FF4F2
:10CA10000DAF52EA43057FF4EBAE12E74FF0FF3C57
:10CA200006E000BF4FF0010C02E000BF4FF0010C28
:10CA30004DF804CD4FEA410C7FEA6C5C4FEA430CA1
:10CA400018BF7FEA6C5C1BD001B050EA410C0CBFF0
:10CA500052EA430C91EA030F02BF90EA020F002052
:10CA6000704710F1000F91EA030F58BF994208BFB9
:10CA700090422CBFD8176FEAE37040F00100704776
:10CA80004FEA410C7FEA6C5C02D150EA013C07D1CD
:10CA90004FEA430C7FEA6C5CD6D152EA033CD3D018
:10CAA0005DF8040B704700BF8446104662468C4612
:10CAB0001946634600E000BF01B5FFF7B7FF002845
:10CAC00048BF10F1000F01BD4DF808EDFFF7F4FF6E
:10CAD0000CBF012000205DF808FB00BF4DF808EDF9
:10CAE000FFF7EAFF34BF012000205DF808FB00BF1C
:10CAF0004DF808EDFFF7E0FF94BF012000205DF83E
:10CB000008FB00BF4DF808EDFFF7CEFF94BF0120F2
:10CB100000205DF808FB00BF4DF808EDFFF7C4FFEB
:10CB200034BF012000205DF808FB00BF4FEA410C34
:10CB30007FEA6C5C02D150EA013C0AD14FEA430C17
:10CB40007FEA6C5C02D152EA033C02D14FF0000054
:10CB500070474FF0010070474FEA410212F5001292
:10CB600015D211D56FF47873B3EB625212D94FEA34
:10CB7000C12343F0004343EA505311F0004F23FA1E
:10CB800002F018BF404270474FF00000704750EA73
:10CB9000013005D111F0004008BF6FF00040704730
:10CBA0004FF00000704700BF4A0011D212F500128A
:10CBB00011D20DD56FF47873B3EB62520ED44FEAF5
:10CBC000C12343F0004343EA505323FA02F0704775
:10CBD0004FF00000704750EA013002D14FF0FF30B3
:10CBE00070474FF0000070474FEA4102B2F1E04356
:10CBF00024BFB3F5001CDCF1FE5C0DD901F0004C44
:10CC00004FEAC0024CEA5070B2F1004F40EB830093
:10CC100008BF20F00100704711F0804F21D113F1BF
:10CC20003872BCBF01F00040704741F480114FEAF8
:10CC30005252C2F11802C2F1200C10FA0CF320FA81
:10CC400002F018BF40F001004FEAC1234FEAD3239E
:10CC500003FA0CFC40EA0C0023FA02F34FEA430308
:10CC6000CCE77FEA625307D150EA01331EBF4FF091
:10CC7000FE4040F44000704701F0004040F0FE40AC
:10CC800040F40000704700BF53B94AB9002908BFFB
:10CC900000281CBF4FF0FF314FF0FF3000F0E2B82A
:10CCA000ADF1080C6DE904CE18F036FADDF804E0B9
:10CCB000DDE9022304B0704700F1340191E8380047
:10CCC0009C46A6464CF8045D90E8FF0FE54600BD83
:10CCD00090EC210B704700BF80EC210B704700BF28
:10CCE00090EC200B704700BF80EC200B704700BF1A
:10CCF000D0EC200B704700BFC0EC200B704700BF8A
:10CD0000F0EC0201F0EC0211F0EC0221F0EC023147
:10CD1000F0EC0241F0EC0251F0EC0261F0EC027137
:10CD2000F0EC0281F0EC0291F0EC02A1F0EC02B127
:10CD3000F0EC02C1F0EC02D1F0EC02E1F0EC02F117
:10CD4000704700BFE0EC0201E0EC0211E0EC0221D0
:10CD5000E0EC0231E0EC0241E0EC0251E0EC026177
:10CD6000E0EC0271E0EC0281E0EC0291E0EC02A167
:10CD7000E0EC02B1E0EC02C1E0EC02D1E0EC02E157
:10CD8000E0EC02F1704700BFB0FC0181B0FC019102
:10CD9000B0FC01A1B0FC01B1704700BFA0FC018153
:10CDA000A0FC0191A0FC01A1A0FC01B1704700BF53
:10CDB000EC4600B52DE900502DE9FF1F4FF00003B0
:10CDC0002DE90C0001A918F081FCDDF840E012B05B
:10CDD000704700BFEC4600B52DE900502DE9FF1F5C
:10CDE0004FF000032DE90C0001A918F0ADFCDDF8AF
:10CDF00040E012B0704700BFEC4600B52DE900508E
:10CE00002DE9FF1F4FF000032DE90C0001A918F0D8
:10CE1000BDFCDDF840E012B0704700BFEC4600B545
:10CE20002DE900502DE9FF1F4FF000032DE90C0004
:10CE300001AB18F081FCDDF840E012B0704700BF94
:10CE4000EC4600B52DE900502DE9FF1F4FF000031F
:10CE50002DE90C0001AA18F0F5FCDDF840E012B055
:10CE6000704700BF704700BF10B5054C237833B939
:10CE7000044B13B10448AFF300800123237010BDAD
:10CE80006806002000000000C061020808B5034BDE
:10CE90001BB103490348AFF3008008BD0000000048
:10CEA0006C060020C06102087047000008B502F05F
:10CEB0006DFD034BFF221A70BDE8084002F05ABD19
:10CEC000D701002008B5202002F07AFD02F05EFDB7
:10CED000BDE8084002F04EBD08B56F2002F070FDBD
:10CEE000002002F06DFD02F051FDBDE8084002F0A7
:10CEF00041BD000008B502F049FD02F089FD0D2892
:10CF000096BF054B0020185C02F05AFD02F03EFD72
:10CF1000BDE8084002F02EBDC421002038B502F063
:10CF200035FD02F075FD044602F030FD02F070FDA3
:10CF3000054602F02BFD0323B4FBF3F303EB43039D
:10CF4000E31ADBB2054AD554054AD554054A0121F6
:10CF5000D154BDE8384002F00DBD00BFD80E00200E
:10CF6000D40C0020DB0E002010B502F00FFD02F003
:10CF70004FFD0323B0FBF3F303EB4303C01AC4B22A
:10CF8000064B1A5D064B1A5502F000FD054B0022B8
:10CF90001A55BDE8104002F0EDBC00BFD80E0020CD
:10CFA000D40C0020DB0E002010B502F0EFFC02F0E4
:10CFB0002FFD044602F0EAFC0323B4FBF3F303EB7A
:10CFC0004303E41AE4B2034B00221A55BDE81040B3
:10CFD00002F0D0BCDB0E002010B502F0D7FC02F04E
:10CFE00017FD044602F0D2FC0323B4FBF3F303EB7A
:10CFF0004303E41AE4B2034B01221A55BDE8104082
:10D0000002F0B8BCDB0E002008B5094802F0EAFEC9
:10D0100002F0BCFC02F0FCFC064B0146187006480E
:10D0200002F0E0FE02F0B2FCBDE8084002F0A2BC53
:10D03000EC610208281D0020F5610208F8B502F035
:10D04000A5FC04F0C9FA02F0E3FC044602F09EFCE1
:10D0500002F0DEFCC0F347052A460F480F4F214679
:10D0600002F0C0FE2544AC4205DB02F08FFCBDE8B7
:10D07000F84002F07FBC02F089FC02F0C9FC0646D1
:10D0800002F084FC02F0C4FC06EB002627F81460D2
:10D090000134E4B2E7E700BF04620208D80C0020C4
:10D0A00008B5074B0748197802F09CFE02F06EFCA9
:10D0B000012002F085FCBDE8084002F05BBC00BF27
:10D0C000D70100201A62020808B5064802F08AFE5D
:10D0D0000121084602F0CEFB02F058FCBDE80840F2
:10D0E00002F048BC3562020808B5064802F07AFE34
:10D0F0000021012002F0BEFB02F048FCBDE8084020
:10D1000002F038BC4262020808B5064802F06AFE26
:10D110000121052002F0AEFB02F038FCBDE808401A
:10D1200002F028BC5062020808B5064802F05AFE18
:10D130000021052002F09EFB02F028FCBDE808401B
:10D1400002F018BC6862020808B5064802F04AFE00
:10D150000121042002F08EFB02F018FCBDE808401B
:10D1600002F008BC7F62020808B5064802F03AFEE9
:10D170000021042002F07EFB02F008FCBDE808401C
:10D1800002F0F8BB9962020808B5064802F02AFED0
:10D190000021022002F06EFB02F0F8FBBDE808401F
:10D1A00002F0E8BBB362020808B5064802F01AFEB6
:10D1B0000121022002F05EFB02F0E8FBBDE808401E
:10D1C00002F0D8BBC3620208F8B502F0DFFB02F040
:10D1D0001FFC114E054600243746E3B29D420CD891
:10D1E0000024052D7C5510D00E2002F0E9FB02F042
:10D1F000CDFBBDE8F84002F0BDBB02F0C7FB02F07A
:10D2000007FC013406F8010BE7E7034802F052FB84
:10D210000028E9D02046E8E7FA0800202DE9F84385
:10D2200004F0DAF902F0B2FB02F0F2FB1C4FDFF877
:10D230007C9004460026B846F3B29C4216D80023E0
:10D240001749184808F8043014F024FC98F80040F6
:10D250001348154D2A2C08BF013006F0C9FE2B7863
:10D26000A3B12A2C12D002F059FBF8E702F08EFB92
:10D2700002F0CEFB054601460A220A4814F099FC4A
:10D2800019F8053007F8013B0136D5E7002002F018
:10D2900097FB02F07BFBBDE8F84302F06BBB00BFDD
:10D2A000FA080020C84900209C260020087E0208B9
:10D2B00010B502F06BFB02F0ABFB044602F066FB1C
:10D2C00002F0A6FB0146204605F0E0F902F05EFB05
:10D2D000BDE8104002F04EBB2DE9F347564E574CC7
:10D2E000DFF860A1DFF858814FF0000986F8009060
:10D2F00084F8009002F04AFB02F08AFB554607468C
:10D300005FFA89F39F424BD84FF0000905F8079068
:10D3100002F03CFB02F07CFBDFF81CA1DFF820816F
:10D3200007465FFA89F39F4250D84FF0000806F88D
:10D33000078002F02BFB02F06BFBDFF80091404FFF
:10D3400006465FFA88F39E4256D82B783D4A3E49FE
:10D350003E482A2B0CBF3E4D3A4D4FF00003A355DB
:10D3600018BF1F460094344B08BF012714F0AFFBD1
:10D37000324A3149284605F06BFB3649364D0246A4
:10D380000446324814F0A3FB05F0C2FB2B780028BA
:10D3900047D0002F45D1002BF6D005F0B1FBF3E7C5
:10D3A00002F0F4FA02F034FB0346263BDBB218F835
:10D3B00000008AF80000192B03D815F039FC8AF810
:10D3C000000009F101090AF1010A99E702F0DEFA09
:10D3D00002F01EFB0346263BDBB218F800008AF879
:10D3E0000000192B03D815F023FC8AF8000009F17E
:10D3F00001090AF1010A94E702F0C8FA02F008FBF9
:10D400000346263BDBB2385C89F80000192B03D8B1
:10D4100015F00EFC89F8000008F1010809F1010976
:10D420008FE723B9204602F0CBFA02F0AFFA02B040
:10D43000BDE8F04702F09EBAE8060020840600200E
:10D44000087E0208FA080020D4620208C8490020B9
:10D45000FB080020F3620208930800202DE9F04346
:10D4600093B002F093FA02F0D3FA9F4904469F4822
:10D4700014F0F6FA9D480A22214614F09AFB54BB98
:10D480000CA803F02DF89A4998489A4F14F0E8FA3E
:10D4900096480CA914F0FEFA0CAE25460CA8FEF72F
:10D4A000E7FEA8420DD89449904814F0F3FA2046BC
:10D4B00002F086FA02F06AFA02F05CFA13B0BDE8F4
:10D4C000F08316F8013BF85C02F07AFA012015F0BF
:10D4D00073F80135E2E7894EDFF8388200253746D8
:10D4E00002F054FA02F094FA0135EDB218F8003067
:10D4F00006F8013BAC42F3D181497C4800253D55FB
:10D5000014F0AEFA7D49794814F0C4FA0DF13009EF
:10D5100008AB0DF12C080AAF09AE7A49009306AAB0
:10D5200007AB7648CDF81090CDF80C8002970196A5
:10D5300015F0B4FB0A22014604466C4814F016FBB1
:10D5400006986422072C90FBF2F102FB1100069072
:10D550004ED1DDE9071202F0AFFF00286AD0DDE905
:10D560000B23DDE9090102F071FF002862D0664B50
:10D570009DF824101C682A4620460BF0D5F89DF82B
:10D58000281020460BF0B6F89DF82C1020460BF022
:10D5900097F84FF47A739DF828209DF82410009393
:10D5A00020469DF82C3001950BF0DCF89DF82010FA
:10D5B00020460BF023F99DF81C1020460BF034F99F
:10D5C0009DF8181020460BF045F99DF818309DF88D
:10D5D0001C209DF8201020460BF050F94B49434881
:10D5E00014F03EFA4549414814F054FA00245AE731
:10D5F000032C1FD1DDE9071202F05EFFD0B1424BD0
:10D600009DF820101C6820460BF0F8F89DF81C10BF
:10D6100020460BF009F99DF8181020460BF01AF976
:10D620009DF818309DF81C209DF8201020460BF026
:10D6300025F9DBE7CDE90089354930483B463246DC
:10D6400015F02CFB042808D10C9B0998DDE90A127F
:10D6500002F0FCFE30BB032425E7032801D10023A0
:10D66000F3E70228F7D10023DDE909011A4602F0A9
:10D67000EDFE0028EFD0244B9DF824101C680022FA
:10D6800020460BF051F89DF8281020460BF032F898
:10D69000002120460BF014F84FF47A720023CDE9F4
:10D6A000002318E0184B9DF824101C680022204627
:10D6B0000BF03AF89DF8281020460BF01BF89DF867
:10D6C0002C1020460AF0FCFF4FF47A730022CDE9BB
:10D6D00000329DF82C309DF828209DF8241020461B
:10D6E0000BF040F882E700BF04630208C84900203D
:10D6F00009630208087F02085A630208FA0800203A
:10D70000156302081E630208E00E00204163020850
:10D710002D630208087E020870B52DED028B82B0E1
:10D7200004F0D0FABDEEC08A194EF8EEC87A6C4605
:10D7300070EE677A002517EE900AFEF705FF154B8D
:10D740000022FEF759FFFFF707FA18EE102A0346EA
:10D750001149684615F080FA29460A220F4814F04C
:10D7600005FA14F8013B0135F05C02F029F9052DAA
:10D77000F2D10B49094814F08DF9002002F020F98C
:10D7800002F004F902F0F6F802B0BDEC028B70BDB5
:10D79000087F020800408F405E630208C8490020ED
:10D7A0005A63020870B503F017FF002002F048FA30
:10D7B00002F0ECF8114C124E14F8015B7DB902F046
:10D7C00027F90D280FD16F2002F0FAF8284602F051
:10D7D000F7F802F0DBF8BDE8704002F0CBB802F0D9
:10D7E00017F90D2802D0074B187070BD14F8013CD2
:10D7F000F05C02F0E5F802F0C9F8DDE76A0100200C
:10D80000087F0208D701002038B502F0BFF802F007
:10D81000FFF8044602F0BAF802F0FAF8054602F002
:10D82000B5F8230605D4064B1D55BDE8384002F077
:10D83000A1B82946A4F1800006F010FFF5E700BF6B
:10D840007209002008B502F0A1F802F0E1F8030621
:10D8500009D4074B185C02F0B3F802F097F8BDE862
:10D86000084002F087B8803806F0C4FEF3E700BF36
:10D870007209002010B40C4611461A4618B15DF822
:10D88000044B09F07BBB24B120465DF8044B08F043
:10D8900097BA5DF8044B704730B1017801F0D001C0
:10D8A000081E18BF0120704721B191F8311001F016
:10D8B0005001F5E70846704710B400240C70034689
:10D8C000806B18B15DF8044B0AF05AB8D86B18B1E8
:10D8D0005DF8044B08F0AABB5DF8044B704710B12B
:10D8E000C0690021704711B1D1E9040170470846B1
:10D8F000F7E700B58FB068B100230093014601231C
:10D90000684609F065F910B1684609F03DFF0FB0AF
:10D910005DF804FB29B10C900123684607F006FF6F
:10D9200008B90020F3E7684607F0CDFF0028F8D0DB
:10D93000EDE710B58EB038B100230146684600937C
:10D9400009F046F90EB010BD29B10C9003466846A7
:10D9500007F0ECFEF6E70846F4E700002DE9F04199
:10D96000A8B003F039FE002002F06AF902F00EF8C8
:10D9700002F04EF85F4EDFF89481044600253746EA
:10D98000EBB29C4272D800253D5501F0FFFF02F03A
:10D990003FF8DFF8788104460FAEEBB29C426FD8B7
:10D9A00004F1A0030DEB0304002304F8643C524B84
:10D9B0001B78002B40F098803B782F2B6AD04F4982
:10D9C0004F4803F0ABFE4D494D4815F0DBFA49498D
:10D9D0004B4815F045FA4A49464803F09FFE9DF82A
:10D9E0003C302F2B5BD04549454803F097FE434917
:10D9F000434815F0C7FA42480FA915F031FA414CD7
:10DA00003F490FA803F08AFE3A4AD4F88414D4F8A8
:10DA10008004FFF78EFF002868D0D4F88414D4F86F
:10DA200080040FAAFFF785FF0346002860D1D4F8D1
:10DA30008024002A38D002F2444400902D4A214626
:10DA4000684609F07DF8002841D00FAA21466846B3
:10DA500009F0D3F900283AD0002001F0B1FF01F01D
:10DA600095FF01F087FF28B0BDE8F08101F08EFF3F
:10DA700001F0CEFF18F8003006F8013B01357FE7D2
:10DA800001F084FF01F0C4FF18F8003006F8013BF4
:10DA9000013582E717491A4815F074FA9BE70FA978
:10DAA000174815F06FFAAAE7D4F884447CB104F55E
:10DAB00089640C92134621460E4A684607F0D6FD4B
:10DAC00028B10FAA2146684608F0CDF8C2E7094AF6
:10DAD0000D490B480FAB15F0BFF80B4805490FAACD
:10DAE00002F080F90320B8E70D20B6E70120B4E783
:10DAF0000420B2E7FA080020680900206A0100202B
:10DB000096080020E017002064630208087E0208DF
:10DB10002DE9F04100209AB002F092F801F036FFB2
:10DB200003F05AFD01F074FF204EDFF890800446A8
:10DB300000253746EBB29C4229D800233B551C4BAD
:10DB40001B7873BB1B491C4C01A803F0E7FD174968
:10DB500001A815F085F9D4F88414D4F8800401AA3A
:10DB6000FFF7E7FEF8B1D4F88414D4F8800401AAD2
:10DB7000FFF7BFFE00280CBF0320002001F020FFAC
:10DB800001F004FF01F0F6FE1AB0BDE8F08101F0EB
:10DB9000FDFE01F03DFF18F8003006F8013B0135AD
:10DBA000C8E70D20EAE70120E8E700BFFA080020F7
:10DBB000680900206A010020E0170020087E0208A2
:10DBC0002DE9F0410020A8B002F03AF803F004FD7E
:10DBD00001F0DCFE01F01CFF334EDFF8E480044668
:10DBE00000253746EBB29C4238D800233B552F4BDB
:10DBF0001B78002B54D13B782F2B39D02C492D4842
:10DC000003F08CFD2A492B4815F0BCF92649294818
:10DC100015F026F9284C27490FA803F07FFDD4F80A
:10DC20008414D4F880040FAAFFF783FE002839D1AA
:10DC3000D4F8801439B3009001230FAA01F24441B3
:10DC4000684609F08FF8C0B1002001F0B9FE01F07C
:10DC50009DFE01F08FFE28B0BDE8F08101F096FE38
:10DC600001F0D6FE18F8003006F8013B0135B9E79F
:10DC70000D49104815F086F9CCE710480FA902F0BD
:10DC8000B1F80320E1E7D4F884040028F5D00C9122
:10DC9000012300F589610FAA684607F08CFFD2E7DF
:10DCA0000D20D2E70420D0E7FA0800206809002000
:10DCB0006A01002096080020E01700208163020816
:10DCC000087E02082DE9F04103F086FC01F05EFEBB
:10DCD00001F09EFE244EDFF8A8800446002537465A
:10DCE000EBB29C4230D800233B553B782F2B35D0EC
:10DCF0001E491F4803F012FD1C491D4815F042F94A
:10DD000019491B4815F0ACF81A4B194AD3F884147A
:10DD1000D3F88004FFF70DFE18B91749144815F021
:10DD20009FF8134804F026F8044620B901F088FF54
:10DD3000124B01221A70204601F042FE01F026FE2D
:10DD4000BDE8F04101F016BE01F020FE01F060FEDA
:10DD500018F8003006F8013B0135C1E702490448D4
:10DD600015F010F9D0E700BFFA0800206A01002082
:10DD700096080020E01700209A630208291D002061
:10DD8000087E020870470346D0F8800408B109F005
:10DD9000B6BED3F8840408B108F0FDBA4FF0FF30E6
:10DDA0007047000070B5274C274D9AB003F014FC63
:10DDB000002001F045FF23682BB9D5F888040AF04C
:10DDC00090FA400820602048FFF7DDFFD5F8803446
:10DDD000F3B11A791D491E4E02FB00F35B0822685D
:10DDE00001A814F039FF01F0D1FD01AC14F8015B7A
:10DDF000BDB901F00DFE0D2817D16F2001F0E0FD37
:10DE0000284601F0DDFD01F0C1FD01F0B3FD0EE09B
:10DE1000D5F88424002ADDD092F8453401229A40B6
:10DE2000D8E701F0F5FD0D2803D00A4B18701AB0A1
:10DE300070BD14F8013CF05C01F0C2FD01F0A6FDDC
:10DE4000D4E700BF64090020E01700209F630208A8
:10DE5000087F0208D701002038B52D4C03F0BCFB29
:10DE6000002001F0EDFED4F888040AF03AFAFEF73B
:10DE700049FB25A3D3E90023FEF7BEFBFEF794FE82
:10DE800005462046FFF77FFFD4F8803483B31B7923
:10DE90005843FEF737FB1CA3D3E90023FEF7ACFB86
:10DEA000FEF782FE0446E8B201F08AFDC5F30720C2
:10DEB00001F086FDC5F3074001F082FD280E01F058
:10DEC0007FFDE0B201F07CFDC4F3072001F078FD96
:10DED000C4F3074001F074FD200E01F071FD002035
:10DEE00001F06EFD01F052FDBDE8384001F042BD89
:10DEF000D4F88434002BCBD093F8452401239340ED
:10DF0000C6E700BFAFF300808DEDB5A0F7C6403F78
:10DF1000E0170020836B23B9C06B003818BF0120C5
:10DF2000704701207047000008B50B4801F05AFF08
:10DF30000A48FFF7EFFF30B1094B00221A7004F0D6
:10DF4000EDFC03F05DFF012001F07AFE01F01EFD03
:10DF5000BDE8084001F00EBDBB630208E81C0020CC
:10DF6000291D002008B50A4801F03CFF0948FFF7C9
:10DF7000D1FF20B1084B00221A7004F0CFFC01F051
:10DF800005FD012001F05CFEBDE8084001F0F2BC97
:10DF9000C4630208E81C0020291D002008B50948B8
:10DFA00001F020FF0848FFF7B5FF28B1002001F07D
:10DFB00047FE064B01221A7001F0E8FCBDE808405C
:10DFC00001F0D8BCCE630208E81C0020291D002007
:10DFD0001346074A10B40C46116821B122465DF879
:10DFE000044B09F061BE08465DF8044B704700BF62
:10DFF0000C4800202DE9F043554D564FDFF87C9139
:10E000009BB000242C7003F0E7FA204601F018FEC4
:10E0100001F0BCFC01F0FCFCB8460646E3B29E42AF
:10E020004BD8002308F8063098F800302F2B4ED03C
:10E0300049494A4803F072FB4749484814F0A2FF97
:10E040004449464814F00CFF444901A803F066FB1C
:10E050004348FFF75FFF10B1414809F014FE0A245E
:10E060003F48002201A9FFF7B3FF40B93D4801A98D
:10E0700001F0B8FE0A2014F09FFA013CF0D13848B4
:10E08000FFF748FF40BB384801A901F0ABFE324919
:10E0900001A814F077FF01243148FFF73BFF10B1CE
:10E0A0002F4809F0F0FD204601F08AFC01F06EFCDB
:10E0B00001F060FC1BB0BDE8F08301F067FC01F0EB
:10E0C000A7FC19F8003007F8013B0134A6E7214905
:10E0D000224814F057FFB7E7244BD3E91201FFF7AA
:10E0E000DBFB044670BB01A8FEF7C2F800F1670332
:10E0F0006B4401A813F8642C2F2A08BF03F8644C62
:10E1000003F062FB044601F063FE19492046FEF766
:10E1100051F888B901A8FEF7ABF800F168030DEBE0
:10E1200003002F2300F8643C01232B700A4801A947
:10E1300014F028FF0024AFE70E4801A901F052FEB9
:10E140000224A9E70C49054801AA14F085FDEDE772
:10E1500068090020FA0800206A01002096080020C3
:10E160004C080020DB630208ED6302083C08002035
:10E17000076402080B6402081E640208087E020895
:10E180002DE9F041A8B003F027FA002001F058FD76
:10E1900001F0FCFB01F03CFC414EDFF82481044619
:10E1A00000253746EBB29C4250D800233B553D4BEF
:10E1B0001B78002B6FD13B782F2B51D03A493B482D
:10E1C00003F0ACFA3849394814F0DCFE34493748DA
:10E1D00014F046FE364C35490FA803F09FFAD4F8E8
:10E1E0008414D4F880040FAAFFF7A3FB002854D0AE
:10E1F000D4F88014002938D000230FAA6846009371
:10E2000008F0E6FC00283FD0684608F028FC00280B
:10E210003AD00024274800220FA9FFF7D9FE58B1B1
:10E22000254BD3E91201FFF737FB002803F110005B
:10E2300008BF022409F027FD204601F0C1FB01F0D0
:10E24000A5FB01F097FB28B0BDE8F08101F09EFB33
:10E2500001F0DEFB18F8003006F8013B0135A1E7BC
:10E260000F49124814F08EFEB4E7D4F8840458B174
:10E270000C910B460FAA0146684607F057FA18B1F1
:10E28000684607F066FBC2E70C4908480FAA14F07D
:10E29000E3FC0324BEE70D24CEE70124CCE700BF56
:10E2A000FA080020680900206A0100209608002072
:10E2B000E0170020FC070020EC0700203264020871
:10E2C000087E02082DE9F041CCB003F085F901F099
:10E2D0005DFB01F09DFB654EDFF8C0810446002523
:10E2E0003746EBB29C424AD801AD60490026284629
:10E2F0003E5503F013FA5E4832462946FFF768FEA2
:10E30000044628B15B4BD3E91201FFF7C5FA044676
:10E310005748FFF7FFFD10B1554809F0B4FC002C39
:10E3200037D02946544814F02DFE544933A814F030
:10E3300029FE002001F084FC9DF8CC301BB94F4928
:10E3400033A814F01FFE4C4949480022FFF740FE55
:10E35000002846D14A4801F045FD01244448FFF712
:10E36000D9FD10B1424809F08EFC204601F028FB8F
:10E3700001F00CFB01F0FEFA4CB0BDE8F08101F0B9
:10E3800005FB01F045FB18F8003006F8013B0135AC
:10E39000A7E7364B3B4A3C49284614F05DFC28462B
:10E3A000FDF766FF441E631C01D1002403E02B5DD2
:10E3B0002F2B14D10134061B3246291933A814F02F
:10E3C000E9FD06F598730DEB0306002306F8643C9F
:10E3D00004B12B552946284803F0A0F9A9E7013CD0
:10E3E000E1E72846244A2949294E33AB14F034FC8E
:10E3F00000251F492748002209F0ECFC04460028AC
:10E40000ACD014F0D7F800F03F00202894BF0020D3
:10E41000012001F015FC1F481AA96422FFF74CFAED
:10E42000D6E91201FFF738FA28B1FF2D0ED91948A5
:10E4300009F029FCDDE733A91AA803F0BBFF002887
:10E44000F3D19DF8CC30002BEFD0F0E7B36C3BB1AB
:10E450009B88114A126822F815300135ADB2E6E703
:10E46000F36C002BF5D09B6A5B09F2E7FA080020F9
:10E470004C0800203C080020F809002046640208EF
:10E480004D6402086A010020486402085D640208C5
:10E49000EC070020FC070020F4090020087E020899
:10E4A000F0B59BB001F072FA01F0B2FA044601F047
:10E4B0006DFA01F0ADFA3C4D04EB0024A4B22C80BF
:10E4C000BCB93A493A4F01A814F05CFD01A8FDF728
:10E4D000CFFE0646C0B201F073FA01ADA64201DCE0
:10E4E00000240FE015F8013BF85C01F069FA0134F3
:10E4F000F4E7304930480022FFF76AFD90B98DF803
:10E50000040001242C48FFF705FD10B12A4809F04A
:10E51000BAFB204601F054FA01F038FA01F02AFA69
:10E520001BB0F0BD2A88254B2548196802F100422E
:10E53000013A002331F812201F4909F0ECFB50B3D7
:10E540001F4801A96422FFF7B7F91E4BD3E9120156
:10E55000FFF7A2F940B101A91B4814F013FD1A4AB4
:10E560001A4901A814F078FB01A8FDF781FE0446C2
:10E57000C0B201F025FA0E4F01AE0025AC4203DC1B
:10E580000F4809F080FBABE716F8013BF85C01F09F
:10E5900017FA0135F2E701F013FA0748642201A9DE
:10E5A000FFF78AF99CE700BF700900206A0100208C
:10E5B000087F0208F80900204C080020F409002018
:10E5C000FC070020EC070020960800207064020879
:10E5D00030B59BB001F0DAF901F01AFA044601F007
:10E5E000D5F901F015FA204D204904EB0024002252
:10E5F0001F482C80FFF7ECFCB0B98DF804000446EE
:10E6000001251B48FFF786FC10B1194809F03BFBB8
:10E61000204601F0D5F9284601F0D2F901F0B6F90B
:10E6200001F0A8F91BB030BD1148FFF773FC0022C0
:10E63000044601A8CDE90F222D8809F09FFB28B1DF
:10E640000C482B46224601A909F065FB642201A96A
:10E650000848FFF731F901A8FDF70AFEC4B20548E2
:10E6600009F011FB0025CCE770090020F809002013
:10E670004C080020FC0700200346806B08B107F01F
:10E68000EDBFD86B08B106F009BD4FF0FF30704701
:10E690002DE9F04100209CB001F0D2FA02F09CFF7D
:10E6A00001F074F9674B684AD3F88414D3F88004F6
:10E6B000664EDFF89C81FFF71CF901F0A9F90025EF
:10E6C00004463746EBB29C4265D800253D5504F020
:10E6D0007FFF01F05BF901F09BF95D4F044603AE4B
:10E6E000EBB29C4261D804F170030DEB03040023EC
:10E6F00004F8643C574B1B78002B40F0A0809DF839
:10E700000C302F2B5AD05449544803F007F8524983
:10E71000524814F037FC4D49504814F0A1FB4F49C2
:10E720004A4802F0FBFF9DF80C302F2B4BD04A4992
:10E730004A4802F0F3FF4849484814F023FC474890
:10E7400003A914F08DFB4549454D03A802F0E6FFEF
:10E750003E4944480022FFF73BFC0346D5E912013D
:10E76000FFF7BDF8404902468A4231D937493F4850
:10E7700001F038FB05243B4809F085FA3C4809F0D4
:10E7800082FA204601F01CF901F000F901F0F2F8DC
:10E790001CB0BDE8F08101F0F9F801F039F918F882
:10E7A000003006F8013B01358CE701F0EFF801F08D
:10E7B0002FF93B5C06F8013B013591E723492748D7
:10E7C00014F0E0FBABE703A9244814F0DBFBBAE745
:10E7D0002BB91E49274801F005FB0124CBE724484B
:10E7E00040F2016203A9FFF7F3FB28B9224803A90D
:10E7F00001F0F8FA0624BEE705F110031F4E01935D
:10E80000002413F0D7FE00F03F00202894BF002022
:10E81000012001F015FA1A4901984FF40072FFF730
:10E820002BFF174A05460346D6E91201FFF722F8E7
:10E830000028B8BF0724B5F5007FE2D09BE70D2480
:10E840009FE700BFE017002075640208FA08002067
:10E85000087E0208680900206A010020960800204E
:10E86000EC070020FC07002080841E007E64020864
:10E87000AC07002097640208A76402089C070020E8
:10E880005C0A002030B40446806B114618B13BB9D5
:10E8900030BC07F0CDBFE06B10B130BC06F0CEBC91
:10E8A000002030BC704700002DE9F34113F082FED8
:10E8B000002001F0C5F902F08FFE01F067F801F0C9
:10E8C0006DF8B34EB34DDFF82C83307000243378ED
:10E8D000E7B2BB424DD8B04C0022EA54D4F88414BD
:10E8E000AE4AD4F88004FFF724F830B1AB4AD4F82C
:10E8F0008414D4F88004FEF7FCFF04F069FE33783A
:10E90000A74E002B43D1A34A3378A649104614F0F2
:10E91000A3F933780133DBB23370A34B1B78002BA0
:10E9200000F0A4809B480DF1020201A903F042F817
:10E93000BDF802306BBB974A9C499D4814F08CF996
:10E9400094480DF1020201A903F034F8BDF8024029
:10E95000FCB9984801F046FA204601F031F820460B
:10E9600001F02EF801269448314601F03BFA30467A
:10E9700008E101F00BF801F011F800F07F0001341C
:10E9800018F80030EB55012013F016FE9FE7002326
:10E99000C2E70A2489498A480022FFF719FB0028A8
:10E9A00036D08748FFF7B6FA0546002855D103460A
:10E9B000019A8348834FFFF765FF834801F012FAFD
:10E9C0009DF8020000F0FCFFBDF80200000A00F014
:10E9D000F7FF13F0EFFD00F03F00202894BF002068
:10E9E000012001F02DF976484FF400723946FFF707
:10E9F00043FE2C460646631B9BB2B34212D3BDF8BE
:10EA00000230A34216D9B6F5007F13D12546E0E7C0
:10EA10006A496E4801F0E6F90A2013F0CDFD013C89
:10EA2000B8D1BEE7F85C00F0CBFFBDF8023001348E
:10EA3000A342E0D8BDF80230A34215D9624801F0E4
:10EA4000D1F9BDF80230A34209D80826604801F088
:10EA5000C9F95B4809F017F985E70024EAE70020C7
:10EA600000F0AEFF0134ECE70026EFE72B782F2B08
:10EA700054D052494E4802F051FE50494C4814F0CF
:10EA800081FA44494A4814F0EBF9494AD4F884140D
:10EA9000D4F88004FEF74DFF58B945494D4801F0C0
:10EAA000A1F94D49424814F0DBF941494B4801F0C6
:10EAB00099F90A243E4942480022FFF789FA90B3A7
:10EAC0003F48474FFFF726FA0546D7E91201FEF700
:10EAD00006FF00220446002307F11000FFF7D2FED4
:10EAE0005DBB344801F07EF9002000F069FF002092
:10EAF00000F066FFB4F5803F2CBF052601260025F7
:10EB0000002CA6D03748294601F06CF900200135C9
:10EB100000F056FFA542F9D108269AE71D4924487E
:10EB200014F030FAB1E72249284801F05BF90A20D5
:10EB300013F042FD013CBDD1C2E7002CD1D01C48EE
:10EB400002F042FE064601F043F91949264801F059
:10EB500049F926493046FDF72DFB054600284BD1E3
:10EB600007F1100009F08FF81149214801F03AF936
:10EB70000F4803F02FFA284600F022FF284600F045
:10EB80001FFF284600F01CFF00F000FFDEE000BF82
:10EB90005E090020FA080020E017002075640208D2
:10EBA00095080020B964020868090020C0640208C2
:10EBB00096080020C5640208666502086A01002004
:10EBC000FC0700205C0A0020DA640208DB6302080C
:10EBD000E7640208ED6402087B6402080765020826
:10EBE000EC070020606502081A6502082A65020821
:10EBF0002E650208087E02086049DFF880814FF424
:10EC0000007207F11000FFF737FD5D493046FDF750
:10EC1000D1FA10B13378002B37D198F80C3098F82E
:10EC20000B4004EB0324A4F58044093C002200239C
:10EC30005448FFF727FE2146534801F0D3F8E0B2CD
:10EC400000F0BEFEC4F3072000F0BAFE002713F068
:10EC5000B1FC00F03F00202894BF0020012000F00C
:10EC6000EFFF464947484FF40072FFF705FD3D4668
:10EC70000646EB1B9BB2B34276D3A5427CD2B6F5D7
:10EC8000007F7FF43FAF2F46E1E740493046FDF774
:10EC900091FA0028C1D03E493046FDF78BFA05466F
:10ECA000B8B9424612F8011B4F292B4605F1010560
:10ECB000F8D9434437485A7B1C7B04EB0224A4F563
:10ECC0008044093C2246294601F08CF82A46EB177D
:10ECD000AEE731493046FDF76DFA054600283ED1D2
:10ECE0000146022013F0F2FB2946032013F0EEFB4D
:10ECF000012013F061FC07F1100008F0C4FF01F0DF
:10ED0000DFF82649264801F06DF8264802F06AFD32
:10ED1000431C20D1244800F0EFFF01F001F901204D
:10ED200000F0A2FE012000F0ABFE01241F4B2046A4
:10ED30001C7013F041FC2146032013F0C7FB0A208E
:10ED400013F03AFC2146022013F0C0FB02B0BDE8EC
:10ED5000F04100F00FBE0230DFD1FF20DBE70022E0
:10ED6000002307F1100064E718F80300013500F0F4
:10ED700027FEAC423FF67DAF00266AE65C0A002023
:10ED80007C640208FC070020566502083A65020808
:10ED9000396502083D650208066B0208FA08002082
:10EDA0004A6502089608002000A5FF00930800208D
:10EDB0002DE9F047E8B002F00FFC00F0E7FD00F0AD
:10EDC00027FEAE4EDFF8F482054600F0DFFD00249A
:10EDD0003746E3B29D4200F2978000237B55A84B53
:10EDE0001B7804AC002B00F0CC80002D40F0968006
:10EDF000A449A54F4FA814F0C5F8A44936A814F0AB
:10EE0000C1F8A3494FAB36AA204613F025FF25468B
:10EE100015F8016B002E40F083800A259D480022E2
:10EE200036A9FFF7D5F840B99B4836A900F0DAFFBC
:10EE30000A2013F0C1FB013DF0D19748DFF848826A
:10EE400036A900F0CFFF934804220023FFF71AFDF4
:10EE5000002713F0AFFB00F03F00202894BF0020F4
:10EE6000012000F0EDFE8B4820221DA9FFF704FCD5
:10EE700020282AD1874810226946FFF7FDFB102879
:10EE800023D1684613F042FD4FA905461DA803F0A3
:10EE900091FA60B181492B461DAA204613F0DCFE91
:10EEA000A14619F8013B002B4DD10137BFB27C4B75
:10EEB0009A6C002A5ED052690023AA1843F100031D
:10EEC0007448FFF7DFFC0028C3D1724808F0DBFE6E
:10EED00000252A4673496C4D3B46204613F0BCFE84
:10EEE00014F8013B002B40F06A8100F091FD0D28E1
:10EEF0001AD16F2000F064FD304600F061FD00F093
:10EF000045FD00F037FD27E000F082FD18F80030E5
:10EF100006F8013B00F03AFD01345AE7574968E72B
:10EF200000F076FD0D2802D05F4B187014E015F844
:10EF3000010C13F087FE385C00F07DFE00F07CFDD4
:10EF400000F024FD64E700F063FD0D2807D0564B68
:10EF50001870504808F097FE68B0BDE8F08719F8BF
:10EF6000010C13F06FFE18F8000000F065FD00F0D2
:10EF70000DFD96E7DB6C13B1D3E900239DE71A463C
:10EF80009BE73E49204602F0C9FB0A25474800227C
:10EF90002146FFF71DF840B93F48214600F022FF07
:10EFA0000A2013F009FB013DF0D14048FEF7B2FF03
:10EFB000054628B13E4BD3E91201FEF76DFC05462C
:10EFC0003A4808F060FE85B3214636A813F0DAFF10
:10EFD0002C494FA813F0D6FF002000F031FE9DF819
:10EFE0003C311BB927494FA813F0CCFF0A252F4805
:10EFF000002236A9FEF7ECFF40B9274836A900F0F9
:10F00000F1FE0A2013F0D8FA013DF0D12748FEF7AF
:10F0100081FF0546002853D1264800F0E3FE2F4625
:10F020000126224808F02FFE53E7144B174A2249C5
:10F03000204613F011FE2046FDF71AF9451E6B1C01
:10F0400001D1002503E0635D2F2B14D10135461B50
:10F05000324661194FA813F09DFF06F5D0730DEBF2
:10F060000306002306F8643C05B16355214636A823
:10F0700002F054FBB0E7013DE1E700BFFA080020D1
:10F080006809002046640208087F02086A0100201F
:10F090005D640208FC070020DB630208716502085A
:10F0A000EC07002081650208D70100204C080020F1
:10F0B0003C0800204D64020848640208087E0208EB
:10F0C0004749484F4FAB36AA204613F0C5FD2546A9
:10F0D00015F8016B96BBDFF8248135463746424967
:10F0E0004248002208F076FE00289AD013F062FA17
:10F0F00000F03F00202894BF0020012000F0A0FD78
:10F100003A481DA96422FEF7D7FBD8E91201FEF7A1
:10F11000C3FB20B3D8E9123211461846FEF7BCFBF8
:10F1200058BB11461846FEF7DAFB01370346304953
:10F130001DAA2046BFB213F08FFD29E000F068FC45
:10F140000D287FF4F1AE15F8010C13F07BFD385C4F
:10F1500000F071FD00F070FC00F018FCB8E74FA95A
:10F160001DA803F027F90028D4D19DF83C31002BCD
:10F17000D0D01E4808F087FDB1E71E491DA813F046
:10F180006FFE01351C491DAA2046ADB213F064FD87
:10F19000DFF85090A2461AF8013B002BE9D000F0AE
:10F1A00037FC0D287FF4C0AE1AF8010C13F04AFDAD
:10F1B00019F8000000F040FC00F0E8FBEBE700F07D
:10F1C00027FC0D287FF4B0AE14F8010C13F03AFDC3
:10F1D000285C00F030FD00F02FFC00F0D7FB7FE64C
:10F1E0005D640208087F02084C080020FC0700202C
:10F1F00071650208E56502087D650208EC070020DC
:10F200002DE9F84313F0D6F9002000F019FD02F0C3
:10F21000E3F900F0BBFB00F0C1FBDFF81881DFF879
:10F220004091044600274646FBB29C425ED800232C
:10F2300033553F4F44B93F4A3B783F49104613F09E
:10F240000BFD3B780133DBB23B7000F09FFB00F01D
:10F25000A5FB33782F2B074652D03849384802F0A7
:10F260005DFA3649364813F08DFE3249344813F0C2
:10F27000F7FD344B324AD3F88414D3F88004FEF7F8
:10F2800058FB18B930492E4813F0EAFD2C492F4895
:10F290002F4E0022FEF79CFE8046D6E91201FEF7B3
:10F2A0001EFB00220446002306F11000FFF7EAFAD5
:10F2B000B8F1000F03D0631EB3F5007F25D32548B6
:10F2C00000F090FDB4F5007F8CBF05260126A54215
:10F2D00038BF08261D4808F0D6FC304600F070FB09
:10F2E00000F054FBBDE8F84300F044BB00F04EFBD7
:10F2F00000F054FB19F8003008F8013B013793E7A0
:10F300000C490F4813F03EFEB3E70D4802F05CFADB
:10F3100000F05EFD104800F065FD104906F1100098
:10F32000224601EB4701FFF7A7F900260546CEE785
:10F3300095080020FA080020B96402086A0100203C
:10F3400096080020E01700209F650208FC070020B7
:10F35000EC070020C5640208DA640208D80C00201B
:10F36000087E02082DE9F047002000F069FC02F059
:10F3700033F900F00BFB00F011FB4B4EDFF8488136
:10F38000044600253746EBB29C426FD800233B551C
:10F39000464B1B78002B40F085803B782F2B6FD09D
:10F3A0004349444802F0BAF94149424813F0EAFDA2
:10F3B0003D49404813F054FD40F201623D493E484A
:10F3C000FEF706FE054600F0E1FA00F0E7FA044613
:10F3D00000F0DCFA00F0E2FA002204EB0024002343
:10F3E0003548A4B2FFF74EFA0DB1002C4DD1334889
:10F3F00000F0F8FC01263248DFF8D09000F0F2FC73
:10F400002546B5F5007F2F4628BF4FF4007713F04F
:10F41000D1F800F03F00202894BF0020012000F028
:10F420000FFCDFF8A0A0BFB24FF000081FFA88F36E
:10F430009F422ED846B9D9E91201224A3B46FEF72F
:10F4400019FA874288BF0726A5F50073C5F5007530
:10F45000E5421CD2184808F016FC304600F0B0FA1D
:10F4600000F094FABDE8F04700F084BA00F08EFA9C
:10F4700000F094FA18F8003006F8013B013582E7F5
:10F4800009490C4813F07EFD96E70026B3E71D46B8
:10F49000B7E700F07BFA00F081FA08F101080AF8FA
:10F4A000010BC3E70D26D8E7FA0800206809002001
:10F4B0006A01002096080020FC070020A4650208CD
:10F4C000B46502085C0A0020087E0208EC070020F0
:10F4D0002DE9FF4113F06EF8002000F0B1FB02F0BF
:10F4E0007BF800F053FA00F059FA844F844D3870DD
:10F4F00000F04CFADFF8688200243B78E6B2B342B1
:10F500006AD87F497F480024EC5412F0C3FA2B7864
:10F510002A2B6FD17C497B4812F0BCFA6B783F2BC9
:10F5200066D17A49774812F0B5FA7948012402F099
:10F5300041F978490546784813F024FD7648294674
:10F5400013F08EFC74496F4812F0A4FA734B724AA0
:10F55000D3F88414D3F88004FEF7EBF958B96E4958
:10F560006F4800F03FFC6F496B4813F079FC6A4923
:10F570006D4800F037FC68496C480022FEF728FD12
:10F5800018B965496A4800F02DFC6848694EFEF7D5
:10F59000C1FC0746D6E91201FEF7A1F90022054693
:10F5A000002306F11000FFF76DF90FB1002D39D1DE
:10F5B000614800F017FCB5F5803F2CBF05240124FD
:10F5C0005E49504812F066FA00F022FA0D2800F069
:10F5D00084805B4B187050E000F01AFA18F8003085
:10F5E000AB5500F0D3F9012012F0E6FF013484E7B7
:10F5F00054489CE73F2B0ED144494248514D12F0EC
:10F6000049FA01242B782F2B07D04F49424802F0AA
:10F6100085F84D498FE73A4DF4E729463E4813F007
:10F62000B1FC8FE74949374812F01AFA0A222946F5
:10F63000344812F0AFFA4649324812F02BFA06F17C
:10F6400010034FF00008019312F0B4FF00F03F00E8
:10F65000202894BF0020012000F0F2FA00F0D8F931
:10F6600006460146274812F017FA0D2E0BD0344BF0
:10F67000384924481E7012F00DFA2C4804B0BDE839
:10F68000F04108F000BB01220DF10F010198FEF7D7
:10F69000F3FF012808BF9DF80F602F49194816BFD6
:10F6A000FF2637464FF0FF3712F0DAF9154831469A
:10F6B00012F0F2F964B9294BFFB2D85D08F10108E4
:10F6C00000F0BAF900F062F94545BDD1002477E7B2
:10F6D0006F2E14BF30460020F0E7144808F0D3FA2C
:10F6E0006F2000F06DF9204600F06AF900F04EF945
:10F6F00004B0BDE8F04100F03DB900BF5E09002054
:10F70000FA080020C8490020C0650208D565020833
:10F71000FC080020E165020896080020E0170020A0
:10F72000ED640208E765020807650208FC0700208F
:10F73000DB630208EC070020C56402080E660208BD
:10F74000D7010020FB0800206A010020EC650208B8
:10F75000FB650208036602080B660208087F0208C0
:10F76000087E020810B500210446CC2012F0AEFE3F
:10F77000ACB92146072012F0A9FE0121CC2012F0DD
:10F78000A5FE0849084B094A1B684868B3FBF2F319
:10F790000A2253434A68121A9342FBDC10BD01212E
:10F7A000E8E700BF001000E0FC03002040420F002B
:10F7B00038B50546002445FA04F000F00100013494
:10F7C000FFF7D0FF042CF6D138BD000038B5134C3C
:10F7D000134D0121CD2012F079FE124A2B68616889
:10F7E000B3FBF2F30A2253436268521A9342FBDCE2
:10F7F0000021CD2012F06AFE0A4A2B686168B3FB33
:10F80000F2F306480A2253434268521A9342FBDC41
:10F81000BDE838400121CD2012F058BE001000E0B4
:10F82000FC03002040420F0070B50020FFF7C0FF2E
:10F830000F4D002600242878204100F001000134FB
:10F84000FFF790FF032CF6D100246878204100F0E8
:10F8500001000134FFF786FF032CF6D10136052E97
:10F8600005F10205E6D1BDE87040FFF7AFBF00BF6C
:10F870006001002010B50C46FFF79AFF2046FFF705
:10F8800071FFBDE81040FFF7A1BF00000849431E0B
:10F89000043013F8012F3F2A07D811F81220072A45
:10F8A00003D88342F5D1012070470020704700BF84
:10F8B000E000002038B50446FFF7E8FF054698B1A0
:10F8C0000A4A0B48631E043413F8011F10F8111084
:10F8D0001170197800EB4101A3424978517002F18F
:10F8E0000202F1D1FFF7A0FF284638BD60010020D9
:10F8F000E000002008B5FFF769FFBDE80840FFF70A
:10F9000093BF000008B50021452012F0DFFD024B37
:10F910001869C0F3072008BD000C024008B50D4B64
:10F920001B7833B10C4B1868002802DBC0B202F020
:10F9300015FB0A4B1B784BB112F03CFE084B1B68C1
:10F94000984203D300F084F902F062FABDE808405F
:10F9500000F042BD401D0020DC010020291D0020D8
:10F960002C1D0020024B187019784A2012F0AEBDF1
:10F970005F090020034BFF221A70034B00221A700C
:10F98000704700BFD701002094080020024B187870
:10F9900080F00100FFF7E6BF5F09002008B51220E4
:10F9A00012F0CCFD0028FAD00021062012F08EFDC6
:10F9B0000121062012F08AFDBDE80840FFF7A2BF32
:10F9C00008B50F4B5861FFF7E1FF122012F0B6FDAA
:10F9D0000028FAD00021062012F078FD012106202F
:10F9E00012F074FD0749084B084A1B684868B3FBCE
:10F9F000F2F30A2253434A68121A9342FBDC08BD11
:10FA0000000C0240001000E0FC03002040420F0008
:10FA100008B5FFF783FF122012F090FD0028F8D000
:10FA20000021062012F052FD0121062012F04EFDA9
:10FA3000BDE80840FFF766BF08B50A4B5861FFF7FD
:10FA4000A5FFFFF76BFF122012F078FD0028F8D019
:10FA50000021062012F03AFDBDE8084001210620F1
:10FA600012F034BD000C0240021E044B014618BFC8
:10FA7000012249201A7012F029BD00BFD5010020D3
:10FA8000021E044B014618BF012206201A7012F014
:10FA90001DBD00BFD401002010B50020FFF7E4FF1A
:10FAA000FFF768FF094B0A490A4801241C700A4BFA
:10FAB00000221A7011F0EEFF0A2012F07DFD2046A0
:10FAC000FFF7D2FFBDE81040FFF760BF93080020AA
:10FAD00012660208C84900209208002010B5FFF7FE
:10FAE00011FF094C20700020FFF7CAFF074B0120CF
:10FAF0001870FFF7C5FF064A1378FF2B02BF237863
:10FB0000DBB2137010BD00BFD601002094080020A6
:10FB1000D701002008B5122012F010FD18B1BDE881
:10FB20000840FFF7DBBF08BD0020704707B503465C
:10FB3000806C48B101220DF1070106F08FFD01280C
:10FB400004D19DF8070003E0D86C20B94FF0FF30D6
:10FB500003B05DF804FB01220DF1070105F09EFAE8
:10FB6000EDE70346806C08B106F030BED86C08B1F2
:10FB700005F04EBB4FF0FF307047836C10B553B1AA
:10FB8000187810F0080005D0D8695B69C01A48BF22
:10FB90006FF0004010BDC06C0028FBD090F83130F1
:10FBA00013F008030ED0D0E90413D0E90024881A1A
:10FBB00063EB0403B0F1004F73F1000328BF6FF053
:10FBC0000040E7E71846F5E7012A02D1016000206E
:10FBD0007047022A05D0032AF9D0002AF7D1026023
:10FBE000F5E70B680360F2E7036818470346806C8B
:10FBF00008B106F05BBFD86C08B105F03FBF704795
:10FC00000346806B08B107F0B9B9D86B08B106F0AC
:10FC1000D7B8704708B51030FFF7F2FF08BD07B539
:10FC200001228DF8071010300DF10701FFF7E8FFF2
:10FC300003B05DF804FB3E2898BF80F08000704759
:10FC4000024B01461870C02012F040BC6009002031
:10FC5000024B187880F00100FFF7F2BF6009002026
:10FC600038B50D4601461A20144612F033FBA90898
:10FC70001C2012F02FFBE1081B20BDE8384012F0D9
:10FC800029BBC2B2C0F30721C0F30740FFF7E8BFAA
:10FC900010B5084C237803F0FF0033B1064B186809
:10FCA000FFF7EFFF0023237010BDFFF7EAFF0123EA
:10FCB000F9E700BF90080020D0010020044B1B781A
:10FCC0001BB14FF47F40FFF7DCBF4FF6FF70FAE740
:10FCD000D801002008B505460C462846FFF7D1FF9D
:10FCE0004FF4FA7012F068FC2046FFF7CAFF4FF499
:10FCF000FA7012F061FCF0E708B54FF47F01FFF7EE
:10FD0000E9FF0000000000007FB5274B274D186079
:10FD100010EE100AFCF718FC02460B46FCF7B6FA88
:10FD200002460B4600202249FCF790FDFCF75CFFE1
:10FD3000FCF70AFC1AA3D3E90023FCF75DFCFCF7EF
:10FD40000BFF1C4BB0F57A7FACBF06461E46B020B9
:10FD50000EF078F94FF0804104460EF0DBF80122F6
:10FD6000314620462C600DF0BFFF00230193124B5B
:10FD70000093124B03932868114B029369460EF0CF
:10FD800010F9029B1BB10322694668469847286810
:10FD900004B0BDE870400DF0B4BD00BFAFF300800B
:10FDA0000000000080842E41D00100208C0800203B
:10FDB0000000F03FA086010091FC0008E9FB00086C
:10FDC000C9FB0008014B18680DF0B1BC8C0800207D
:10FDD00010B5441E14F8010F00B910BD12F032FF27
:10FDE0002070F7E70FB400B591B012AA01A852F83D
:10FDF000041B009212F0CAFF01A9044811F04AFE48
:10FE000011B05DF804EB04B0704700BFC849002092
:10FE100008B50021022012F059FB0021032012F046
:10FE200055FB0121022012F0E7FA0121032012F014
:10FE3000E3FA0021022012F049FBBDE8084000214E
:10FE4000032012F043BB00000E4A0F49116000234B
:10FE50004FF47A70C2E90130C2E912330B4AC2E9A9
:10FE60000130C2E912331160094AC2E90130C2E926
:10FE700012331160074AC2E90130C2E9123311603E
:10FE8000704700BF3C080020E47D0208EC0700201A
:10FE90009C0700204C0700200649074B48681B6858
:10FEA000064AB3FBF2F303EB43034A68121A934288
:10FEB000FBDC7047001000E0FC03002040420F0014
:10FEC00038B51548154DFFF78DFF002455F8040B84
:10FED0000121013412F090FA122CF7D101211820DF
:10FEE00012F08AFA0121C72012F086FA002146207A
:10FEF00012F0ECFA0021472012F0E8FA0021482025
:10FF000012F0E4FA0121182012F0E0FABDE83840BE
:10FF10000121C72012F0DABA186602080880020828
:10FF200038B50B480B4DFFF75DFF002455F8040B67
:10FF30000021013412F060FA122CF7D100211820B0
:10FF400012F05AFABDE838400021C72012F054BA26
:10FF5000426602080880020808B50A4B5861A3F5FA
:10FF6000806318205961012112F0B0FA0021C720E6
:10FF700012F0ACFAFFF790FFBDE808400121C7205E
:10FF800012F0A4BA001002400A4B10B501215861CA
:10FF9000C72012F09BFA0021182012F097FAFFF701
:10FFA0007BFF054B1C690121182012F08FFAC4F366
:10FFB000072010BD00100240000C02401B4B1988A6
:10FFC0001A7830B401F44054B4F5005FC1F3032350
:10FFD00016D005D816496CB9CA5430BC02F072BAB2
:10FFE000B4F5405F14D0134B00221A5430BC1248B1
:10FFF000FFF7F8BECC5C2244104C00252554EBE7FB
:020000040801F1
:1000000003EB430318440E4B23F8102030BC704719
:1000100003EB43030A4C034434F813100A44074922
:1000200024F81320150C0D54F0E700BFC40C002079
:10003000C4210020DB0E00206D660208600C002049
:10004000640C0020AE4B1A8802F4E043B3F5C04FB5
:10005000F0B4D1B21BD0B3F5E04F2DD0B3F5A04F23
:100060003AD1C2F3032202EB42040444A54D01320B
:1000700035F8143002F00F024B4302EB420225F830
:10008000143010441B0C25F81030F0BC7047C2F33C
:10009000032202EB420404449A4D013235F8143035
:1000A000B3FBF1F602F00F0202EB420225F81460F6
:1000B000104401FB1633E6E7C2F3032202EB4202CF
:1000C000904C024434F812305B1A8F4924F81230F5
:1000D000C3F300450D54D8E7C2F3031302F47F4283
:1000E000B2F5904F01F00F0100F0CB8050D8B2F57F
:1000F000884F00F0A4801DD8B2F5844F00F09680A0
:100100000BD8B2F5804F00F08380B2F5824F00F03B
:1001100085807E4B00221A54B7E7B2F5864FF8D19E
:1001200001EB4101774A014403EB430332F811101C
:10013000034481E0B2F58C4F18D0B2F58E4F00F039
:100140009080B2F58A4FE4D103EB430201EB410604
:100150006C4D0244064435F8124035F81660A41B75
:10016000694E25F81240C4F30047375401EB4101B2
:10017000644C014403EB430334F811206249034407
:100180000D5C2A4434F813502A44C2F3004564E05D
:10019000B2F5984F00F08D8015D8B2F5944FBFD0CE
:1001A000B2F5964F78D0B2F5924FB2D101EB410142
:1001B00003EB4303534A0344084432F8131032F864
:1001C0001000014038E0B2F59C4F00F08880B2F595
:1001D0009E4F00F08C80B2F59A4F9AD103EB430505
:1001E00001EB4101474A05440144013303F00F0389
:1001F00032F8154032F81160B4FBF6F103EB43031B
:10020000034406FB114422F8151022F813403CE782
:100210003F4A515CD154F0BC02F054B901EB4101AA
:10022000384A014432F81110394AF3E7384A03EBEF
:100230004303515C334A034422F8131025E703EBD0
:10024000430301EB41012F4C0344014434F81320D4
:1002500034F811100A442C49150C0D5424F81320BD
:1002600013E703EB430301EB4101264C0344014434
:1002700034F8132034F81110521A23490D5C521B24
:1002800083E701EB41011F4C014403EB430334F8C6
:1002900011200344D243E1E701EB410103EB4303A7
:1002A000184A0344084432F8131032F81000414051
:1002B000C2E703EB430501EB4101124C0544014445
:1002C00034F8152034F81110013303F00F034A43BA
:1002D00003EB430324F815200344120CBEE703EBA1
:1002E0004303084C034434F813208A40B6E703EB79
:1002F0004303044C034434F813200A41AEE700BF23
:10030000C40C0020640C0020600C0020DB0E0020D8
:10031000C421002038B5294B1C8804F47043B3F580
:10032000004F054610D0B3F5104F20D04AF210030D
:100330009C4225D1224B0246195C2248FFF752FD10
:10034000214B00225A5538BDC4F3032303EB43036A
:100350001E49034431F81320013A92B221F81320C8
:10036000002AF0D0164A535D23445355EBE712F0B0
:1003700021F9C4F30B04164B044443F82540E2E78B
:1003800024F00F03B3F5204F09D1E4B204EB440489
:100390000E4B044433F8144012F00CF9EBE704F46C
:1003A0007F43B3F5214FDDD0074B00221A5421467D
:1003B0000848BDE83840FFF715BD00BFC40C002059
:1003C000D40C00209A660208DB0E0020640C00208A
:1003D000C80C0020BB66020870B5174E174D0024EC
:1003E00016F8013BF3B112F0E5F8154B53F8243041
:1003F000984217D32A78134B33F81230124A1380DD
:1004000003F44042B2F5804F12D005D91B0406D543
:10041000E0B2FFF77FFF02E0E0B2FFF7CFFD2B78FD
:1004200001332B700134032C05F10105D8D170BDC7
:10043000E0B2FFF707FEF2E7DB0E0020D40C00204D
:10044000C80C0020D80C0020C40C0020172808D8A5
:100450003B2906D83B2A04D8632B8CBF00200120FF
:100460007047002070474FF4C87290FBF2F302FB14
:10047000130353B183070AD1642390FBF3F203FB08
:100480001200003818BF012070470120704700207B
:10049000704708B5012303FA01F141F2AA5319424A
:1004A00006D111F4256F05D1FFF7DDFF1C3008BD23
:1004B0001F20FCE71E20FAE710B51446421E622AF0
:1004C0000BD84B1E0B2B08D8FFF7E3FFA042A8BFA9
:1004D000002CCCBF0120002010BD0020FCE7000054
:1004E0002DE9F04F184C87B00546206808F07FF9D9
:1004F0000646206808F075F90746206808F06BF991
:1005000000218046206808F0D0F88146206808F075
:10051000C6F88246206808F0BCF88346206808F0D8
:10052000B2F8CDE9019A0949CDF800800A2306F511
:10053000FA62B0FBF3F03B46CDE903B0284612F077
:100540008BFB07B0BDE8F08FE00E00201E630208B1
:100550002DE9F843294C206808F049F981462068C4
:1005600008F03FF90746206808F035F90021804679
:10057000206808F09AF80646206808F090F80546CA
:10058000206808F086F81E4904461E4811F068FAF3
:100590000A2241461B4811F0E7FA1B49194811F09D
:1005A0005FFA0A223946174811F0DEFA1649154853
:1005B00011F056FA0A2209F5FA61124811F0D4FA3C
:1005C0001249104811F04CFA0A2231460D4811F038
:1005D000CBFA0F490B4811F043FA0A222946094881
:1005E00011F0C2FA0A49074811F03AFA21460548C3
:1005F000BDE8F8430A2211F0B9BA00BFE00E0020AE
:10060000E8660208C8490020E5650208F6660208A7
:100610005C760208F0B5514C51495248524D85B0B4
:1006200011F038FA0BF068F94FF40043206880228B
:10063000022107F0FDFF2068012108F0EBF92B6F84
:1006400003F44073B3F5007F63D14849454811F086
:1006500007FA6B6F9E074CBF45494649414811F068
:10066000FFF9414D2B6F180466D54349434E3D4871
:1006700011F0F6F9D6F8503843F2F127BB4241D0D9
:100680003F49384811F0ECF9002220680D2108F0AC
:100690004BF820682B2108F02DF82068002108F085
:1006A0000FF800254FF47A73CDE900352B222B4645
:1006B00020680D2108F056F82068142108F09EF8F3
:1006C0002068072108F0B0F82068192108F0C2F866
:1006D000206819230722142108F0D0F80D232B22BB
:1006E000CDE9013240F2E973264900931D48039594
:1006F0000723142211F0EBF923491A48C6F8507861
:1007000011F0AEF92149174805B0BDE8F04011F0ED
:10071000A7B9B3F5807F0AD11D49124811F0A0F99D
:100720002B6F9D0701D51B4998E71B4996E71B498D
:100730000C4811F0AFF994E719490A4811F0AAF9E9
:10074000184B0122C3F83C2E0A2011F035FF2B6F05
:1007500019044CBF1449154988E700BFE00E00207A
:10076000FF660208C84900200038024041670208BD
:100770006A670208986702087D6802080020004046
:100780004F690208A3690208CE690208F2690208EB
:10079000C5670208EB67020816680208436802088A
:1007A000A168020800004742FD6802081F690208AC
:1007B00038B50A4D0A4C296811F001010AD14FF4ED
:1007C000004380222046617084F8261007F030FF35
:1007D00001232B60034B1C6038BD00BFE40E0020DA
:1007E000E80E0020E00E002038B50B4C2588B5F54A
:1007F000C87F06D2FFF786F8084B58552388013387
:100800002380074B197881F001011970C520BDE8DC
:10081000384011F05BBE00BFAA150020AC150020C7
:1008200091080020836810B5044613B103220146E5
:100830009847204610BD0000F0B51F4F1F4E786E40
:100840001F4D85B0431C69461E4B009318BF1920ED
:100850000024042201940396029511F0CFFB684610
:10086000FFF7E0FF184B9B6957F82300174B0093E5
:10087000421C18BFC62004226946CDE902560194E5
:1008800011F0BCFB6846FFF7CDFF62B6104B114874
:100890001978FFF7A7FA104B01201C70FFF7D0F969
:1008A00002F05CF80D4802F089F80D4805B0BDE88B
:1008B000F040FFF797BA00BFD8E40308E9FB00084F
:1008C000C9FB000899FA000898E40308E907010841
:1008D0005F090020146A020893080020000001400C
:1008E0002A6A02080000000038B501212DED028BB4
:1008F0001A2011F081FD01211C2011F07DFD012144
:100900001B2011F079FD0221162011F075FD4FF426
:100910007F00B1EE000AFFF7F7F9BD484FF4E1316F
:100920000FF036FCBA480FF035FC20B9162011F054
:1009300005FE0128F6D0B748FFF754FAFFF768FA2A
:10094000B1EE000AB448FFF7DFF90021482011F0AA
:1009500053FD0021472011F04FFD0021462011F0EA
:100960004BFD0021442011F047FD0021432011F0F0
:1009700043FD0021422011F03FFD0021412011F0F4
:100980003BFD0021402011F037FD00213F2011F0F8
:1009900033FD00213E2011F02FFD00213D2011F0FC
:1009A0002BFD0021C22011F027FD0121022011F0B2
:1009B00023FD0021022011F089FD0121032011F007
:1009C0001BFD0320002111F081FD012011F0F4FD39
:1009D000C22011F0B3FD0028FAD0B1EE000A8F4812
:1009E0008F4DFFF791F90121CE2011F005FD002177
:1009F000C42011F001FD01214A2011F0FDFC01216C
:100A0000452011F0F9FC0021C62011F0F5FC012170
:100A1000492011F0F1FC0121062011F0EDFC00212C
:100A2000192011F0E9FC0021122011F0E5FC012150
:100A3000072011F0E1FC0121CD2011F0DDFC0121A6
:100A4000CC2011F0D9FC0021C72011F0D5FC0121E8
:100A5000C52011F0D1FC0221112011F0CDFC0121A3
:100A6000C02011F0C9FC00246E4B2146C5201C702B
:100A700011F02CFD6C4BFF221A6055F8040B01217C
:100A8000013411F0B9FC082CF7D1684D002455F859
:100A9000040B0021013411F0AFFC082CF7D1002128
:100AA000452011F013FD6249594810F0D9FF614B00
:100AB0001868FBF727FD50A3D3E90023FBF7C6FE18
:100AC00041EC100B0221524811F054FA5A49504897
:100AD00010F0E0FF59494E4810F0C2FF9FED480B5F
:100AE00002214B4811F046FA5549494810F0D2FF0F
:100AF0005449474810F0B4FF9FED430B032144488D
:100B000011F038FA5049424810F0C4FF01F020F8C3
:100B100000F0E0FC10B9FF20FFF7EEF80120FFF72E
:100B20008FF8FFF7CDF9494800F05CFE431C54D123
:100B30003948FFF7E1F8FFF7F3F9B1EE000AFF20BB
:100B4000FFF7E2F80120FEF78FFF0120FEF798FF84
:100B5000FEF7D0FE3E48FEF7ADFEFFF76DFEB1EEAC
:100B6000000A2E48FFF7D0F83A48FFF73BF9012179
:100B7000032011F0ABFC642011F01EFD01210220C6
:100B800011F0A4FCFFF746FDFFF7E2FC01F03CF892
:100B900001F098F8F0EE087AB4EEE70AF1EE10FAF8
:100BA000B0EE408A1DDD2C49194810F059FF2B4941
:100BB000174810F055FFB0EE480A0221144811F012
:100BC00019F92749124810F065FFFFF7FBF8BDEC53
:100BD000028BBDE83840FFF771B80230ABD1FF207F
:100BE000A7E7F0EE047AB4EEE70AF1EE10FACCBF14
:100BF0001C491D49D8E700BF0000000080842E4139
:100C00000000000000002040FCA9F1D24D624040ED
:100C1000C8490020416A020800A5FF008080F0005A
:100C20007080020891080020000C024050800208E9
:100C30004D6A0208FC030020796A02087E6A0208F5
:100C4000A76A0208BC6A0208E46A0208F96A020894
:100C5000D86102080A6B02081E6B0208306B02089A
:100C60002C650208236B02082B6B020830B50A685A
:100C7000034602441478202C104602F101050FD0DF
:100C8000092C0DD02C2C0BD0222C0BD128462A4617
:100C900015F8014B222C14D0002CF8D1204630BD81
:100CA0002A46E7E7154612F8014B2C2C01D0002C00
:100CB000F8D1EB1A2C2C08BF013300222A700B60EC
:100CC000EDE700241470D21A01320A60E7E7000051
:100CD0002DE9F04FDFF8DC82B7B099480FF0E2F968
:100CE00010B937B0BDE8F08F95480FF0E1F9C0B208
:100CF0000A28D8F8003002D00D2840F0F982002BE5
:100D0000EBDD904C90490022E2542046092212F07B
:100D1000C3F828B98D4B18800023C8F80030DCE7F1
:100D20008B490822204612F0B7F80546002866D104
:100D300088498348854E884C10F0ACFE874980482E
:100D400010F08EFE31887E480A2210F00FFF3388A3
:100D5000AB42E1DD0A22A910794810F005FF804975
:100D6000774810F07DFE63782178754803EB012108
:100D7000102210F0F9FE7B49714810F071FE10222C
:100D8000A1786F4810F013FF77496D4810F068FEA6
:100D9000E1786B48102210F00AFF94F90330002B21
:100DA00003DB7249664810F05BFEE3785A0603D411
:100DB0006F49634810F054FEE3789B0603D46D49F5
:100DC0005F4810F04DFEE378DF0603D46A495C48C3
:100DD00010F046FEE378180703D46849584810F02D
:100DE0003FFE6749564810F03BFEE17854480A221E
:100DF00001F0070110F0BAFE04350434A7E7614999
:100E00000722204612F048F80546002879D14F4CB9
:100E10005D494B485D4F10F03DFE5049484810F089
:100E20001FFE218846480A2210F0A0FE26884A4B61
:100E3000DFF884C12C462A46554D964239DCDFF84E
:100E400078910025AC427FF767AF19F90530002B88
:100E500054DB4E4F4F492A461DA811F0FDFE2F448A
:100E60001DA9374810F0FCFD621B394604A803F0A9
:100E70001BFB474B484933F81520064682461DA800
:100E800011F0EAFE2E481DA910F0EAFD4FF0000B0C
:100E9000B34520DB0027C6F10706BE4228DC3F49E8
:100EA000274810F0DDFD264804A910F0F3FD554455
:100EB000C8E7D878C1060BD593F800E059780CF84C
:100EC000040001EB0E2125F81410997839550134EE
:100ED00004320433B1E717F8012B31491DA811F092
:100EE000BBFE17481DA910F0BBFD0BF1010BCFE7AE
:100EF0002C49134810F0B4FD0137CEE74FF0010A3A
:100F0000D5E729490322204611F0C6FF30B9274B07
:100F100019780A220A4810F029FEFDE62449032226
:100F2000204611F0B9FF002848D1204C2178C52077
:100F300081F00101217011F0C9FA21780A22E9E754
:100F4000C8490020A8140020406B0208AA15002000
:100F50004A6B0208536B0208AC1500205E6B020856
:100F60006B6B0208736B0208776B0208846B0208D4
:100F7000896B02088E6B0208936B02089A6B020859
:100F8000A16B0208A96B0208B16B02083C1000209B
:100F9000740F0020C36B0208CB6B0208D76B0208EA
:100FA000D16B0208D66B0208DA6B020891080020A8
:100FB000D96B0208A0100020100F0020B3490522B1
:100FC000204611F069FF054638BB2146B04811F0B4
:100FD000D9FF1DA9AF481D95FFF748FE0446AD484F
:100FE000FFF744FE0546AB48FFF740FEAA4B002C36
:100FF00008BF1C46002D08BF1D46002814BF06462A
:101000001E462A462146A5483346FEF7EBFE3246E9
:101010002946204601F01CFD7EE6A1490722204614
:1010200011F03AFF054678B921469E4811F0AAFF13
:101030001DA99D481D95FFF719FE974B002808BF75
:10104000184602F0D5FF67E698490822204611F0BD
:1010500023FF054678B92146954811F093FF1DA955
:1010600094481D95FFF702FE8B4B002808BF1846D9
:1010700000F0B0FF50E690490822204611F00CFF26
:10108000E0B98E498E4811F07DFF00231DA98D48DF
:101090001D93FFF7EBFD804B002814BF04461C4650
:1010A000204600F067FE884B01221A70214618B9CD
:1010B0008648FEF797FE2FE68548FAE785497F4880
:1010C000082211F0E9FE8146002840F0D680247AFB
:1010D000202C40F0CD80804904A811F01DF83A2161
:1010E00004A811F04AF800F1010B5A4603903A2186
:1010F00004A811F034F82146074604A811F03DF881
:101100002F21054604A811F038F800F1010A06461F
:1011100052462F2104A811F022F8039B0446581CC4
:1011200000F0A380791C00F0A0806A1C00F09D8074
:10113000701C00F09A80611C00F097804A4604A958
:101140001DA811F01DF81DA811F040F881461DA83A
:1011500010F0A0FF3B465A4604A91DA811F010F854
:101160001DA811F033F883461DA810F093FF2B46FD
:101170007A1C04A91DA811F003F81DA811F026F887
:1011800007461DA810F086FF33466A1C04A91DA857
:1011900010F0F6FF1DA811F019F805461DA810F073
:1011A00079FF5246234604A91DA810F0E9FF1DA8A7
:1011B00011F00CF806461DA810F06CFF069B621C8F
:1011C00004A91DA810F0DCFF1DA810F0FFFF824647
:1011D0001DA810F05FFFB9F1170F4CD8BBF13B0F02
:1011E00049D83B2F47D86B1E1E2B44D8731E0B2BA0
:1011F00041D8BAF1630F3ED8384B1C685FFA89F9C1
:101200000022494620465FFA8BFB07F08DFAFFB2B9
:101210005946204607F06EFA3946204607F050FA44
:101220004FF47A730022CDE9003249463B465A46D4
:101230002046EDB207F096FAF6B22946204607F0AE
:10124000DDFA5FFA8AFA3146204607F0EDFA514698
:10125000204607F0FFFA294653463246204607F05B
:101260000DFB1F491F4810F015FC04A810F012FFD9
:10127000FFF76EF950E51C49F4E71C49194810F0D6
:10128000EFFB0E49174810F005FC45E5DE6B020840
:10129000A5110020AA1100207F7D0208E46B02083E
:1012A000F36B0208A7130020AE130020FB6B0208AB
:1012B000A6120020AE120020046C0208A814002020
:1012C000A4100020B0140020291D00200D6C02087D
:1012D000216C02083B6C0208B1140020E00E0020D3
:1012E000446C0208C84900207D6C0208AE6C0208FC
:1012F000FF2B05DC5A1CC8F80020024AD054ECE44D
:101300000149BFE7A8140020C06C0208304810B59E
:10131000FAF73EFF2F4B1A784ABB112011F00EF955
:101320002D4B00280CBF012200221A7031D0012061
:10133000FEF786FC294C2A4B00221A70FEF7EAFBC6
:101340002378362B39D821782648FEF74BFD2278B2
:10135000254B53F82230984721782448FEF742FD68
:10136000FFF7B6FC01F0D4FBFEF7D8FA10BD00225F
:101370001F481A7006F087FC1E4806F084FC1E48C1
:1013800006F081FC1D4806F07EFC642011F014F983
:10139000C3E71B4B1978B1FA81F149090320197091
:1013A000FEF768FAFEF78AFC112011F0C7F8002852
:1013B000BDD1642011F000F9F6E72378FF2BCFD0E0
:1013C00021781048FEF70EFDFF232370C8E700BF09
:1013D00040170020930800203C170020D701002070
:1013E00094080020D56C020800000020E76C020879
:1013F000FC070020AC0700204C0800205C07002000
:10140000D8010020FF6C0208294B2DE9F74FD3F8D3
:1014100000B08146584616460F4607F0E8F901909D
:10142000584607F0DEF90090584607F0D4F900213D
:101430000446584607F039F98246584607F02FF916
:101440008046584607F025F90546584607F01BF92F
:10145000019A143292B27F2A25D8009B0C2B22D8F5
:101460001F2C20D844EA431343EA42239BB2BAF12B
:10147000170FA9F8003018D8B8F13B0F15D83B2D3D
:1014800013D84FEA481848EACA28C5F3470040EA8B
:10149000080080B215F0010518BF6425388035704A
:1014A00003B0BDE8F08F0023E1E70020F2E700BFC2
:1014B000E00E002007B501220DF10701FDF7DCF871
:1014C00001280CBF9DF807004FF0FF3003B05DF816
:1014D00004FB0000F0B5314F3C7887B0002C59D1A7
:1014E0002F48304E07F09EF82F49304810F0B8FAD8
:1014F0002F492E4810F0CEFA0121252010F07CFF54
:101500002C492D4AC86B2D4B52F820001866886B69
:10151000496A52F82000D86552F821205A6640F2F4
:101520002513ADF80C30264BCDE9043406AB13E996
:101530000E00304606F004FEF37C46F8046CA6F27A
:101540008C45BBB9012300941A463146284606F063
:101550006DFC40B9009456F8041C2346012228462D
:1015600006F064FC30B11748FEF73CFC01233B70E9
:1015700001240CE0002314490C483B7010F08AFA57
:1015800012490A4810F086FA1148FEF72BFC204653
:1015900007B0F0BD0F48FEF725FCE9E7841C0020EA
:1015A000091401086C1C00201A6D0208C8490020AB
:1015B000316D020898E40308D8E40308A04600202F
:1015C00000127A00376D0208536D0208D26D0208CE
:1015D0002B6E0208496E020808B5054B1B781BB933
:1015E0000449054811F0CEFCBDE80840FFF772BF82
:1015F000841C0020E56502086A010020F0B59BB05C
:101600000546FAF735FE00212C180B460A462E2017
:10161000AC4215D100297DDC02F168030DEB030219
:1016200001AE0024304602F8644CFAF721FE23464E
:101630000644834269DB00232B5401201BB0F0BD1C
:101640005E1E032E03D8DFE806F019253D4F14F87F
:10165000013C2F2B08D102F168066E44013206F8D6
:10166000643C0023013CD3E72E2B4AD002F16806EC
:101670006E44013206F8643C0123F3E702F1680688
:1016800014F8013C6E44013206F8643C2F3B18BF4D
:101690000123E7E714F8013C2F2B05D10029D4BF23
:1016A000002301239B00DDE72E2B2CD0002919DC21
:1016B00002F168066E442E2706F8647C06F8633C47
:1016C0000232D9E714F8016C2F2E0AD002F1680318
:1016D0006B44033203F8640C03F8630C03F8626C88
:1016E000CAE701310423BDE714F8016C2F2E04D1A1
:1016F00001390B1E18BF0123D4E72E2E08BF022389
:10170000B0E70223AEE70323ACE716F8012DEA5455
:1017100001338EE74FF0FF3090E7000010B50A78F4
:101720002F2A04460B4627D01D4A1E4911F094FA71
:101730002046FFF763FF431C1DD02046FAF798FDB3
:10174000204410F8013C2F2B04D017492246204694
:1017500011F082FA154800222146FCF739FCD8B175
:10176000134B9A6C5AB1137813F0D00F0ED00F4868
:1017700006F089FA012010BD11F004FCD8E7DB6CFB
:1017800023B193F8313013F0500FEFE7074806F01C
:101790007AFA6FF00100EEE76FF00200EBE700BFAE
:1017A0006A01002048640208686E02085C07002095
:1017B0004C07002010B52F21044611F07FFB00B12B
:1017C000441C204610BD000010B52E21044611F027
:1017D00075FB18B1844201D0013010BD0048FCE710
:1017E0007F7D02082DE9F0434FF47A7395B0002411
:1017F0000146CDE9014305464B4B4C480093CDE9EA
:101800001244FEF7EFFA10F0D5FE22468046294634
:1018100004A8FCF7DDFB00287FD0129B002B39D0F9
:10182000DC69DFF81891204611F078F8224601466D
:10183000C9F8000004A8FCF71FFF00242746DDE9D3
:10184000120100283ED0C2690023944277EB0303C3
:1018500025D300283BD0002104F0EAFF00242646CF
:10186000129B002B53D0DA690023944276EB0303DA
:1018700035D310F09FFE2946A0EB08022C48FEF756
:10188000B1FA04A806F0FFF9D9F8000011F04EF8FB
:10189000002037E0139C002CC3D02469C1E7D9F89D
:1018A0000030A6B2195D3046FEF756FBD9F800307D
:1018B00006F50050195D80B2FEF74EFB013447F18A
:1018C0000007BCE70029C9D0D1E90423BDE70029FE
:1018D000C4D000220023084603F0B0FCBEE704A8F1
:1018E000FFF7E8FD0746A0B2FEF74EFBFFB2631C10
:1018F00046F10006B84208D00E482146FEF772FABB
:101900004FF0FF3015B0BDE8F0831C46A8E7139BED
:10191000002BAED0D3E90423A7E70748FEF762FA0D
:101920006FF00100EEE700BFE47D02086C6E020874
:10193000A16E0208896E0208CB6E02085C0C0020C2
:101940000C4B0D49C3F8901401210022C3F89414E4
:101950004FF02851C3F88024C3F88424C3F88824A6
:10196000C3F88C24C3F89824C3F89C14C3F8A024AB
:10197000704700BFE017002000093D000346006CDF
:1019800008B105F093B8586C08B104F077B8704707
:1019900008B50830FEF734F908BD07B501228DF807
:1019A000071008300DF10701FEF72AF903B05DF8C2
:1019B00004FB00002DE9F04196B090463A4A0492AB
:1019C0003A4A0F4611680023CDE9143306460593C1
:1019D000002941D0364A06A806F066F900283BD017
:1019E0003448FEF7FFF90422002306A8FCF74AFF5B
:1019F000042510F0DFFD00F03F00202894BF0020F8
:101A00000120FEF71DF9149848B32B49202204F059
:101A100025FE20281DD1149848B31022694604F0F1
:101A20001DFE102815D1684610F070FF3035224990
:101A3000034604462A462148FEF7D4F91E4831469B
:101A4000FAF7B8FBD8B93D601D48A8F80040FEF78A
:101A5000C9F906A806F017F916B0BDE8F081159887
:101A60000028F6D01449202203F018FBD1E715987E
:101A70000028EED01022694603F010FBD1E7149B3A
:101A800053B15A690023A21843F1000306A8FCF7DA
:101A9000F9FE0028ADD1DCE7159B13B1D3E9002393
:101AA000F1E71A46EFE700BF988002080C480020D3
:101AB0006A010020DE7B020896080020E76E02081B
:101AC000026F02081F4A536C43F4807310B55364CD
:101AD000A2F58A321C4C52F8FC3C43F4000342F855
