:100000000C9490130C94DA7C0C94AF7C0C94847C4C
:100010000C94597C0C942E7C0C94037C0C94D87B0F
:100020000C94AD7B0C94C1130C94C1130C94C113AC
:100030000C94C1130C94C1130C94C1130C94C113F0
:100040000C94C1130C94C1130C94C1130C94C113E0
:100050000C94C1130C94C1130C94C1130C94637BC6
:100060000C94C1130C942D7B0C94037B0C94C11342
:100070000C94C1130C94C1130C94C1130C94C113B0
:100080000C94C1130C94C1130C94C1130C94C113A0
:100090000C94C1130C94C1130C94C1130C94C11390
:1000A0000C94C1130C94C1130C94C1130C94C11380
:1000B0000C94C1130C94C1130C94C1130C94057DC2
:1000C0000C94C1130C94C1130C94C1130C94C11360
:1000D0000C94C1130C94C1130C94C1130C94C11350
:1000E0000C94C1130C946A2F0C942E300C94F216BD
:1000F0000C949B310C94FC330C94F95E0C947E1799
:100100000C94022C0C94882D0C94E62B0C94E71381
:100110000C947A4B0C941B2B0C94564F0C94941506
:100120000C948D340C9490140C94944D0C94EA68B7
:100130000C94DE160C947E160C948C2F0C94432C8D
:100140000C946C310C9450500C9479150C94031948
:100150000C94307D0C9479350C94D2680C946D1508
:100160000C94D72C0C9405500C9483160C9479178E
:100170000C94A1160C9422190C94A04F0C943E2BB5
:100180000C94CB180C945A700C9488510C947E34B7
:100190000C94F32B0C9423510C94DB2B0C944351B3
:1001A0000C9425680C94FC2B0C94B04B0C94FC160E
:1001B0000C9439760C949A150C9415710C94901536
:1001C0000C946E500C94FB2A0C94CD6E0C94361447
:1001D0000C94A9330C945F500C9486300C94F92B3A
:1001E0000C941A340C947C150C94A7150C94FF2BCA
:1001F0000C94544A0C94147A0C94B1160C94A916CD
:100200000C94ED4F0C94834B0C9471150C9423506B
:100210000C94E8160C94D2500C94AC2F0C94424FD2
:100220000C9429750C94223A0C94E45E0C94781783
:100230000C948C150C946B4E0C9458140C945268BE
:100240000C94512A0C94AC150C94A2300C941017F9
:100250000C947D340C947A6F0C94032B0C948E4F79
:100260000C9427140C949E4B0C94C0670C94C32BD5
:100270000C94312D0C94114A0C94692E0C94D07A64
:100280000C9475150C94BA6E0C94AF4F0C940451E9
:100290000C94134D0C9467150C947F4F0C94A76E1F
:1002A0000C94AB330C94D1320C94A74B0C94925118
:1002B0000C9486150C9482150C949E150C94325057
:1002C0000C94B1790C94B2680C94BB160C94F43E67
:1002D0000C94352B0C94E7670C948D160C94DF3E30
:1002E0000C9411190C946A300C94A2150C94F849D2
:1002F0000C9481340C94FA130C9402680C94E23E32
:100300000C940E190C940B2B0C9429330C940C3474
:100310000C941C2E0C9467780C9497160C944E3009
:100320000C94386F0C94132B0C9414500C94F62BE3
:100330000C941D770C948C4B0C947A170C947E398A
:100340000C9441500C94C5160C94CF160C94397330
:100350000C94E55F0C94954B0C9494490C94BC2A36
:100360000C94F8140C94D4670C94CC2F0C94A050DB
:100370000C947C170C94232B0C94B8840C944A1482
:100380000C94A8150C9406170C9476160C942B2B31
:100390000C941F190C94BD2E0C9479725857414936
:1003A000540058434F4D4D454E5400585349523216
:1003B0000058454E4444520058454E444952005856
:1003C0005354415445005853445254444F450058E7
:1003D00053445254444F43005853445254444F42A0
:1003E0000058534452450058534452430058534414
:1003F00052420058534452494E43005853455453B7
:1004000044524D41534B53005853445254444F00AF
:100410005853445253495A45005852455045415447
:10042000005852455345525645445F360058524590
:100430005345525645445F35005852554E54455326
:100440005400585344520058534952005854444F92
:100450004D41534B0058434F4D504C45544500556A
:1004600050444154455F49520045584954325F4910
:10047000520050415553455F495200455849543147
:100480005F49520053484946545F49520043415026
:10049000545552455F49520053454C4543545F49BA
:1004A000525F5343414E005550444154455F4452BE
:1004B0000045584954325F44520050415553455FFE
:1004C00044520045584954315F445200534849460C
:1004D000545F445200434150545552455F445200CA
:1004E00053454C4543545F44525F5343414E005281
:1004F000554E5F544553545F49444C450054455351
:10050000545F4C4F4749435F524553455400445252
:1005100020636865636B206661696C65640058439D
:100520004F4D504C455445206E6F74207265616389
:100530006865640056526566206E6F74207072653F
:1005400073656E740053657269616C20706F7274AC
:100550002074696D656F7574004E6F206572726FDF
:100560007200556E6B6E6F776E206572726F7220BF
:100570006D6573736167650053756D3A203078253A
:1005800030386C582F256C752E00436865636B738B
:10059000756D3A20203078253032582F256C752E15
:1005A0000000000000650000008F020000B9040098
:1005B0000001090000AC1100009C230000F22E0095
:1005C000001632000078370000B8390000CC3F0038
:1005D00000B8450000D2480000B84E00001C56008C
:1005E00000305900001461000076650000BC6C000A
:1005F0000090770000C083000016870000988B00F1
:1006000000FA8F0000729400007A9C000090A10014
:10061000004CAB0000F4AE0000EAB6000064BB0082
:1006200000A8C60000A8D600004EDD000070E30060
:10063000007CEB0000CAEE0000A6F5000006FE00FC
:100640000072030100A40901008A110100E21701F0
:1006500000E0200100942A0100782F0100323701C8
:1006600000C24601004A4F0100F2540100EA5C0159
:1006700000CC630100D2700100FE7A01005C8501AC
:100680000034890100A09101001A95010062A301C4
:1006900000C0AF0100C0BE010090C00100B4C8019D
:1006A000003ACB01001EE001009F0102001F17026B
:1006B00000A3470200B9730200D38F020079AB0296
:1006C000004FBD02008BDB0200AB0003000B3303C5
:1006D000000B3303000B3303000B3303000B330316
:1006E000000B3303000B3303000B3303000B330306
:1006F000000B3303000B3303000B3303000B3303F6
:10070000000B3303000B3303000B3303000B3303E5
:10071000000B3303000B3303000B3303000B3303D5
:10072000000B3303000B3303000B3303000B3303C5
:10073000000B3303000B3303000B3303000B3303B5
:10074000000B3303000B3303000B3303000B3303A5
:10075000000B3303000B3303000B3303000B330395
:10076000000B3303000B3303000B3303000B330385
:10077000000B3303000B3303000B3303000B330375
:10078000000B3303000B3303000B330300345E0311
:1007900000E87B0300E87B0300E87B0300E87B03C1
:1007A00000E87B0300E87B0300E87B0300E87B03B1
:1007B00000E87B0300E87B0300E87B0300E87B03A1
:1007C00000E87B0300E87B0300E87B0300E87B0391
:100DA00000E87B0300E1A503007DC2030059DD03D9
:100DB0000053FA0300432E04008A5504004D6C04CE
:100DC00000948404002499040070BA04006CCB04DD
:100DD0000074DB04000C0105000E1C05008D3C05B1
:100DE00000056205000C87050005A90500E3C305A1
:100DF000002FDC0500DDF60500680F0600680F0611
:100E000000680F0600680F0600680F0600680F06EE
:100E100000680F0600680F0600680F0600680F06DE
:100E200000680F0600680F0600680F0600680F06CE
:100E300000680F0600680F0600680F0600680F06BE
:100E400000680F0600680F0600680F0600680F06AE
:100E500000680F0600680F0600680F0600680F069E
:100E600000680F0600680F0600680F0600680F068E
:100E700000680F0600680F0600680F0600680F067E
:100E800000680F0600680F0600680F0600680F066E
:100E900000680F0600680F0600680F0600680F065E
:100EA00000680F0600680F0600680F0600680F064E
:100EB00000680F0600680F0600680F0600680F063E
:100EC00000680F0600680F0600680F0600680F062E
:100ED00000680F0600680F0600680F0600680F061E
:100EE00000680F0600680F0600680F0600680F060E
:100EF00000680F0600680F0600680F0600680F06FE
:100F000000680F0600680F0600680F0600680F06ED
:100F100000680F0600680F0600680F0600680F06DD
:100F200000680F0600680F0600680F0600680F06CD
:100F300000680F0600680F0600680F0600680F06BD
:100F400000680F0600680F0600680F0600680F06AD
:100F500000680F0600680F0600680F0600680F069D
:100F600000680F0600680F0600680F0600680F068D
:100F700000680F0600680F0600680F0600680F067D
:100F800000680F0600680F0600680F0600680F066D
:100F900000680F0600680F0600680F0600680F065D
:100FA00000680F060004280600D03C0600D368063F
:100FB00000F5840600419F0600EEB70600DCD1066E
:100FC0000021F206003E1A07004A300700C2470718
:100FD00000A870070048890700DE960700A6C6072C
:100FE0000008FD0700E425080050310800F87208E9
:100FF00000F8A30800B4BF0800E8D8080005F3080B
:101000000005F3080005F3080005F3080005F308E0
:101010000005F3080005F3080005F3080005F308D0
:101020000005F3080005F3080005F3080005F308C0
:101030000005F3080005F3080005F3080005F308B0
:101040000005F3080005F3080005F3080005F308A0
:101050000005F3080005F3080005F3080005F30890
:101060000005F3080005F3080005F3080005F30880
:101070000005F3080005F3080005F3080005F30870
:101080000005F3080005F3080005F3080005F30860
:101090000005F3080005F3080005F3080005F30850
:1010A0000005F3080005F3080005F3080005F30840
:1010B0000005F3080005F3080005F3080005F30830
:1010C0000005F3080005F3080005F3080005F30820
:1010D0000005F3080005F3080005F3080005F30810
:1010E0000005F3080005F3080005F3080005F30800
:1010F0000005F3080005F3080005F3080005F308F0
:101100000005F3080005F3080005F3080005F308DF
:101110000005F3080005F3080005F3080005F308CF
:101120000005F3080005F3080005F3080005F308BF
:101130000005F3080005F3080005F3080005F308AF
:101140000005F3080005F3080005F3080005F3089F
:101150000005F3080005F3080005F3080005F3088F
:101160000005F3080005F3080005F3080005F3087F
:101170000005F3080005F3080005F3080005F3086F
:101180000005F3080005F3080005F3080005F3085F
:101190000005F3080005F3080005F3080005F3084F
:1011A0000005F3080019FF0800271409002C4C095A
:1011B000009B5E09001F730900898E0900A9AF0911
:1011C00000C1D40900896B0A004DE00A008D0C0BA8
:1011D00000B9160B00F1550B00DD620B00F36F0B2D
:1011E00000F1B60B0005C40B00E8D00B00CEDD0B00
:1011F00000B8EA0B007BF70B00B7040C00F7110CEA
:1012000000381F0C00572C0C003B390C002B460CEF
:101210000075530C0061600C00526D0C00387A0CA4
:101220000044870C0036940C0020A10C000CAE0C7E
:1012300000FEBA0C00EFC70C00DED40C00EAE10C93
:1012400000D0EE0C00D0EE0C00D0EE0C00D0EE0C76
:1012500000D0EE0C00D0EE0C00D0EE0C00D0EE0C66
:1012600000D0EE0C00D0EE0C00D0EE0C00D0EE0C56
:1012700000D0EE0C00D0EE0C00D0EE0C00D0EE0C46
:1012800000D0EE0C00D0EE0C00D0EE0C00D0EE0C36
:1012900000D0EE0C00D0EE0C00D0EE0C00D0EE0C26
:1012A00000D0EE0C00D0EE0C00D0EE0C00D0EE0C16
:1012B00000D0EE0C00D0EE0C00D0EE0C00D0EE0C06
:1012C00000D0EE0C00D0EE0C00D0EE0C00D0EE0CF6
:1012D00000D0EE0C00D0EE0C00D0EE0C00D0EE0CE6
:1012E00000D0EE0C00D0EE0C00D0EE0C00D0EE0CD6
:1012F00000D0EE0C00D0EE0C00D0EE0C00D0EE0CC6
:1013000000D0EE0C00D0EE0C00D0EE0C00D0EE0CB5
:1013100000D0EE0C00D0EE0C00D0EE0C00D0EE0CA5
:1013200000D0EE0C00D0EE0C00D0EE0C00D0EE0C95
:1013300000D0EE0C00D0EE0C00D0EE0C00D0EE0C85
:1013400000D0EE0C00D0EE0C00D0EE0C00D0EE0C75
:1013500000D0EE0C00D0EE0C00D0EE0C00D0EE0C65
:1013600000D0EE0C00D0EE0C00D0EE0C00D0EE0C55
:1013700000D0EE0C00D0EE0C00D0EE0C00D0EE0C45
:1013800000D0EE0C00D0EE0C00D0EE0C00D0EE0C35
:1013900000D0EE0C00D0EE0C00D0EE0C00D0EE0C25
:1013A00000D0EE0C000A0B0D00C0200D007E360DA3
:1013B00000024F0D00566C0D006E810D0083A40DD0
:1013C000000FC70D00A9E00D00BDFB0D0050170E6A
:1013D00000C8340E00664B0E0092650E00BE7D0EF6
:1013E00000CE900E0006AE0E009AC80E0095E50ED7
:1013F000006EFD0E00DA100F00B6240F00123E0F33
:101400000085600F005D780F00658F0F00FDA50F50
:10141000006BBC0F0075D40F00EDE70F00EDE70F78
:1014200000EDE70F00EDE70F00EDE70F00EDE70F30
:1014300000EDE70F00EDE70F00EDE70F00EDE70F20
:1014400000EDE70F00EDE70F00EDE70F00EDE70F10
:1014500000EDE70F00EDE70F00EDE70F00EDE70F00
:1014600000EDE70F00EDE70F00EDE70F00EDE70FF0
:1014700000EDE70F00EDE70F00EDE70F00EDE70FE0
:1014800000EDE70F00EDE70F00EDE70F00EDE70FD0
:1014900000EDE70F00EDE70F00EDE70F00EDE70FC0
:1014A00000EDE70F00EDE70F00EDE70F00EDE70FB0
:1014B00000EDE70F00EDE70F00EDE70F00EDE70FA0
:1014C00000EDE70F00EDE70F00EDE70F00EDE70F90
:1014D00000EDE70F00EDE70F00EDE70F00EDE70F80
:1014E00000EDE70F00EDE70F00EDE70F00EDE70F70
:1014F00000EDE70F00EDE70F00EDE70F00EDE70F60
:1015000000EDE70F00EDE70F00EDE70F00EDE70F4F
:1015100000EDE70F00EDE70F00EDE70F00EDE70F3F
:1015200000EDE70F00EDE70F00EDE70F00EDE70F2F
:1015300000EDE70F00EDE70F00EDE70F00EDE70F1F
:1015400000EDE70F00EDE70F00EDE70F00EDE70F0F
:1015500000EDE70F00EDE70F00EDE70F00EDE70FFF
:1015600000EDE70F00EDE70F00EDE70F00EDE70FEF
:1015700000EDE70F00EDE70F00EDE70F00EDE70FDF
:1015800000EDE70F00EDE70F00EDE70F00EDE70FCF
:1015900000EDE70F00EDE70F00EDE70F00EDE70FBF
:1015A00000EDE70F008C02100088181000A85C10F6
:1015B000008A7C1000929B100052B6100073D61067
:1015C0000047EC1000410F1100ED2B1100714F117D
:1015D00000BB6D110077891100DB9F110013B8115A
:1015E000007BD1110028F01100E2101200BA251280
:1015F0000020461200BE641200CD7F1200319D1201
:1016000000FDBC1200AFDD12002BFA12000F151303
:1016100000CD2F1300CD2F1300CD2F1300CD2F138E
:1016200000CD2F1300CD2F1300CD2F1300CD2F137E
:1016300000CD2F1300CD2F1300CD2F1300CD2F136E
:1016400000CD2F1300CD2F1300CD2F1300CD2F135E
:1016500000CD2F1300CD2F1300CD2F1300CD2F134E
:1016600000CD2F1300CD2F1300CD2F1300CD2F133E
:1016700000CD2F1300CD2F1300CD2F1300CD2F132E
:1016800000CD2F1300CD2F1300CD2F1300CD2F131E
:1016900000CD2F1300CD2F1300CD2F1300CD2F130E
:1016A00000CD2F1300CD2F1300CD2F1300CD2F13FE
:1016B00000CD2F1300CD2F1300CD2F1300CD2F13EE
:1016C00000CD2F1300CD2F1300CD2F1300CD2F13DE
:1016D00000CD2F1300CD2F1300CD2F1300CD2F13CE
:1016E00000CD2F1300CD2F1300CD2F1300CD2F13BE
:1016F00000CD2F1300CD2F1300CD2F1300CD2F13AE
:1017000000CD2F1300CD2F1300CD2F1300CD2F139D
:1017100000CD2F1300CD2F1300CD2F1300CD2F138D
:1017200000CD2F1300CD2F1300CD2F1300CD2F137D
:1017300000CD2F1300CD2F1300CD2F1300CD2F136D
:1017400000CD2F1300CD2F1300CD2F1300CD2F135D
:1017500000CD2F1300CD2F1300CD2F1300CD2F134D
:1017600000CD2F1300CD2F1300CD2F1300CD2F133D
:1017700000CD2F1300CD2F1300CD2F1300CD2F132D
:1017800000CD2F1300CD2F1300CD2F1300CD2F131D
:1017900000CD2F1300CD2F1300CD2F1300CD2F130D
:1017A00000CD2F130071481300FD5E1300877913DD
:1017B000009F9313007FAD130099CA130028E6130E
:1017C000006BFD1300F01714007E3114008A4C14D6
:1017D0000020681400578314007C9F140051BC142F
:1017E0000081D0140061E5140042FA140036191586
:1017F000002D361500D1501500116A1500C1831552
:1018000000AD9B1500B5B9150096D2150004EB1577
:101810000004EB150004EB150004EB150004EB15B8
:101820000004EB150004EB150004EB150004EB15A8
:101830000004EB150004EB150004EB150004EB1598
:101840000004EB150004EB150004EB150004EB1588
:101850000004EB150004EB150004EB150004EB1578
:101860000004EB150004EB150004EB150004EB1568
:101870000004EB150004EB150004EB150004EB1558
:101880000004EB150004EB150004EB150004EB1548
:101890000004EB150004EB150004EB150004EB1538
:1018A0000004EB150004EB150004EB150004EB1528
:1018B0000004EB150004EB150004EB150004EB1518
:1018C0000004EB150004EB150004EB150004EB1508
:1018D0000004EB150004EB150004EB150004EB15F8
:1018E0000004EB150004EB150004EB150004EB15E8
:1018F0000004EB150004EB150004EB150004EB15D8
:101900000004EB150004EB150004EB150004EB15C7
:101910000004EB150004EB150004EB150004EB15B7
:101920000004EB150004EB150004EB150004EB15A7
:101930000004EB150004EB150004EB150004EB1597
:101940000004EB150004EB150004EB150004EB1587
:101950000004EB150004EB150004EB150004EB1577
:101960000004EB150004EB150004EB150004EB1567
:101970000004EB150004EB150004EB150004EB1557
:101980000004EB150004EB150004EB150004EB1547
:101990000004EB150004EB150004EB150004EB1537
:1019A0000004EB150080021600E6221600BE3E166B
:1019B000005E4F1600B86C1600A88C160050A716D3
:1019C0000005C7160039E9160027061700DF2217A1
:1019D00000AA4417000162170059811700AAA7172F
:1019E0000056C8170032DB1700FEF21700860618F3
:1019F00000A3221800243D1800FD541800B17218ED
:101A000000339118005F4419003B5E19002D7C19CA
:101A1000002D7C19002D7C19002D7C19002D7C19BE
:101A2000002D7C1900EB0C1A00C74D1C006B9C1D8F
:101A30000049D01E0001042000C3F52000DBD6229F
:101A400000B1F623007139260059442800FD4B2AC5
:101A50000099E42A00F9AD2C0093E62D0093DD2EC9
:101A600000DD773000A9463100F1C0310027033294
:101A7000002F7432001DCA3200D78C33008D2334FE
:101A800000A9853400A9853400A9853400A98534CE
:101A900000A9853400A9853400A9853400A98534BE
:101AA00000A9853400A9853400A9853400A98534AE
:101AB00000A9853400A9853400A9853400A985349E
:101AC00000A9853400A9853400A9853400A985348E
:101AD00000A9853400A9853400A9853400A985347E
:101AE00000A9853400A9853400A9853400A985346E
:101AF00000A9853400A9853400A9853400A985345E
:101B000000A9853400A9853400A9853400A985344D
:101B100000A9853400A9853400A9853400A985343D
:101B200000A9853400A9853400A9853400A985342D
:101B300000A9853400A9853400A9853400A985341D
:101B400000A9853400A9853400A9853400A985340D
:101B500000A9853400A9853400A9853400A98534FD
:101B600000A9853400A9853400A9853400A98534ED
:101B700000A9853400A9853400A9853400A98534DD
:101B800000A9853400A9853400A9853400A98534CD
:101B900000A9853400A9853400A9853400A98534BD
:101BA00000A9853400A9853400A9853400A98534AD
:101BB00000A9853400A9853400A9853400A985349D
:101BC00000A9853400A9853400A9853400A985348D
:101BD00000A9853400A9853400A9853400A985347D
:101BE00000A9853400A9853400A9853400A985346D
:101BF00000A9853400A9853400A9853400A985345D
:101C000000A9853400A9853400A9853400A985344C
:101C100000A9853400A9853400A9853400A985343C
:101C200000A9853400F39A3400F39A3400F39A340F
:101C300000F39A3400F39A3400F39A3400F39A34A0
:101C400000F39A3400F39A3400F39A3400F39A3490
:101C500000F39A3400F39A3400F39A3400F39A3480
:101C600000F39A3400F39A3400F39A3400F39A3470
:101C700000F39A3400F39A3400F39A3400F39A3460
:101C800000F39A3400F39A3400F39A3400F39A3450
:101C900000F39A3400F39A3400F39A3400F39A3440
:101CA00000F39A3400F39A3400F39A3400F39A3430
:101CB00000F39A3400F39A3400F39A3400F39A3420
:101CC00000F39A3400F39A3400F39A3400F39A3410
:101CD00000F39A3400F39A3400F39A3400F39A3400
:101CE00000F39A3400F39A3400F39A3400F39A34F0
:101CF00000F39A3400F39A3400F39A3400F39A34E0
:101D000000F39A3400F39A3400F39A3400F39A34CF
:101D100000F39A3400F39A3400F39A3400F39A34BF
:101D200000F39A3400F39A3400F39A3400F39A34AF
:101D300000F39A3400F39A3400F39A3400F39A349F
:101D400000F39A3400F39A3400F39A3400F39A348F
:101D500000F39A3400F39A3400F39A3400F39A347F
:101D600000F39A3400F39A3400F39A3400F39A346F
:101D700000F39A3400F39A3400F39A3400F39A345F
:101D800000F39A3400F39A3400F39A3400F39A344F
:101D900000F39A3400F39A3400F39A3400F39A343F
:101DA00000F39A340025732F0025730025732573E3
:101DB000004572726F722072656164696E6720639C
:101DC0006F6D6D616E64004572726F722072656135
:101DD00064696E6720726567697374657200457225
:101DE000726F722072656164696E672076616C75CE
:101DF0006500504547202825303458292067726FE8
:101E00007570203120696E737472756374696F6EBA
:101E1000206E6F7420737570706F727465640050FB
:101E20004547202825303458292067726F75702067
:101E30003320696E737472756374696F6E206E6F90
:101E40007420737570706F72746564005045473A02
:101E50002048414C5420416464723A202568752022
:101E60005448524541443A202568752000637572F4
:101E700072656E7420646972203D20222573220DE4
:101E80000022257322206973206E6F742061206404
:101E900069720D00646972202225732220646F65C7
:101EA00073206E6F74206578697374730D006361BD
:101EB0006E206E6F74206372656174652064697250
:101EC00020222573220D0063616E206E6F742072D4
:101ED000656D6F7665206469720D0063616E206EBA
:101EE0006F742072656E616D652066696C65202572
:101EF0007320746F2025730063616E206E6F7420F1
:101F000072656E616D652066696C6520257320744D
:101F10006F2025730063616E2774206F70656E20DB
:101F20006C6F61642066696C6500257325303364CD
:101F30000063616E277420736176652066696C6545
:101F400000546F74616C20256420646972287329C1
:101F50002C2025642066696C65287329200D0025D6
:101F60002D3234732025376C750D0025730D0064F8
:101F70006972206F662022257325732220697320E1
:101F80000D00646972206F70656E206661696C6512
:101F90006400257325730053442073697A652025F6
:101FA0006C75204B42200D4652454520256C75200E
:101FB0004B4200646972206F6620222573257322CC
:101FC000206973200D00646972206F70656E206651
:101FD00061696C65640025732573000F0F0F0F0F87
:101FE0000F0F0F770F760F0F760F0F0F0F0F0F0FCB
:101FF0000F0F0F0F0F0F0F0F0F0F0F000F0B0F0D06
:102000000F0F0F101117151A161B181C1D1E1F205D
:1020100021222324250E191314120F0F26272829F5
:102020002A2B2C2D2E2F3031323334353637383998
:102030003A3B3C3D3E3F0F0F0F0F0F0F262728293D
:102040002A2B2C2D2E2F3031323334353637383978
:102050003A3B3C3D3E3F0F0F0F0F0F0F0F0F0F0F7F
:102060000F0F0F0F0F0F0F0F0F0F0F0F0F0F0F0F80
:102070000F0F0F0F0F0F0F0F0F0F0F0F0F0F0F0F70
:102080000F0F0F0F0F0F0F0F0F0F0F0F0F0F0F0F60
:102090000F0F0F0F0F0F0F0F0F0F0F0F0F0F0F0F50
:1020A0000F0F0F0F0F0F0F0F0F0F0F0F0F0F0F0F40
:1020B0000F0F0F0F0F0F0F0F0F0F0F0F0F0F0F0F30
:1020C0000F0F0F0F0F0F0F0F0F0F0F0F0F0F0F0F20
:1020D0000F0F0F0F0F0F0F0F0F0FFF100011001238
:1020E00000130014001500170018001A001B001D33
:1020F000001F00210023002500270029002B002EAF
:10210000003100340037003A003E004100450049EC
:10211000004D00520057005C00620068006E0075C0
:10212000007C0083008B0093009C00A500AF00B9E9
:1021300000C400D000DC00E900F70006011501260C
:102140000137014A015D01720188019F01B801D286
:1021500001EE010B022A024B026E029302BA02E464
:102160000210033F037003A403DC03170455049714
:1021700004DD0427057505C80520067D06E006492F
:1021800007B8072D08A9082D09B9094D0AEA0A90D0
:102190000B400CFA0CC00D910E6F0F5A1053115BCF
:1021A0001272139A14D31520178018F519801B2367
:1021B0001DDE1EB420A522B524E4263429A72B3F1A
:1021C0002EFF30E9330037453ABC3D203F3F3F3FCB
:1021D0003F3F3F3F3F3F2226243A3F28293E3C3D98
:1021E0002B2D2A2F3B2C2E303132333435363738D5
:1021F000394142434445464748494A4B4C4D4E4F6E
:10220000505152535455565758595A3F3F3F3F3FEC
:102210003F3F3F3F3F3F3F3F3F3F3F3F3F3F3F3FCE
:102220003F3F3F3F3F3F3F3F3F3F3F3F3F3F3F3FBE
:102230003F3F3F3F3F3F3F3F3F3F3F3F3F3F3F3FAE
:102240003F3F3F3F3F3F3F3F3F3F3F203F3F3F3FBD
:102250003F3F3F3F3F3F2226243A3F28293E3C3D17
:102260002B2D2A2F3B2C2E30313233343536373854
:10227000394142434445464748494A4B4C4D4E4FED
:10228000505152535455565758595A0F0F0F0F0F5C
:102290000F0F0F0F0F0F0F0F0F0F0F0F0F0F0F0F4E
:1022A0000F0F0F0F0F0F0F0F0F0F200F0F0F0F0F2D
:1022B0000F0F0F0F0F0F0F0F0F0F0F0F0F0F0F0F2E
:1022C0000F0F0F0F0F0F0F0F0F0F0F436F6D6D617C
:1022D0006E64206E6F74207265636F676E697A65D5
:1022E000643A2025730056524546206973206E6F6C
:1022F000742070726573656E742E20506C65617306
:10230000652C20636865636B207468652063616277
:102310006C652E000D0A5200585356460025732E48
:102320004552524F52004572726F720025732E440F
:102330004F4E4500446F6E650025732E50524F433B
:102340004553530025732E4552524F520025732E8C
:10235000444F4E450050726F6772616D6D696E67D4
:102360002043504C442E2E2E0025732E5853564693
:1023700000556E6B6E6F776E20636F6D6D616E646E
:102380003A20256400414654455220434F4D4D416B
:102390004E443D256400434F4D4D414E443D256420
:1023A00000526571756573746564204452207369C9
:1023B0007A652028256C75206269747329206973F9
:1023C0002067726561746572207468616E2074683C
:1023D00065206D6178696D756D20636861696E2037
:1023E00073697A6520737570706F727465642062AA
:1023F0007920746869732070726F6772616D6D65A2
:1024000072202825642062697473292E00556E6934
:102410006D706C656D656E74656420696E73747241
:10242000756374696F6E3A202573283078253032D1
:10243000582900556E6B6E6F776E20696E737472DB
:10244000756374696F6E0020002062697473002FD9
:1024500000214C6173742054444F3A0050726F63F2
:10246000657373656420256420696E737472756387
:1024700074696F6E732E002A2A2A2A2A2A2A2A2A87
:102480002A2A2A2A2A2A2A2A2A2A2A2A2A2A2A2AAC
:102490002A2A2A2A004661696C75726520617420B7
:1024A000696E737472756374696F6E202325356469
:1024B000002A2A2A2A2A2A2A2A2A2A2A2A2A2A2AA6
:1024C0002A2A2A2A2A2A2A2A2A2A2A2A2A2A002A96
:1024D0002A2A2A2A2A2A2A005375636365737321DC
:1024E000002A2A2A2A2A2A2A2A002100636F756EC6
:1024F000743A20256C642C207468726573686F6C64
:10250000643A2025642C206D6F643A20256C642C7D
:1025100020617661696C3A202564005365726961B7
:102520006C20706F72742074696D656F7574210012
:10253000554E4B4E4F574E5F5354415445004452F5
:1025400020636865636B206661696C6564210000C7
:10255000002200250028002B002E0031003400024C
:10256000010000050108010B0100002100240027E3
:10257000002A002D00300033000101000004010793
:10258000010A01534420696E697469616C697A615A
:1025900074696F6E20646F6E652E00534420696EFF
:1025A000697469616C697A6174696F6E20666169CA
:1025B0006C65642100534420616C7265616479200C
:1025C000696E697469616C697A65642E004572721E
:1025D0006F72206F70656E6E696E6720524F4D206E
:1025E00066696C65004572726F7220696E206D6558
:1025F0006D20706F7320256400564F494345204578
:102600004D554C41544F5220426567696E007265CA
:10261000736574696E67205A383000436C6F636B62
:102620003A20256400494E49540000002000230050
:10263000260029002C002F003200000100000301B9
:102640000601090105050505070508080808020235
:1026500002020A0A0808040404040101010101013C
:1026600001010303030303030303040707070C0C1F
:102670000C0C0C0C0C0C02020202060606060606E6
:1026800006060B0B0B0B0B0B0B0B0102102020088B
:1026900008102040102040800201020108040201BD
:1026A000010204081020408080402010080402012C
:1026B0008004020180402010080402010804020185
:1026C000010204081020408001020408102040800C
:1026D00000000A0B02090C0D0E080703040100009C
:1026E00000000000000000000000000000000000EA
:1026F00000000000000000000000000012111000A7
:1027000000000000000000000000000000000000C9
:102710000000000000002C000D0A5100307DB8843C
:1027200011241FBECFEFD1E2DEBFCDBF00E00CBF52
:1027300015E0A0E0B2E0EEE7F9E101E00BBF02C076
:1027400007900D92A232B107D9F725E1A2E2B5E0D8
:1027500001C01D92A33BB207E1F713E1CFE8D3E13B
:1027600000E006C021970109802FFE010E94898B9D
:10277000CE38D10780E00807A9F70E94B57D0C94F8
:10278000AD8C0C940000653048F470E0660F771F44
:10279000680F791FFB018181928108956B3048F4A5
:1027A00070E0660F771F680F791FFB0184819581A8
:1027B00008956D3049F070E0660F771F680F791F3C
:1027C000FB0186819781089590E080E00895209133
:1027D00028013091290150E040E02F5F3F4F4F4FDB
:1027E0005F4F60E074E284EF90E00E94EA89CA01E2
:1027F000B9010895AF92BF92CF92DF92EF92FF920C
:102800000F931F93CF93DF936C017B018B01040F18
:10281000151FEB015E01AE18BF08C017D10759F0B4
:102820006991D601ED91FC910190F081E02DC601F6
:102830001995892B79F7C501DF91CF911F910F91E0
:10284000FF90EF90DF90CF90BF90AF900895FC0184
:10285000538D448D252F30E0842F90E0821B930B05
:10286000541710F0CF96089501970895FC01918DAB
:10287000828D981761F0A28DAE0FBF2FB11D5D96AE
:102880008C91928D9F5F9F73928F90E008958FEF50
:102890009FEF0895FC01918D828D981731F0828D04
:1028A000E80FF11D858D90E008958FEF9FEF08955B
:1028B000FC01918D228D892F90E0805C9F4F821BBF
:1028C00091098F73992708958AE491E10E94581421
:1028D00021E0892B09F420E0822F0895FC01A48DCA
:1028E000A80FB92FB11DA35ABF4F2C91848D90E032
:1028F00001968F739927848FA689B7892C93A08915
:10290000B1898C91837080648C93938D848D98139E
:1029100006C00288F389E02D80818F7D8083089531
:10292000EF92FF920F931F93CF93DF93EC0181E01F
:10293000888F9B8D8C8D98131AC0E889F9898081C6
:1029400085FF15C09FB7F894EE89FF896083E889F9
:10295000F98980818370806480839FBF81E090E0EB
:10296000DF91CF911F910F91FF90EF900895F62E78
:102970000B8D10E00F5F1F4F0F731127E02E8C8D12
:102980008E110CC00FB607FCFACFE889F989808157
:1029900085FFF5CFCE010E946E14F1CFEB8DEC0FC9
:1029A000FD2FF11DE35AFF4FF0829FB7F8940B8F74
:1029B000EA89FB8980818062CFCF0F931F93CF93E9
:1029C000DF938C01D0E0C0E0F801EC0FFD1F6491B3
:1029D000662341F08AE491E10E949014892B11F062
:1029E0002196F2CFCE01DF91CF911F910F910895E3
:1029F000CF93DF93EC01888D8823B9F0AA89BB8936
:102A0000E889F9898C9185FD03C0808186FD0DC020
:102A10000FB607FCF7CF8C9185FFF2CF808185FF41
:102A2000EDCFCE010E946E14E9CFDF91CF910895D2
:102A300080E090E0892B29F00E94641481110E94AB
:102A4000000080E090E0892B49F080E090E0892B45
:102A500029F00E94000081110E94000080E090E0B7
:102A6000892B49F080E090E0892B29F00E9400003A
:102A700081110E94000080E090E0892B49F080E005
:102A800090E0892B29F00E94000081110C94000035
:102A900008958150823108F05AC0E82FF0E088276D
:102AA000EB5AFA4E8F4F0C94898B75157915671573
:102AB0006D157115A7157C15821586158C15901549
:102AC00094159A159E15A715A215A815AC158091F9
:102AD00080008F77809380000895809180008F7DA3
:102AE000F9CF80918000877FF5CF84B58F7784BD43
:102AF000089584B58F7DFBCF8091B0008F77809350
:102B0000B00008958091B0008F7DF9CF8091900042
:102B10008F77809390000895809190008F7DF9CFFA
:102B200080919000877FF5CF8091A0008F77809370
:102B3000A00008958091A0008F7DF9CF8091A00022
:102B4000877FF5CF809120018F77809320010895B2
:102B5000809120018F7DF9CF80912001877FF5CF73
:102B6000CF93DF93E3EEF6E28491EDE9F6E2D491C0
:102B7000E7E5F6E2C491CC23A1F081110E9449154A
:102B8000EC2FF0E0EE0FFF1FE65DF94DA591B4913B
:102B9000EC91ED2381E090E009F480E0DF91CF91AA
:102BA000089580E090E0FACF1F93CF93DF93282F12
:102BB00030E0F901E053F94D8491F901E657F94D00
:102BC000D491F901EC5BF94DC491CC23A9F0162FF7
:102BD00081110E944915EC2FF0E0EE0FFF1FE15B21
:102BE000FA4DA591B4918FB7F894EC91111108C0EA
:102BF000D095DE23DC938FBFDF91CF911F91089595
:102C0000DE2BF8CFCF93DF9390E0FC01E657F94D30
:102C100024918C5B994DFC0184918823C9F090E04C
:102C2000880F991FFC01E759FA4DA591B491FC0159
:102C3000E15BFA4DC591D49161110DC09FB7F89435
:102C40008C91209582238C938881282328839FBF91
:102C5000DF91CF910895623051F49FB7F8943C9181
:102C6000822F809583238C93E8812E2BEFCF8FB713
:102C7000F894EC912E2B2C938FBFEACF1F93CF9318
:102C8000DF93182FEB0161E00E940216209739F4C0
:102C900060E0812FDF91CF911F910C94D415CF3F2D
:102CA000D10511F461E0F5CFE12FF0E0E053F94DEB
:102CB000E491E150E23108F0B3C0F0E08827EC592C
:102CC000F94E8F4F0C94898B76167E1683168D16CF
:102CD00097161017A116A916B116BB16C516CF1652
:102CE000DE16E8161017F216FC16061784B5806873
:102CF00084BDC7BDDF91CF911F91089584B58062D7
:102D000084BDC8BDF7CF809180008068809380002B
:102D1000D0938900C0938800EDCF809180008062BD
:102D200080938000D0938B00C0938A00E3CF809182
:102D30008000886080938000D0938D00C0938C00C9
:102D4000D9CF8091B00080688093B000C093B30069
:102D5000D1CF8091B00080628093B000C093B40066
:102D6000C9CF80919000806880939000D0939900A3
:102D7000C0939800BFCF80919000806280939000B4
:102D8000D0939B00C0939A00B5CF8091900088604B
:102D900080939000D0939D00C0939C00ABCF809116
:102DA000A00080688093A0008091A0008F7B80931A
:102DB000A000D093A900C093A8009CCF8091A00050
:102DC00080628093A000D093AB00C093AA0092CF02
:102DD0008091A00088608093A000D093AD00C09344
:102DE000AC0088CF80912001806880932001D0932F
:102DF0002901C09328017ECF8091200180628093B9
:102E00002001D0932B01C0932A0174CF809120011F
:102E1000886080932001D0932D01C0932C016ACF4C
:102E2000C038D1050CF03ECF33CF3FB7F894809136
:102E3000B30E9091B40EA091B50EB091B60E26B51A
:102E4000A89B05C02F3F19F00196A11DB11D3FBFE2
:102E5000BA2FA92F982F8827BC01CD01620F711DB1
:102E6000811D911D42E0660F771F881F991F4A95AB
:102E7000D1F708958F929F92AF92BF92CF92DF9237
:102E8000EF92FF924B015C010E9415176B017C01D0
:102E90000E9415176C197D098E099F09683E7340C1
:102EA00081059105A8F321E0821A9108A108B108D3
:102EB00088EEC80E83E0D81EE11CF11C8114910439
:102EC000A104B10429F7FF90EF90DF90CF90BF905D
:102ED000AF909F908F9008952FB7F8946091AF0EA8
:102EE0007091B00E8091B10E9091B20E2FBF0895E7
:102EF0000895089581E0089580E0089508958F92DF
:102F00009F92AF92BF92CF92DF92EF92FF92CF93B8
:102F1000DF93EC016A017B010E9415174B015C01F4
:102F20008C0C9D1CAE1CBF1C81E0C81AD108E108A6
:102F3000F108AFEFCA16DA06EA06FA0651F08A81FE
:102F40009B81DC01ED91FC910480F581E02D1995C8
:102F5000EBCF0E941517681579058A059B0550F47B
:102F60008A819B81DC01ED91FC910480F581E02D4B
:102F70001995EFCFDF91CF91FF90EF90DF90CF9039
:102F8000BF90AF909F908F9008951F93CF93DF9342
:102F9000EC01162F8A819B81DC01ED91FC91662367
:102FA000F9F00084F185E02D19958A819B81DC017F
:102FB000ED91FC910480F581E02D1995EC81F0E014
:102FC000E050FC4F8081112379F090E024E095954A
:102FD00087952A95E1F78C83DF91CF911F91089512
:102FE0000284F385E02DE0CF8F70F5CF2F923F92D2
:102FF0004F925F926F927F928F929F92AF92BF9209
:10300000CF92DF92EF92FF920F931F93CF93DF93B4
:1030100000D000D000D0CDB7DEB7998788874801AF
:103020005901EF827901680127E0C20ED11CE11C31
:10303000F11CE3E0F694E794D794C794EA95D1F7AE
:103040001A012C0C3D1CCB018C0D9D1D9C838B8388
:10305000412C512C32014C145D046E047F0409F4A0
:1030600081C0AB81BC81EE91BC83AB83E983F1E08D
:103070008F1A9108A108B10810E000E01A822FEF22
:1030800082169206A206B20609F45BC0811491046E
:10309000A104B10401F52F812223E9F0A885B985A7
:1030A00012968D919C91DC01ED91FC910084F1854B
:1030B000E02D1995A885B9851496EC911497F0E048
:1030C000E050FC4F808190E034E0959587953A95EB
:1030D000E1F714968C93F981EF2FF0E0FE83ED83F6
:1030E000A885B98512968D919C91DC01ED91FC919A
:1030F000B981B0FF33C00484F585E02D19958D8129
:103100009E81959587958983E885F985828193814C
:10311000DC01ED91FC910680F781E02D1995002EE0
:1031200001C0880F0A94EAF7BA81B82BBA830F5FFF
:103130001F4FD501C4010197A109B109083011053C
:1031400051F4D101EA81EE931D01FFEF4F1A5F0A9E
:103150006F0A7F0A80CF4C015D0191CF0684F7850D
:10316000E02DCCCF29960FB6F894DEBF0FBECDBFB1
:10317000DF91CF911F910F91FF90EF90DF90CF9053
:10318000BF90AF909F908F907F906F905F904F9087
:103190003F902F900895FC0180A1882361F1848DD8
:1031A000863308F0865320917B00982F9870277FF4
:1031B000922B90937B008770806480937C00809139
:1031C0007A00806480937A0080917A0086FDFCCF3B
:1031D000909178008091790089279827892745E088
:1031E000489F9001499F300D112481E02E3F3740C8
:1031F0004CF480E007C0A68DB78D9C91828D9823FA
:1032000081E0B9F308950895DC011496ED91FC91E5
:10321000159790818C91892B8083089508960C9442
:10322000041902960C940419DC011496ED91FC919A
:10323000159790818C9180958923808308950896B5
:103240000C94141902960C941419CF93DF93EC018B
:10325000862F6A8391E09B83262F30E0F901E657A1
:10326000F94DE491E883F901EC5BF94DE491E983D0
:1032700061E00E940216E981F0E0EE0FFF1FE15BC2
:10328000FA4D859194919D838C83DF91CF91089520
:10329000CF93DF93EC01862F6A8392E09B83262FE6
:1032A00030E0F901E657F94DE491E883F901EC5B70
:1032B000F94DE491E98362E00E940216E981F0E0B1
:1032C000EE0FFF1FE65DF94D859194919D838C83F0
:1032D000DF91CF9108958EBD00000DB407FEFDCFA4
:1032E0008EB50895FC01928183819CBD8DBD81E0E6
:1032F000878360E085810E94D4158FEF0C946B1951
:103300008FEF0C946B19CF93DF93EC010E946C1735
:10331000C60FD71F0E9480198F3F59F00E946C176B
:10332000CE01861B970B97FFF5CF80E0DF91CF9101
:10333000089581E0FBCFCF93DF93FC012781222307
:1033400049F0EC0161E085810E94D4158FEF0E9465
:103350006B191F82DF91CF9108951F93CF93DF9355
:10336000EC0188E592E00E948319182F882361F010
:103370008DEF0E946B19CE010E949B191886812F38
:10338000DF91CF911F9108958FE18E83CE010E942E
:103390009B19F5CF0F931F93CF93DF938C01862F4B
:1033A000EA010E946B19FE0181918EBDDE5FEC1770
:1033B000FD0741F08191000000000DB407FEFDCF34
:1033C0008EBDF5CF0DB407FEFDCF8FEF0E946B19B8
:1033D0008FEF0E946B190E948019F80181878F710D
:1033E000853059F081E28683C8010E949B1980E0F4
:1033F000DF91CF911F910F91089581E0F9CFCF9286
:10340000DF92EF92FF920F931F93CF93DF93EC0124
:103410008B017A010E946C176B0124EDC21A2EEF0A
:10342000D20A0E94801989878F3FB1F40E946C17DD
:10343000C601861B970B97FFF4CF8EE18E83CE01DA
:103440000E949B1980E0DF91CF911F910F91FF9017
:10345000EF90DF90CF9008958E3F11F089E1EECF8D
:103460008FEF8EBDF801C7013FEF019749F00000D3
:1034700000000DB407FEFDCF2EB53EBD2193F5CF64
:1034800081E0E81AF1080E0D1F1D0DB407FEFDCFF7
:103490008EB5F801808319860E9480190E948019D8
:1034A00081E0D1CFDF92EF92FF920F931F93CF93E2
:1034B000DF93EC01162F022FF32EE42ED52E0E945F
:1034C000281F8823D1F18F81811103C0CE010E9472
:1034D000721911112AC0812F80640E946B198D2DE1
:1034E0000E946B198E2D0E946B198F2D0E946B19F3
:1034F000802F0E946B1987E8111101C085E90E9495
:103500006B190E9480190AE010E00E9480198987D7
:1035100087FF03C001501109C1F7DF91CF911F91BF
:103520000F91FF90EF90DF9008951C30A1F28CE294
:1035300091E00E9483198111CECF8FEFEECF8F9251
:103540009F92AF92BF92CF92DF92EF92FF920F9332
:103550001F93CF93DF93EC014A015B0169018885DA
:10356000823049F48B859C85AD85BE85881599058B
:10357000AA05BB0559F18A85A5019401833039F06C
:1035800089E0220F331F441F551F8A95D1F769E147
:10359000CE010E94521A882399F08EE08E83CE01CC
:1035A0000E949B1980E0DF91CF911F910F91FF90B6
:1035B000EF90DF90CF90BF90AF909F908F90089545
:1035C00082E088878B869C86AD86BE86F12CE12CB6
:1035D000E016F106A9F088E592E00E9483198111B6
:1035E00002C085E2DBCFA6016CEFCE010E94CA19B2
:1035F0008823A9F28FEFE81AF80A8EEFD81AE8CFDD
:103600008B859C85AD85BE858E0D9F1DA11DB11D31
:103610008B879C87AD87BE878F858111C4CFCE01F4
:10362000DF91CF911F910F91FF90EF90DF90CF909E
:10363000BF90AF909F908F900C94AD19EF92FF9236
:103640000F931F93CF93DF93EC0179011F85112313
:1036500069F001E010E00E949F1A182F812FDF917E
:10366000CF911F910F91FF90EF9008958A8583303D
:1036700039F089E0440F551F661F771F8A95D1F7EF
:103680009A01AB0168E1CE010E94521A882331F001
:103690008DE08E83CE010E949B19E0CFA7016EEFD3
:1036A000CE010E94CA198823A9F388E592E00E94FE
:1036B0008319082F84E2002361F320E030E0A901A0
:1036C0006DE0CE010E94521A882311F08AE0E1CF0A
:1036D0000E9480198111FACFCE010E949B19102FF0
:1036E000BDCFEF92FF921F93CF93DF93FC01208118
:1036F00011E020FF12C0EC017C01FBE0EF0EF11C99
:103700004F81588569857A85970189819A810E94C0
:103710001E1B182F811108C010E0812FDF91CF915F
:103720001F91FF90EF900895888181FD04C08881EA
:103730008E7F8883F2CF4F81588569857A858B810A
:103740009C81AD81BE81480F591F6A1F7B1F970165
:1037500089819A810E941E1B8111E9CFDDCF0F93D1
:103760001F93CF93DF93CDB7DEB760970FB6F89472
:10377000DEBF0FBECDBF8C0120E030E0A90169E0C3
:103780000E94521A882351F08CE1F8018683C80107
:103790000E949B1960E070E0CB015EC040E150E008
:1037A000BE016F5F7F4FC8010E94FF19882379F324
:1037B000C8010E949B1989818295869586958370A0
:1037C00009F055C06F8170E090E080E03AE0660F4C
:1037D000771F881F991F3A95D1F766277C70882735
:1037E0009927098510E046E0159507954A95E1F778
:1037F000012E000C220B330B062B172B282B392BF9
:10380000888590E0B0E0A0E0BC01CD0152E0660FF9
:10381000771F881F991F5A95D1F7602B712B822B28
:10382000932B6F5F7F4F8F4F9F4F2A85220F322F31
:1038300036702B85221F2227221F232B3E813F70AB
:10384000230F3327331F2750310904C0660F771F1A
:10385000881F991F2A95D2F760960FB6F894DEBF9D
:103860000FBECDBFDF91CF911F910F910895813091
:1038700009F090CF6885062F10E030E020E0980135
:1038800011270027002711272F73332789859A8551
:10389000982789279827B0E0A0E0BC01CD01602BD4
:1038A000712B822B932B6F5F7F4F8F4F9F4F2AE09F
:1038B000660F771F881F991F2A95D1F7CDCFCF9319
:1038C000DF93EC01188620E030E0A9016CE00E9453
:1038D000521A882349F089E08E83CE010E949B19F9
:1038E00080E0DF91CF910895CE010E949B1981E085
:1038F000F8CF8F929F92AF92BF92CF92DF92EF92CA
:10390000FF920F931F93CF93DF93EC014A015B016A
:1039100069018885813049F48B859C85AD85BE859C
:1039200088159905AA05BB0559F18A85A501940159
:10393000833039F089E0220F331F441F551F8A95C9
:10394000D1F762E1CE010E94521A882399F08CE0EF
:103950008E83CE010E949B1980E0DF91CF911F9151
:103960000F91FF90EF90DF90CF90BF90AF909F901E
:103970008F90089581E088878B869C86AD86BE8671
:10398000F12CE12CE016F10671F040E052E0B601B6
:10399000CE010E94FF19882301F38FEFE81AF80A7D
:1039A0008EEFD81AEFCF8B859C85AD85BE858E0DA9
:1039B0009F1DA11DB11D8B879C87AD87BE878F85FD
:1039C0008111CBCFCE01DF91CF911F910F91FF904D
:1039D000EF90DF90CF90BF90AF909F908F900C941E
:1039E0005F1C8F929F92AF92BF92FF920F931F9393
:1039F000CF93DF93DC011196ED91FC91EF2B61F4F5
:103A000090E080E0DF91CF911F910F91FF90BF90E8
:103A1000AF909F908F900895F22E4A015B01EC01C8
:103A20008F819885A985BA8588159905AA05BB0552
:103A300061F0CE010E94711B882311F3F2FE0DC0CC
:103A400018828F829886A986BA862F2D2370F880D7
:103A5000F22AF882CE010B96D5CF01E010E09E014C
:103A6000255F3F4FB501A40189819A810E94791C8D
:103A70008111E6CFC5CF2F923F924F925F926F9206
:103A80007F928F929F92AF92BF92CF92DF92EF92EE
:103A9000FF921F93CF93DF9300D000D000D01F92EE
:103AA000CDB7DEB79A87898749835A836B837C8336
:103AB0006A017B0122E0C21AD108E108F108452B16
:103AC000462B472B41F4E985FA85E55FFD4FC08021
:103AD000D180E280F38089859A85855E9D4F9887A5
:103AE0008F83FC0180819181A281B381C816D906A0
:103AF000EA06FB0618F0C12CD12C7601D701C601CD
:103B000043E0B695A795979587954A95D1F71C01FF
:103B1000F1E03F2211E0C6018770992701C0110F23
:103B20008A95EAF7260137014601570129853A852A
:103B3000295E3D4F3E832D83ED81FE818081918101
:103B4000A281B381B501A4013CE0769567955795B4
:103B500047953A95D1F7480F591F6A1F7B1F20E000
:103B600089859A850E94F11C009709F472C0FC01B6
:103B7000E20DF31D2081FFEF8F1A9F0AAF0ABF0AE3
:103B8000322F3123D1F5B501A40144195509660935
:103B90007709413051056105710589F589819A815F
:103BA000AB81BC81892B8A2B8B2B49F4A985BA85E3
:103BB000A55FBD4FFD014082518262827382C301C5
:103BC000B2016E5F7F4F8F4F9F4F2A960FB6F894CA
:103BD000DEBF0FBECDBFDF91CF911F91FF90EF9061
:103BE000DF90CF90BF90AF909F908F907F906F901D
:103BF0005F904F903F902F90089524013501C81495
:103C0000D904EA04FB0449F1AF81B8854D915D9177
:103C10006D917C9184169506A606B70680F4110F67
:103C200009F0A9CF91012F5F3F4F312C212C11E0DA
:103C30002115B2E03B0708F07FCF190198CF212C66
:103C400022E0322E412C512C3201812C912C540136
:103C5000E9CF60E070E0CB01B8CF61E070E080E0D8
:103C600090E0B3CF4F925F926F927F928F929F922C
:103C7000AF92BF92CF92DF92EF92FF920F931F937A
:103C8000CF93DF93C0917F14D0918014209709F4D3
:103C90007FC0888C998CAA8CBB8C2FEF821A920AD9
:103CA000A20AB20A8D81803119F0803209F0CCC0AD
:103CB0004C895D896E897F89C12CD12C76018E015A
:103CC000005E1F4F81149104A104B10409F44DC09A
:103CD0002A013B018FEF481A580A680A780A22E045
:103CE000C8010E94F11C009709F4AEC0ED8120E8E4
:103CF00030E0E03111F420E031E0A90170E060E053
:103D000084169506A606B70608F49401E031B9F4C6
:103D1000FC0190E080E041915191452B29F4AFEFF7
:103D2000CA1ADA0AEA0AFA0A01962817390799F72D
:103D3000821A930AA108B108B301A201C3CFFC0102
:103D400050E040E081919191A191B191892B8A2B12
:103D50008B2B29F4BFEFCB1ADB0AEB0AFB0A4F5F70
:103D60005F4F2417350771F7E3CFC701B601DF9125
:103D7000CF911F910F91FF90EF90DF90CF90BF9068
:103D8000AF909F908F907F906F905F904F9008952D
:103D9000C0918114D0918214209709F455C0FE017E
:103DA000E95EFD4F4081518162817381812C912CAC
:103DB0005401412C512C32018E01055E1D4F6A01C8
:103DC0007B012FEFC21AD20AE20AF20A20E0CE01EA
:103DD0000E94F11C0097C1F1FC019E5F51915F3F71
:103DE000D9F448E0840E911CA11CB11CA8E04A0E35
:103DF000511C611C711CD8014D915D916D917C919C
:103E00004416550666067706C8F0CB01BA01681954
:103E100079098A099B09ABCF552341F328E030E0AB
:103E200041E0652F642329F06FEF861A960AA60AEF
:103E3000B60A440F21503109A1F7D8CFB701A60126
:103E4000E817F90759F6BBCF6FEF7FEFCB018FCFA4
:103E5000FC012085223011F40C94AD19213011F4AD
:103E60000C945F1C81E008958F929F92AF92BF9255
:103E7000CF92DF92EF92FF920F931F934230510542
:103E80006105710560F480E01F910F91FF90EF9044
:103E9000DF90CF90BF90AF909F908F900895FC01DE
:103EA000C08CD18CE28CF38CC416D506E606F706DE
:103EB00050F3480159016A018581803229F58489CE
:103EC0009589A689B78917E076956795579547959F
:103ED0001A95D1F7480F591F6A1F7B1F23E0CF01A6
:103EE00080960E94F11C009771F2CC0CDD1CCC0C6A
:103EF000DD1CF1E0DF228C0D9D1DFC018082918292
:103F0000A282B38281E0C0CF803109F0BCCF448966
:103F10005589668977894D0D511D611D711D23E0FD
:103F2000CF0180960E94F11C009709F4ACCFCC0C15
:103F3000DD1CF1E0DF22C80ED91EF60111830083DB
:103F4000E1CFCF92DF92EF92FF920F931F93CF9327
:103F5000DF93423051056105710550F48FEFDF9119
:103F6000CF911F910F91FF90EF90DF90CF90089528
:103F7000FC01C08CD18CE28CF38CC416D506E6060D
:103F8000F70660F389016A01EC018581803299F5B9
:103F900084899589A689B789E7E0769567955795CD
:103FA0004795EA95D1F7480F591F6A1F7B1F22E0FA
:103FB000CE0180960E94F11C009781F2CC0CDD1C92
:103FC000CC0CDD1CF1E0DF228C0D9D1DFC018081FD
:103FD0009181A281B381488D598D6A8D7B8D48175F
:103FE00059076A077B0730F1F80180839183A28328
:103FF000B38381E0B4CF803109F0B0CF44895589D3
:10400000668977894D0D511D611D711D22E0CF011B
:1040100080960E94F11C009709F4A0CFCC0CDD1C07
:10402000F1E0DF22C80ED91EF60180819181B0E057
:10403000A0E0D1CF80E093CF9F92AF92BF92CF927A
:10404000DF92EF92FF920F931F93CF93DF9300D0F5
:104050001F92CDB7DEB75C016A017B019E012F5F25
:104060003F4FB701A601C5010E94A11F982E87FDF1
:1040700034C000E010E09801B701A601C5010E941C
:10408000341F882351F1F501408551856285738580
:10409000C416D506E606F70650F4F1E0CF1AD108AB
:1040A000E108F108F501C086D186E286F386C98071
:1040B000DA80EB80FC809110D1CF0F900F900F90A1
:1040C0000F90DF91CF911F910F91FF90EF90DF90B4
:1040D000CF90BF90AF909F90089580E0EECFFC010D
:1040E0009C01255F3F4F80E080FB879587F9919188
:1040F000890FE217F307C1F708954F925F926F920D
:104100007F928F929F92AF92BF92CF92DF92EF9267
:10411000FF920F931F93CF93DF93EC014A015B0152
:104120004C845D846E847F842881222309F45CC0E2
:10413000488959896A897B89481559056A057B052B
:1041400081F081149104A104B10469F41C861D86D8
:104150001E861F86888A998AAA8ABB8A8A818F7D51
:104160008A8381E046C023FF2CC0888D998DAA8D5B
:10417000BB8D88159905AA05BB05B0F1EE81FF81BD
:104180003481375F7501640181E0C81AD108E10804
:10419000F108032E04C0F694E794D794C7940A94C8
:1041A000D2F78A8186FF36C08C8D9D8DAE8DBF8DF6
:1041B0008C0D9D1DAE1DBF1D8C879D87AE87BF8753
:1041C000C9CF26FFDBCFEE81FF818681978125E075
:1041D000880F991F2A95E1F7B0E0A0E088159905AE
:1041E000AA05BB0508F0B6CF4C865D866E867F8635
:1041F00080E0DF91CF911F910F91FF90EF90DF90C2
:10420000CF90BF90AF909F908F907F906F905F9076
:104210004F900895DB01CA010197A109B10904C0BB
:10422000B695A795979587953A95D2F7C816D9066A
:10423000EA06FB0620F0452B462B472B49F527FFC6
:1042400022C0848D958DA68DB78D8C879D87AE8776
:10425000BF878E01045F1F4FC114D104E104F10434
:1042600009F478CF4C855D856E857F8598018E81B8
:104270009F810E94A11F91E0C91AD108E108F108AD
:10428000181654F3B1CF8C8D9D8DAE8DBF8DDDCFC3
:10429000C81AD90AEA0AFB0ADCCFCF93DF93EC01F4
:1042A000262F4C895D896E897F898E819F818096BA
:1042B0000E94F11C009759F02C813D812F7033270B
:1042C00045E0220F331F4A95E1F7820F931FDF91DC
:1042D000CF9108953F924F925F926F927F928F920B
:1042E0009F92AF92BF92CF92DF92EF92FF920F9385
:1042F0001F93CF93DF9300D01F92CDB7DEB75C0141
:10430000FC01448455846684778486809780F40118
:10431000C084D184E284F384C414D504E604F70491
:10432000C0F47301620110E0FFEFCF1ADF0AEF0A59
:10433000FF0AF401808D918DA28DB38D8C159D05A2
:10434000AE05BF0540F4111132C0C084D184E284AF
:10435000F38411E0E9CF4C145D046E047F0439F15D
:104360009E012F5F3F4FB701A601C4010E94A11F0C
:1043700087FD1DC08823C1F289819A81AB81BC81F0
:10438000892B8A2B8B2B81F6112329F0F401C0860F
:10439000D186E286F3860FEF1FEF2FEF3FE0B701E4
:1043A000A601C4010E94341F382E811118C0312C7F
:1043B000832D0F900F900F900F90DF91CF911F9151
:1043C0000F91FF90EF90DF90CF90BF90AF909F90B4
:1043D0008F907F906F905F904F903F900895411421
:1043E000510461047104B9F4F501C486D586E686EA
:1043F000F78682814114510461047104B1F0FFEF2A
:104400004F1A5F0A6F0A7F0A4C145D046E047F0422
:1044100079F08F7B0BC097018601B301A201C40123
:104420000E94341F8111E0CFC2CF8064F5018283E6
:10443000F501828180688283BBCF40E050E0BA0101
:104440000C947D20CF93DF93EC0180960E94711B2A
:10445000882331F088819981DF91CF910C94281FB6
:1044600080E0DF91CF910895CF93DF93FC0120810D
:10447000211104C081E0DF91CF910895EC01828188
:1044800087FF28C061E0CF010E944D21FC01892BEC
:1044900029F489818160898380E0EDCF8081853E28
:1044A000C1F3888187738387888183FF08C0888DE3
:1044B000998DAA8DBB8D848F958FA68FB78F8C8D8C
:1044C0009D8DAE8DBF8D938F828FB58BA48B8A818E
:1044D0008F778A838E819F810E9422228823C9F24E
:1044E000C9CFCF93DF93EC010E94342218821A8245
:1044F000DF91CF9108958F929F92AF92BF92CF920A
:10450000DF92EF92FF920F931F93423051056105A6
:10451000710560F480E01F910F91FF90EF90DF90A4
:10452000CF90BF90AF909F908F900895FC01E55E73
:10453000FD4FC080D180E280F380EFEFCE1ADE0A1B
:10454000EE0AFE0AC416D506E606F70618F3480179
:1045500059016A01FC01E15FFD4F37E076956795EF
:10456000579547953A95D1F7008111812281338182
:10457000400F511F621F731F21E00E94F11C009722
:1045800049F2CC0CDD1CCC0CDD1CF1E0DF22C80EA6
:10459000D91EF60180829182A282B38281E0BBCFD4
:1045A000CF92DF92EF92FF920F931F93CF93DF93FF
:1045B000E901FC01E55EFD4F00811181228133811B
:1045C0000F5F1F4F2F4F3F4F041715072607370761
:1045D00050F48FEFDF91CF911F910F91FF90EF90EB
:1045E000DF90CF9008956A01FC01E15FFD4F37E055
:1045F00076956795579547953A95D1F70081118142
:1046000022813381400F511F621F731F20E00E94DF
:10461000F11C0097F1F2CC0CDD1CCC0CDD1C21E070
:10462000D222C80ED91EF60180819181A281B38168
:104630008F3FFFEF9F07AF07BF0731F08883998354
:10464000AA83BB8381E0C6CF80E0C4CF0F931F93C2
:10465000CF93DF93EB01E42FDC01AD5DBD4F4D91B6
:104660005D916D917C9113970C811D812E813F810D
:10467000402351236223732329E07695679557954C
:1046800047952A95D1F7088119812A813B810250EB
:104690001109210931091B96FC9104C0000F111F5B
:1046A000221F331FFA95D2F7400F511F621F731F4D
:1046B00057970D911D912D913C91400F511F621FF5
:1046C000731F2E2F0E94F11C009729F02C813D8131
:1046D0003170820F931FDF91CF911F910F91089539
:1046E0004F925F926F927F928F929F92AF92BF9202
:1046F000CF92DF92EF920F931F93CF93DF936C01D2
:1047000048015901DB01CA010297A109B109AC01B5
:10471000BD01480D591D6A1D7B1DF601E55EFD4F6B
:10472000008111812281338104171507260737077D
:1047300008F47FC070974080518062807380EE20C3
:1047400009F46CC0481659066A067B0688F04416C0
:1047500055066606770660F440175107620773072F
:1047600018F040E050E0BA014083518362837383C4
:104770009C012770332711E001C0110F2A95EAF739
:104780002C013D012CE076946794579447942A9528
:10479000D1F7F601E95EFD4F40815181628173815D
:1047A000440D551D661D771D33E0B695A795979569
:1047B00087953A95D1F7EC01D1702A013B012FEF93
:1047C000421A520A620A720A21E0C6010E94F11CD2
:1047D000009779F1FC01EC0FFD1FA12F2081422FE2
:1047E0004A2331E009F430E03E1519F12A272083ED
:1047F000B1E08B1A9108A108B10861F1AA0F71F715
:104800003196B301A201D0E0C0E011E0A1E09F0128
:10481000281B390B2115324009F7CFCF8415950598
:10482000A605B70508F0A4CF80839183A283B38344
:104830009FCF80E0DF91CF911F910F91EF90DF909C
:10484000CF90BF90AF909F908F907F906F905F9030
:104850004F90089581E0EECF4F925F926F927F92DA
:104860008F929F92AF92BF92CF92DF92EF92FF9280
:104870000F931F93CF93DF9300D01F92CDB7DEB776
:104880004C016A017B012A013B019E012F5F3F4FD2
:10489000B701A601C4010E94D022A82E87FD49C0FD
:1048A00000E010E09801B701A601C4010E947B223C
:1048B000B82E8823F1F18FEFC81AD80AE80AF80A4F
:1048C000AA2049F089819A81AB81BC818C159D0514
:1048D000AE05BF0591F09701860104191509260957
:1048E0003709E12CB301A201C4010E94702388237F
:1048F00001F149805A806B807C80C980DA80EB802E
:10490000FC80A110C2CF8B2D0F900F900F900F90B5
:10491000DF91CF911F910F91FF90EF90DF90CF909B
:10492000BF90AF909F908F907F906F905F904F90CF
:104930000895B12CE8CF4F925F926F927F928F9241
:104940009F92AF92BF92EF92FF920F931F93CF93DC
:10495000DF93EC0188A199A1488D598D6A8D7B8DDB
:104960004115510561057105F9F04F5F5F4F6F4FBC
:104970007F4F0E943B1D4B015C0122E08216910497
:10498000A104B104A8F4F12C8F2DDF91CF911F91D8
:104990000F91FF90EF90BF90AF909F908F907F907E
:1049A0006F905F904F90089540E050E0BA01E1CFE2
:1049B000EE24E39401E010E020E030E0BC01A4012B
:1049C00088A199A10E947023F82E8823E1F2488DD6
:1049D000598D6A8D7B8D8EA5411551056105710537
:1049E00039F480648EA7888E998EAA8EBB8ECCCF28
:1049F00086FF2AC04F5F5F4F6F4F7F4F48155905A5
:104A00006A057B0581F38F7B8EA74C8D5D8D6E8D46
:104A10007F8D88A199A1488C598C6A8C7B8C441518
:104A200055056605770580F42A013B012FEF421AF0
:104A3000520A620A720A930182010E947B22B30128
:104A4000A2018111E6CF9FCF0FEF1FEF9801B501B3
:104A5000A40188A199A10E947B22882309F493CF05
:104A6000488D598D6A8D7B8D411551056105710504
:104A700009F4B9CF9501840188A199A10E947B22F4
:104A80008111B1CF80CFCF93DF93EC010E94711BD6
:104A9000882341F0C55DDD4F88819981DF91CF91F9
:104AA0000C94281F80E0DF91CF9108952F923F92C0
:104AB0004F925F926F927F928F929F92AF92BF922E
:104AC000CF92DF92EF92FF920F931F93CF93DF93DA
:104AD000CDB7DEB762970FB6F894DEBF0FBECDBF7D
:104AE000988B8F874801222E3D834E83352E2B01D4
:104AF000DC0158962D913D914D915C915B972B87F0
:104B00003C874D875E879C96BC91BF83BB2309F48D
:104B1000E3C0FC01F081F887DC011196BC91B987F4
:104B2000FC01F281FA87DC0113966C9013971496BE
:104B30007C9014971596BC91FC01F681F98BFC01D1
:104B4000F781FA8B288539854A85562D672D7B2F6D
:104B500089899F2F5801C22CDD80EE80F32C8201C1
:104B60000E94CC8BF1F09401422D5D2D6E2D732DA2
:104B7000C201A0E00E94D58BB1F4AF85B8895896E8
:104B80001D921D921D921C925B97EF85F889808281
:104B9000918222822D8123833E8134833582468215
:104BA000578281E0A4C0EF81E3FF10C0EF85F88950
:104BB00020893189428953896489758986899789D1
:104BC000DD80EE800E94CC8B08F486C0EF85F889EA
:104BD000A0A0B1A0C501825D9D4FFC011081175FAF
:104BE0009401422D5D816E81732DC201AFEF0E9451
:104BF000B78B012F0E94938B942F852FA901692FCA
:104C0000782F69017B01EF85F88986A586FF0DC0A5
:104C1000848D958DA68DB78D840F951FA61FB71F08
:104C2000808F918FA28FB38FB0CF288539854A8529
:104C3000562D672D7B2F89899A89AFEF0E94B78BFC
:104C40000E94938B29833A834B835C8329813A8129
:104C50004B815C81C216D306E406F50668F0288510
:104C600039854A85562D672D7B2F89899A89A0E041
:104C70000E94D58B09F05BC0BF81B6FF51C0F50122
:104C8000E15EFD4F80819181A281B381EF85F8893A
:104C9000808F918FA28FB38F6F84788838E1630EF5
:104CA000711CC114D104E104F10409F46ECFAF8585
:104CB000B88958964D915D916D917C915B97930168
:104CC00090968D919C910E94D022B1E0CB1AD10890
:104CD000E108F10818162CF38B859C85AD85BE85FF
:104CE000EF85F889808F918FA28FB38F80E06296D5
:104CF0000FB6F894DEBF0FBECDBFDF91CF911F91ED
:104D00000F91FF90EF90DF90CF90BF90AF909F906A
:104D10008F907F906F905F904F903F902F9008956D
:104D2000EF85F889848D958DA68DB78DAFCF2981BC
:104D30003A814B815C81C21AD30AE40AF50AACCFEE
:104D40009F92AF92BF92CF92DF92EF92FF920F931A
:104D50001F93CF93DF9300D000D000D0CDB7DEB744
:104D60008C01942E89E0F801B296DE011196019033
:104D70000D928A95E1F7F801A0A0B1A0F0E26F9F33
:104D8000C0011124B0E0A0E04D815E816F81788583
:104D9000F501ED5DFD4FC080D180E280F380C4223B
:104DA000D522E622F722C80ED91EEA1EFB1E840F6A
:104DB000951FA61FB71F8D839E83AF83B8873B9631
:104DC0008081875F04C0F694E794D794C7948A954E
:104DD000D2F7C114D104E104F10489F149815A8167
:104DE0006B817C818985882371F04F5F5F4F6F4FA6
:104DF0007F4F49835A836B837C8321E0C21AD10899
:104E0000E108F108E6CF9E012F5F3F4FC5010E94E8
:104E1000D022813091F390E080E029960FB6F8948B
:104E2000DEBF0FBECDBFDF91CF911F910F91FF90DD
:104E3000EF90DF90CF90BF90AF909F900895492D55
:104E4000BE016F5F7F4FF80180A191A10E942623D0
:104E5000E4CFFF920F931F93CF93DF93FC0124A520
:104E6000211107C081E0DF91CF911F910F91FF9039
:104E70000895EC0186A587FF8AC08F7786A7F12C5D
:104E800010E000E08BA58F1508F469C040E06F2D9D
:104E9000CE010E94A026FC01892B09F473C08081F9
:104EA000803C61F1813C69F0853809F06BC08CA5CC
:104EB000877390E095838483A8A1B9A18C918160C8
:104EC0008C93408190E080E000FB1795079517F9DF
:104ED000DF01A80FB91F2C91020F111D8130910520
:104EE00021F423E030E0453811F021E030E0820F7A
:104EF000931F8032910540F3F394C4CF81819EA526
:104F000096FF2BC082608183788969895A894B8991
:104F10003C892D899E898F89708761875287438755
:104F200034872587968787878C8D9D8DAE8DBF8D25
:104F3000848B958BA68BB78B788569855A854B8535
:104F40003C852D859E858F85708F618F528F438F15
:104F5000348F258F968F878FAFCF8D7FD4CF41E051
:104F6000BE016E5D7F4F88A199A10E942623009704
:104F700049F0FC011383028388A199A10E94432573
:104F8000811170CF8DA581608DA780E06CCF80A14D
:104F900091A10E944325811165CF9DA591609DA798
:104FA00062CFCF93DF93EC010E9429271CA61EA697
:104FB000DF91CF910895CF93DF93EC0188A999A950
:104FC000009749F00E94712219AA18AA1BAA1AAACE
:104FD000DF91CF9108958AA99BA9009719F00E94AB
:104FE000D127F2CF81E0F0CF8F929F92AF92BF9204
:104FF000EF920F931F93CF93DF9300D000D000D098
:105000001F92CDB7DEB79A838983DC019E969C916F
:105010009E9791FF63C0BA87A9875C968D909D90FB
:10502000AD90BC905F9781149104A104B104A9F4E0
:1050300010E0E985FA8583A5811708F466C041E090
:10504000612FCF010E94A026009709F447C0DC0120
:105050002C912F772C931F5FECCFA985BA85909662
:10506000ED91FC91919796FF4AC018962C91189754
:1050700019963C9119971A964C911A971B965C9128
:105080001B971C966C911C971D967C911D971E96E4
:105090008C911E971F969C91AFEF0E94B78BDF01FA
:1050A000A25DBD4F0C91075F0E94938B29833A83C9
:1050B0004B835C836D837E838F83988709811A81FC
:1050C0002B813C810F5F1F4F2F4F3F4FE12CB501CC
:1050D000A401CF010E9470238111AACF80E02A96FB
:1050E0000FB6F894DEBF0FBECDBFDF91CF911F91F9
:1050F0000F91EF90BF90AF909F908F900895B50162
:10510000A401CF010E942C24E7CFE985FA8514A6DB
:1051100016A680A191A12A960FB6F894DEBF0FBE05
:10512000CDBFDF91CF911F910F91EF90BF90AF90C6
:105130009F908F900C9443250F931F9300E010E0F5
:1051400020E030E040E050E060E070E00E94562552
:105150001F910F910895982F803290F0877F8232AF
:1051600079F09A3369F0892F8F7B8C3349F082EC88
:10517000890F823028F081E09C3519F080E0089595
:1051800081E00895AF92BF92CF92DF92FF920F938A
:105190001F93CF93DF93EB015A018C0198012F5F8E
:1051A0003F4FD8018C918032D1F0198308831F8240
:1051B0001E82F801DF01FD906D01FF2031F1BFE299
:1051C000FB1619F1F7FE0DC080E0DF91CF911F9122
:1051D0000F91FF90DF90CF90BF90AF90089589011D
:1051E000DDCF8F2D0E94AB288111EECFC601801B31
:1051F000910BEEE2FE1639F0F0E2FF1621F09F83EC
:105200008E83DD82CC82F601D5CF8E819F8101977E
:105210008F3F9105C8F62E2F9F2F81918032D9F3B1
:105220008F32C9F3D5012C9311969C930C811D816B
:1052300028813981FE013A96CE01459640E241939C
:105240008E179F07E1F781E0F90190819E3209F402
:1052500080E0F9012F5F3F4F90819E32D1F398019A
:1052600021503109E217F30720F4D9019C919E32B5
:10527000B9F740E067E0A0E050E078E0E017F10720
:1052800008F045C090819E3241F42E173F0769F423
:105290006AE0A8E070E13196F1CF9232A1F09C373C
:1052A00091F0B5EAB90FB33070F0B6EDB90FB63082
:1052B00010F49D3241F4B6ECB90FB63020F0BFEDDA
:1052C000B90FBE3528F0907C9038B9F580E0E3CF77
:1052D0006A1740F46A30D1F02E173F07B8F0F90191
:1052E0003197F4CFBFE9B90FBA3158F59052472B37
:1052F000FF24F394FA0EAC0FBD2FB11D1A969C93A8
:10530000B6E0BF1508F0F886AF2DC5CF80E09A85CE
:10531000903209F459CF882329F0542309F042E050
:10532000498753CF81E089878885C80FD11D8EE7D3
:105330008A8781E38B8781E048CF80E09FE56A1709
:1053400048F2BFEBB90FBA3198F6572BD1CFCF92B5
:10535000DF92EF92FF921F93CF93DF93EA016901EF
:10536000FB019F012F5F3F4F80818032E9F0F9837D
:10537000E883FD83EC839E2F8F2F7F01D7011D9142
:105380007D011123D1F01F3289F0812F0E94AB28BB
:10539000811146C017FD45C01E3221F0103211F0B8
:1053A000FD82EC82F701E7CFF901DBCF9E2F8F2F33
:1053B00021912032D9F32F32C9F3F60190838183F2
:1053C000688179817B836A838C819D8150E040E094
:1053D000EA81FB81E817F907B1F09F012F5F3F4F8A
:1053E0003B832A8330812FE9230F2A3108F430527E
:1053F00040FB5795479557F9430F511D40FB579573
:10540000479557F9E5CF861B970B9F838E83598766
:1054100048879C012150310981E02F3F310508F078
:1054200080E0DF91CF911F91FF90EF90DF90CF90C0
:105430000895AF92BF92CF92DF92EF92FF920F93B7
:105440001F93CF93DF93EC016A017B0159018F8198
:105450009885A985BA858C159D05AE05BF0590F484
:105460009501B701A60189819A810E94791CDF917B
:10547000CF911F910F91FF90EF90DF90CF90BF9051
:10548000AF900895400F511F611D711D841795073E
:10549000A607B70728F7CE010E94711B8111E0CF44
:1054A000E6CFAF92BF92CF92DF92EF92FF920F932F
:1054B0001F93DC01DC96ED91FC91DD97309731F183
:1054C000808140E050E0BA0183FF0CC0408D518DD7
:1054D000628D738D80899189A289B389481B590B8C
:1054E0006A0B7B0B4115B0E85B076105710520F085
:1054F0004FEF5FE760E070E0CA011F910F91FF90EE
:10550000EF90DF90CF90BF90AF900895DE96ED9131
:10551000FC9180E090E0309781F384A583FF23C065
:105520002089318942895389648975898689978957
:10553000A080B180C280D380E480F580068117818D
:105540000E94C38BF22FE32F2F3F3F4741055105A8
:10555000610571058105910519F010F0FFEFEFE786
:105560008F2F9E2FCACF20E030E040E050E060E077
:1055700070E080E090E0E6CFFC0184AD95AD00974F
:1055800011F00C94342286AD97AD009711F00C9475
:10559000292708950E94B015892BE1F360E08FE080
:1055A0000E94D4151ABC61E08FE00E94D4158FB11F
:1055B00008958091470F91E089278093470F60916C
:1055C000470F8EE00C94D415809308010E94D92ACD
:1055D0000E94B015892BE1F360E08FE00E94D415A2
:1055E0001ABC61E08FE00C94D4158FEF8093940285
:1055F0001092890C089560E08BE20E94D4150E94FD
:10560000D92A0C94F52A61E08BE20E94D4150E94FD
:10561000D92A0C94F52A60E081E30E94D4150E94F7
:10562000D92A0C94F52A61E081E30E94D4150E94E6
:10563000D92A0C94F52A60E08CE20E94D4150E94CD
:10564000D92A0C94F52A61E08CE20E94D4150E94BC
:10565000D92A0C94F52A8FEF0E94E42A80E00E9458
:10566000E42A0E94D92A0C94F52A0E94D92A80E0C3
:105670000E94E42A0E94D92A0C94F52A0E94D92A71
:105680008FEF809394020C94F52A2AEC32E0FC010F
:105690003183208304960C94DB271092200BEFEBD0
:1056A000FEE0128A118A17A616A610920B0F10920E
:1056B0000A0F08959DE1899FF0011124E154F14FF3
:1056C000148E138E8091DA0E9091DB0E2091F70EDE
:1056D0003091F80E822B932B2091140F3091150FDF
:1056E000822B932B892B11F41092330F08950F9373
:1056F0001F93CF93DF93182F9B010091330FF894E2
:1057000010923B0F10923A0FC82FD0E0D093430F66
:10571000C093420F7093350F6093340F672B09F4D9
:105720003EC0A0E8B9E80E940C8A2DE83AE840E0C3
:1057300050E00E94EA892093360F3093370F409350
:10574000380F5093390F85E090E090933D0F809390
:105750003C0F103108F050C0FE018827ED54F44D85
:105760008F4F0C94898BC32BC32BC32BC32BDB2BE9
:10577000DB2BDB2BDB2BE62BC32BF32BF62BF92BB5
:10578000FC2BFF2BDB2B8FE090E09093410F80935D
:10579000400F8DEB9EE29093450F8093440F109243
:1057A0003F0F10923E0F0093330F7894DF91CF910B
:1057B0001F910F91089589E69EE29093450F809383
:1057C000440F1092410F1092400FE9CF8CE19EE2FE
:1057D0009093450F8093440F8FE090E09093410F9A
:1057E0008093400FDCCF88E89DE2F2CF81E39DE219
:1057F000EFCF82E09CE2E1CF87ED9CE2DECF83E455
:105800009CE2DBCF0F931F9380913E0F90913F0F4F
:1058100020913C0F30913D0F820F931F90933F0FCB
:1058200080933E0F4091360F5091370F6091380FA3
:105830007091390F8C0130E020E00417150726071E
:10584000370780F02091400F3091410F2F5F3F4F7D
:105850003093410F2093400F841B950B90933F0F83
:1058600080933E0F8091400F9091410F409740F000
:105870001092410F1092400F10923F0F10923E0F66
:105880001F910F9108950F931F9380913A0F90915C
:105890003B0F009731F0019709F448C01F910F9119
:1058A000089580913E0F90913F0F20913C0F3091D1
:1058B0003D0F820F931F90933F0F80933E0F4091B7
:1058C000360F5091370F6091380F7091390F8C015E
:1058D00030E020E0041715072607370780F02091F5
:1058E000400F3091410F2F5F3F4F3093410F209376
:1058F000400F841B950B90933F0F80933E0F809138
:10590000400F9091410F409748F28FE090E09093C4
:10591000410F8093400F10923F0F10923E0F81E095
:1059200090E090933B0F80933A0FB8CF80913E0F59
:1059300090913F0F20913C0F30913D0F820F931FAC
:1059400090933F0F80933E0F4091360F5091370F49
:105950006091380F7091390F8C0130E020E004170E
:1059600015072607370798F02091400F3091410F17
:105970002115310531F0215031093093410F209329
:10598000400F841B950B90933F0F80933E0F8091A7
:10599000400F9091410F892B09F080CF10923F0F5B
:1059A00010923E0F10923B0F10923A0F77CF0F9349
:1059B0001F9380913A0F90913B0F009731F0019720
:1059C00009F448C01F910F91089580913E0F909166
:1059D0003F0F20913C0F30913D0F820F931F90930A
:1059E0003F0F80933E0F4091360F5091370F6091DB
:1059F000380F7091390F8C0130E020E00417150743
:105A00002607370780F02091400F3091410F2F5F1C
:105A10003F4F3093410F2093400F841B950B909381
:105A20003F0F80933E0F8091400F9091410F409720
:105A300048F28FE090E09093410F8093400F1092D6
:105A40003F0F10923E0F81E090E090933B0F8093C8
:105A50003A0FB8CF8FE090E09093410F8093400FC2
:105A6000B1CF0F931F9380913A0F90913B0F009706
:105A700031F0019709F445C01F910F91089580916D
:105A80003E0F90913F0F20913C0F30913D0F820FC0
:105A9000931F90933F0F80933E0F4091360F50918C
:105AA000370F6091380F7091390F8C0130E020E092
:105AB000041715072607370798F02091400F3091FB
:105AC000410F2115310531F0215031093093410F3B
:105AD0002093400F841B950B90933F0F80933E0FB4
:105AE0008091400F9091410F892B31F610923F0F1A
:105AF00010923E0F81E090E090933B0F80933A0F1D
:105B0000BBCF8FE090E09093410F8093400FB4CFD4
:105B10000F931F9380913A0F90913B0F009731F0B4
:105B2000019709F445C01F910F91089580913E0F90
:105B300090913F0F20913C0F30913D0F820F931FAA
:105B400090933F0F80933E0F4091360F5091370F47
:105B50006091380F7091390F8C0130E020E004170C
:105B600015072607370798F02091400F3091410F15
:105B70002115310531F0215031093093410F209327
:105B8000400F841B950B90933F0F80933E0F8091A5
:105B9000400F9091410F892B31F610923F0F1092D8
:105BA0003E0F81E090E090933B0F80933A0FBBCF84
:105BB00080913E0F90913F0F20913C0F30913D0F0F
:105BC000820F931F90933F0F80933E0F4091360FAB
:105BD0005091370F6091380F7091390F8C0130E080
:105BE00020E0041715072607370780F02091400FA3
:105BF0003091410F2F5F3F4F3093410F2093400F63
:105C0000841B950B90933F0F80933E0F8091400F24
:105C10009091410F409708F486CF8FE090E09093E9
:105C2000410F8093400F10923F0F10923E0F109241
:105C30003B0F10923A0F77CF0F931F9380913A0F3B
:105C400090913B0F892B09F041C080913E0F9091BC
:105C50003F0F20913C0F30913D0F820F931F909387
:105C60003F0F80933E0F4091360F5091370F609158
:105C7000380F7091390F8C0130E020E004171507C0
:105C80002607370798F02091400F3091410F2115DA
:105C9000310531F0215031093093410F2093400FED
:105CA000841B950B90933F0F80933E0F8091400F84
:105CB0009091410F892B51F48FE090E09093410F28
:105CC0008093400F10923F0F10923E0F1F910F9143
:105CD00008950F931F9380913A0F90913B0F009777
:105CE00031F0019709F444C01F910F9108958091FC
:105CF0003E0F90913F0F20913C0F30913D0F820F4E
:105D0000931F90933F0F80933E0F4091360F509119
:105D1000370F6091380F7091390F8C0130E020E01F
:105D2000041715072607370780F02091400F3091A0
:105D3000410F2F5F3F4F3093410F2093400F841B43
:105D4000950B90933F0F80933E0F8091400F909161
:105D5000410F409748F28FE090E09093410F80937D
:105D6000400F81E090E090933B0F80933A0FBCCFBF
:105D70001092410F1092400FB7CF0F931F93809155
:105D80003A0F90913B0F009731F0019709F445C00D
:105D90001F910F91089580913E0F90913F0F209198
:105DA0003C0F30913D0F820F931F90933F0F8093D4
:105DB0003E0F4091360F5091370F6091380F709120
:105DC000390F8C0130E020E004171507260737074C
:105DD00098F02091400F3091410F2115310531F09D
:105DE000215031093093410F2093400F841B950BB4
:105DF00090933F0F80933E0F8091400F9091410F01
:105E0000892B31F610923F0F10923E0F81E090E007
:105E100090933B0F80933A0FBBCF1092410F10929B
:105E2000400FB6CFCF93DF93F8949DE1899FE001B7
:105E30001124C154D14F7E8B6D8B2091280130915C
:105E4000290150E040E02F5F3F4F4F4F5F4F60E030
:105E500074E284EF90E00E94EA8956954795379561
:105E60002795388F2F8B1C8A1B8A1A8219828B8D5B
:105E70009C8D892B69F060911E0B70E0762F662750
:105E800080911D0B680F711D80911F0B0E94772B55
:105E90007894DF91CF910895CF938E3008F0DEC0D3
:105EA000E82FF0E0DF01AE5EB44F6C938827E45A30
:105EB000F04D8F4F0C94898B6A2F6A2F8C2F8C2F6B
:105EC000AC2FAC2F2E30CC2F4E306A308630A23023
:105ED000A230A2302091130B30E050E040E0542F6C
:105EE000432F322F22278091120B280F311D411D85
:105EF000511D6AE87FE08BE190E00E94EA89CA01C7
:105F0000B901A4E09695879577956795AA95D1F7FD
:105F100080E0CF910C94122F2091150B30E050E0CF
:105F200040E0542F432F322F22278091140B280F4B
:105F3000311D411D511D6AE87FE08BE190E00E9418
:105F4000EA89CA01B901E4E0969587957795679546
:105F5000EA95D1F781E0DDCF2091170B30E050E0DA
:105F600040E0542F432F322F22278091160B280F09
:105F7000311D411D511D6AE87FE08BE190E00E94D8
:105F8000EA89CA01B90124E09695879577956795C6
:105F90002A95D1F782E0BDCF8091190B80FD60C0BA
:105FA00021E030E03093D10E2093D00E81FD5DC012
:105FB00021E030E03093EE0E2093ED0E82FD5AC0CA
:105FC00021E030E030930B0F20930A0F83FD57C080
:105FD00021E030E03093C50E2093C40E1092C90E1C
:105FE0001092C80E41E050E060E070E04093CA0EAD
:105FF0005093CB0E6093CC0E7093CD0E84FD44C0B5
:1060000021E030E03093E20E2093E10E1092E60E94
:106010001092E50E41E050E060E070E04093E70E42
:106020005093E80E6093E90E7093EA0E85FD31C03F
:1060300081E090E09093FF0E8093FE0E1092030F8C
:106040001092020F81E090E0A0E0B0E08093040F96
:106050009093050FA093060FB093070FCF9108956B
:106060001092D10E1092D00EA1CF1092EE0E10927F
:10607000ED0EA4CF10920B0F10920A0FA7CF109223
:10608000C50E1092C40EBACF1092E20E1092E10E1D
:10609000CDCF1092FF0E1092FE0EE0CFC0911A0BE2
:1060A000C4FF14C081E090E09093DB0E8093DA0E81
