:020000040000FA
:100000000C9486140C9421860C94F6850C94CB8564
:100010000C94A0850C9475850C944A850C941F85CE
:100020000C94F4840C94B7140C94B7140C94B71477
:100030000C94B7140C94B7140C94B7140C94B71414
:100040000C94B7140C94B7140C94B7140C94B71404
:100050000C94B7140C94B7140C94B7140C94AA8491
:100060000C94B7140C9474840C944A840C94B714B4
:100070000C94B7140C94B7140C94B7140C94B714D4
:100080000C94B7140C94B7140C94B7140C94B714C4
:100090000C94B7140C94B7140C94B7140C94B714B4
:1000A0000C94B7140C94B7140C94B7140C94B714A4
:1000B0000C94B7140C94B7140C94B7140C944C868D
:1000C0000C94B7140C94B7140C94B7140C94B71484
:1000D0000C94B7140C94B7140C94B7140C94B71474
:1000E0000C94B7140C940A6A0C94557B0C940B3640
:1000F0000C94EA350C9491520C9421310C94B22B4F
:100100000C9478370C94954C0C94DF300C94E140AF
:100110000C945B2D0C94F14D0C94C9530C94E46A2F
:100120000C94D54F0C947D360C946C170C94F92BD1
:100130000C9401310C946B7A0C94F12B0C949F1756
:100140000C94524C0C9486150C94E9730C946E1814
:100150000C9474180C944C2E0C945B7E0C94F560EB
:100160000C94FB310C9483170C947A6A0C948616C9
:100170000C94D4170C94EE690C94E1520C94F91978
:100180000C94A62E0C94502D0C946B160C947D3B65
:100190000C9417320C94B1170C94AC500C94213C75
:1001A0000C94544F0C9446520C94C0510C942C1542
:1001B0000C94FF700C94E78C0C94E84D0C94181A76
:1001C0000C94092C0C94C3310C9480360C945B80F5
:1001D0000C946E2D0C948A160C94BB4D0C94835188
:1001E0000C94772D0C948D170C9497510C946453A8
:1001F0000C94D9700C94F3400C94DF310C94C11919
:100200000C94041A0C94E6610C94DE400C940618CD
:100210000C944E150C9482160C941C6B0C94FA35AD
:100220000C94E0600C94DA690C94C5170C94455357
:100230000C942C350C94342C0C9440150C94112CEB
:100240000C94E8170C94472B0C94F0140C94EC705D
:100250000C9498160C947C160C942E520C941353F8
:100260000C9464520C949E160C94D3530C94D64D5B
:100270000C94DE2F0C9470180C94ED320C949016A4
:100280000C94192C0C94E1510C9479170C9428734C
:100290000C94707F0C9494160C941D150C94D54BF3
:1002A0000C949D160C94742D0C9442720C94BB17F4
:1002B0000C9459750C9474170C94FD2E0C94A33166
:1002C0000C94C44D0C9463160C9484530C946F18C6
:1002D0000C94EE150C9472180C945D160C94DE17A9
:1002E0000C9467160C9455520C94682D0C94712D37
:1002F0000C94912F0C94AF520C94212C0C94846A82
:100300000C942B2C0C94382D0C94046B0C94B82D5D
:100310000C9452340C9419760C94DD140C947216CF
:100320000C9441310C94C5690C94FC170C942F6A01
:100330000C946F160C948C360C9432300C947352CF
:100340000C94DF4D0C94071A0C94F2170C947C3625
:100350000C9497170C94F27D0C942A350C94F05160
:100360000C941C330C9455790C9477860C94AA3415
:100370000C94A2160C94CD4D0C94151A0C9478166E
:100380000C94CF510C94A0520C94A27C0C94A717FF
:100390000C94012C0C94394C0C9482520C946B2DBF
:1003A00058574149540058434F4D4D454E540058FD
:1003B000534952320058454E4444520058454E4429
:1003C00049520058535441544500585344525444E0
:1003D0004F45005853445254444F430058534452DD
:1003E00054444F42005853445245005853445243DA
:1003F0000058534452420058534452494E43005807
:100400005345545344524D41534B53005853445257
:1004100054444F005853445253495A45005852458A
:1004200050454154005852455345525645445F3655
:10043000005852455345525645445F350058525571
:100440004E54455354005853445200585349520097
:100450005854444F4D41534B0058434F4D504C4519
:100460005445005550444154455F49520045584950
:1004700054325F49520050415553455F495200453F
:10048000584954315F49520053484946545F4952D4
:1004900000434150545552455F49520053454C4525
:1004A00043545F49525F5343414E005550444154B9
:1004B000455F44520045584954325F445200504110
:1004C0005553455F44520045584954315F445200EA
:1004D00053484946545F4452004341505455524595
:1004E0005F44520053454C4543545F44525F53436D
:1004F000414E0052554E5F544553545F49444C455C
:1005000000544553545F4C4F4749435F5245534550
:100510005400445220636865636B206661696C65B2
:10052000640058434F4D504C455445206E6F742025
:10053000726561636865640056526566206E6F740B
:100540002070726573656E740053657269616C200A
:10055000706F72742074696D656F7574004E6F20D2
:100560006572726F7200556E6B6E6F776E2065727A
:10057000726F72206D6573736167650053756D3AB4
:100580002030782530386C582F256C752E00436844
:1005900065636B73756D3A20203078253032582FA3
:1005A000256C752E0000000000650000008F020021
:1005B00000B904000001090000AC1100009C2300F8
:1005C00000F22E00001632000078370000B8390023
:1005D00000CC3F0000B8450000D2480000B84E00F3
:1005E000001C5600003059000014610000766500C0
:1005F00000BC6C000090770000C0830000168700EC
:1006000000988B0000FA8F0000729400007A9C0022
:100610000090A100004CAB0000F4AE0000EAB60070
:100620000064BB0000A8C60000A8D600004EDD0094
:100630000070E300007CEB0000CAEE0000A6F500AD
:100640000006FE000072030100A40901008A1101E6
:1006500000E2170100E0200100942A0100782F0138
:100660000032370100C24601004A4F0100F2540136
:1006700000EA5C0100CC630100D2700100FE7A0147
:10068000005C85010034890100A09101001A9501E8
:100690000062A30100C0AF0100C0BE010090C00114
:1006A00000B4C801003ACB01001EE001009F010226
:1006B000001F170200A3470200B9730200D38F0284
:1006C0000079AB02004FBD02008BDB0200AB0003E0
:1006D000000B3303000B3303000B3303000B330316
:1006E000000B3303000B3303000B3303000B330306
:1006F000000B3303000B3303000B3303000B3303F6
:10070000000B3303000B3303000B3303000B3303E5
:10071000000B3303000B3303000B3303000B3303D5
:10072000000B3303000B3303000B3303000B3303C5
:10073000000B3303000B3303000B3303000B3303B5
:10074000000B3303000B3303000B3303000B3303A5
:10075000000B3303000B3303000B3303000B330395
:10076000000B3303000B3303000B3303000B330385
:10077000000B3303000B3303000B3303000B330375
:10078000000B3303000B3303000B3303000B330365
:1007900000345E0300E87B0300E87B0300E87B0392
:1007A00000E87B0300E87B0300E87B0300E87B03B1
:1007B00000E87B0300E87B0300E87B0300E87B03A1
:1007C00000E87B0300E87B0300E87B0300E87B0391
:1007D00000E87B0300E87B0300E87B0300E87B0381
:100DA00000E87B0300E87B0300E1A503007DC203AC
:100DB0000059DD030053FA0300432E04008A550452
:100DC000004D6C0400948404002499040070BA045B
:100DD000006CCB040074DB04000C0105000E1C0544
:100DE000008D3C0500056205000C87050005A9057E
:100DF00000E3C305002FDC0500DDF60500680F06E3
:100E000000680F0600680F0600680F0600680F06EE
:100E100000680F0600680F0600680F0600680F06DE
:100E200000680F0600680F0600680F0600680F06CE
:100E300000680F0600680F0600680F0600680F06BE
:100E400000680F0600680F0600680F0600680F06AE
:100E500000680F0600680F0600680F0600680F069E
:100E600000680F0600680F0600680F0600680F068E
:100E700000680F0600680F0600680F0600680F067E
:100E800000680F0600680F0600680F0600680F066E
:100E900000680F0600680F0600680F0600680F065E
:100EA00000680F0600680F0600680F0600680F064E
:100EB00000680F0600680F0600680F0600680F063E
:100EC00000680F0600680F0600680F0600680F062E
:100ED00000680F0600680F0600680F0600680F061E
:100EE00000680F0600680F0600680F0600680F060E
:100EF00000680F0600680F0600680F0600680F06FE
:100F000000680F0600680F0600680F0600680F06ED
:100F100000680F0600680F0600680F0600680F06DD
:100F200000680F0600680F0600680F0600680F06CD
:100F300000680F0600680F0600680F0600680F06BD
:100F400000680F0600680F0600680F0600680F06AD
:100F500000680F0600680F0600680F0600680F069D
:100F600000680F0600680F0600680F0600680F068D
:100F700000680F0600680F0600680F0600680F067D
:100F800000680F0600680F0600680F0600680F066D
:100F900000680F0600680F0600680F0600680F065D
:100FA00000680F0600680F060004280600D03C0603
:100FB00000D3680600F5840600419F0600EEB706E0
:100FC00000DCD1060021F206003E1A07004A300775
:100FD00000C2470700A870070048890700DE96078F
:100FE00000A6C6070008FD0700E4250800503108E8
:100FF00000F8720800F8A30800B4BF0800E8D80899
:101000000005F3080005F3080005F3080005F308E0
:101010000005F3080005F3080005F3080005F308D0
:101020000005F3080005F3080005F3080005F308C0
:101030000005F3080005F3080005F3080005F308B0
:101040000005F3080005F3080005F3080005F308A0
:101050000005F3080005F3080005F3080005F30890
:101060000005F3080005F3080005F3080005F30880
:101070000005F3080005F3080005F3080005F30870
:101080000005F3080005F3080005F3080005F30860
:101090000005F3080005F3080005F3080005F30850
:1010A0000005F3080005F3080005F3080005F30840
:1010B0000005F3080005F3080005F3080005F30830
:1010C0000005F3080005F3080005F3080005F30820
:1010D0000005F3080005F3080005F3080005F30810
:1010E0000005F3080005F3080005F3080005F30800
:1010F0000005F3080005F3080005F3080005F308F0
:101100000005F3080005F3080005F3080005F308DF
:101110000005F3080005F3080005F3080005F308CF
:101120000005F3080005F3080005F3080005F308BF
:101130000005F3080005F3080005F3080005F308AF
:101140000005F3080005F3080005F3080005F3089F
:101150000005F3080005F3080005F3080005F3088F
:101160000005F3080005F3080005F3080005F3087F
:101170000005F3080005F3080005F3080005F3086F
:101180000005F3080005F3080005F3080005F3085F
:101190000005F3080005F3080005F3080005F3084F
:1011A0000005F3080005F3080019FF0800271409DB
:1011B000002C4C09009B5E09001F730900898E09F1
:1011C00000A9AF0900C1D40900896B0A004DE00AEB
:1011D000008D0C0B00B9160B00F1550B00DD620BF6
:1011E00000F36F0B00F1B60B0005C40B00E8D00B49
:1011F00000CEDD0B00B8EA0B007BF70B00B7040C48
:1012000000F7110C00381F0C00572C0C003B390C58
:10121000002B460C0075530C0061600C00526D0CE5
:1012200000387A0C0044870C0036940C0020A10C86
:10123000000CAE0C00FEBA0C00EFC70C00DED40CA4
:1012400000EAE10C00D0EE0C00D0EE0C00D0EE0C69
:1012500000D0EE0C00D0EE0C00D0EE0C00D0EE0C66
:1012600000D0EE0C00D0EE0C00D0EE0C00D0EE0C56
:1012700000D0EE0C00D0EE0C00D0EE0C00D0EE0C46
:1012800000D0EE0C00D0EE0C00D0EE0C00D0EE0C36
:1012900000D0EE0C00D0EE0C00D0EE0C00D0EE0C26
:1012A00000D0EE0C00D0EE0C00D0EE0C00D0EE0C16
:1012B00000D0EE0C00D0EE0C00D0EE0C00D0EE0C06
:1012C00000D0EE0C00D0EE0C00D0EE0C00D0EE0CF6
:1012D00000D0EE0C00D0EE0C00D0EE0C00D0EE0CE6
:1012E00000D0EE0C00D0EE0C00D0EE0C00D0EE0CD6
:1012F00000D0EE0C00D0EE0C00D0EE0C00D0EE0CC6
:1013000000D0EE0C00D0EE0C00D0EE0C00D0EE0CB5
:1013100000D0EE0C00D0EE0C00D0EE0C00D0EE0CA5
:1013200000D0EE0C00D0EE0C00D0EE0C00D0EE0C95
:1013300000D0EE0C00D0EE0C00D0EE0C00D0EE0C85
:1013400000D0EE0C00D0EE0C00D0EE0C00D0EE0C75
:1013500000D0EE0C00D0EE0C00D0EE0C00D0EE0C65
:1013600000D0EE0C00D0EE0C00D0EE0C00D0EE0C55
:1013700000D0EE0C00D0EE0C00D0EE0C00D0EE0C45
:1013800000D0EE0C00D0EE0C00D0EE0C00D0EE0C35
:1013900000D0EE0C00D0EE0C00D0EE0C00D0EE0C25
:1013A00000D0EE0C00D0EE0C000A0B0D00C0200D9A
:1013B000007E360D00024F0D00566C0D006E810D43
:1013C0000083A40D000FC70D00A9E00D00BDFB0DAB
:1013D0000050170E00C8340E00664B0E0092650ECA
:1013E00000BE7D0E00CE900E0006AE0E009AC80E16
:1013F0000095E50E006EFD0E00DA100F00B6240F0A
:1014000000123E0F0085600F005D780F00658F0FA2
:1014100000FDA50F006BBC0F0075D40F00EDE70FAA
:1014200000EDE70F00EDE70F00EDE70F00EDE70F30
:1014300000EDE70F00EDE70F00EDE70F00EDE70F20
:1014400000EDE70F00EDE70F00EDE70F00EDE70F10
:1014500000EDE70F00EDE70F00EDE70F00EDE70F00
:1014600000EDE70F00EDE70F00EDE70F00EDE70FF0
:1014700000EDE70F00EDE70F00EDE70F00EDE70FE0
:1014800000EDE70F00EDE70F00EDE70F00EDE70FD0
:1014900000EDE70F00EDE70F00EDE70F00EDE70FC0
:1014A00000EDE70F00EDE70F00EDE70F00EDE70FB0
:1014B00000EDE70F00EDE70F00EDE70F00EDE70FA0
:1014C00000EDE70F00EDE70F00EDE70F00EDE70F90
:1014D00000EDE70F00EDE70F00EDE70F00EDE70F80
:1014E00000EDE70F00EDE70F00EDE70F00EDE70F70
:1014F00000EDE70F00EDE70F00EDE70F00EDE70F60
:1015000000EDE70F00EDE70F00EDE70F00EDE70F4F
:1015100000EDE70F00EDE70F00EDE70F00EDE70F3F
:1015200000EDE70F00EDE70F00EDE70F00EDE70F2F
:1015300000EDE70F00EDE70F00EDE70F00EDE70F1F
:1015400000EDE70F00EDE70F00EDE70F00EDE70F0F
:1015500000EDE70F00EDE70F00EDE70F00EDE70FFF
:1015600000EDE70F00EDE70F00EDE70F00EDE70FEF
:1015700000EDE70F00EDE70F00EDE70F00EDE70FDF
:1015800000EDE70F00EDE70F00EDE70F00EDE70FCF
:1015900000EDE70F00EDE70F00EDE70F00EDE70FBF
:1015A00000EDE70F00EDE70F008C02100088181027
:1015B00000A85C10008A7C1000929B100052B610AC
:1015C0000073D6100047EC1000410F1100ED2B11F5
:1015D00000714F1100BB6D110077891100DB9F1165
:1015E0000013B811007BD1110028F01100E2101295
:1015F00000BA25120020461200BE641200CD7F12F0
:1016000000319D1200FDBC1200AFDD12002BFA125A
:10161000000F151300CD2F1300CD2F1300CD2F1366
:1016200000CD2F1300CD2F1300CD2F1300CD2F137E
:1016300000CD2F1300CD2F1300CD2F1300CD2F136E
:1016400000CD2F1300CD2F1300CD2F1300CD2F135E
:1016500000CD2F1300CD2F1300CD2F1300CD2F134E
:1016600000CD2F1300CD2F1300CD2F1300CD2F133E
:1016700000CD2F1300CD2F1300CD2F1300CD2F132E
:1016800000CD2F1300CD2F1300CD2F1300CD2F131E
:1016900000CD2F1300CD2F1300CD2F1300CD2F130E
:1016A00000CD2F1300CD2F1300CD2F1300CD2F13FE
:1016B00000CD2F1300CD2F1300CD2F1300CD2F13EE
:1016C00000CD2F1300CD2F1300CD2F1300CD2F13DE
:1016D00000CD2F1300CD2F1300CD2F1300CD2F13CE
:1016E00000CD2F1300CD2F1300CD2F1300CD2F13BE
:1016F00000CD2F1300CD2F1300CD2F1300CD2F13AE
:1017000000CD2F1300CD2F1300CD2F1300CD2F139D
:1017100000CD2F1300CD2F1300CD2F1300CD2F138D
:1017200000CD2F1300CD2F1300CD2F1300CD2F137D
:1017300000CD2F1300CD2F1300CD2F1300CD2F136D
:1017400000CD2F1300CD2F1300CD2F1300CD2F135D
:1017500000CD2F1300CD2F1300CD2F1300CD2F134D
:1017600000CD2F1300CD2F1300CD2F1300CD2F133D
:1017700000CD2F1300CD2F1300CD2F1300CD2F132D
:1017800000CD2F1300CD2F1300CD2F1300CD2F131D
:1017900000CD2F1300CD2F1300CD2F1300CD2F130D
:1017A00000CD2F1300CD2F130071481300FD5E13E1
:1017B00000877913009F9313007FAD130099CA131C
:1017C0000028E613006BFD1300F01714007E31149F
:1017D000008A4C140020681400578314007C9F1466
:1017E0000051BC140081D0140061E5140042FA14C9
:1017F00000361915002D361500D1501500116A1547
:1018000000C1831500AD9B1500B5B9150096D21522
:101810000004EB150004EB150004EB150004EB15B8
:101820000004EB150004EB150004EB150004EB15A8
:101830000004EB150004EB150004EB150004EB1598
:101840000004EB150004EB150004EB150004EB1588
:101850000004EB150004EB150004EB150004EB1578
:101860000004EB150004EB150004EB150004EB1568
:101870000004EB150004EB150004EB150004EB1558
:101880000004EB150004EB150004EB150004EB1548
:101890000004EB150004EB150004EB150004EB1538
:1018A0000004EB150004EB150004EB150004EB1528
:1018B0000004EB150004EB150004EB150004EB1518
:1018C0000004EB150004EB150004EB150004EB1508
:1018D0000004EB150004EB150004EB150004EB15F8
:1018E0000004EB150004EB150004EB150004EB15E8
:1018F0000004EB150004EB150004EB150004EB15D8
:101900000004EB150004EB150004EB150004EB15C7
:101910000004EB150004EB150004EB150004EB15B7
:101920000004EB150004EB150004EB150004EB15A7
:101930000004EB150004EB150004EB150004EB1597
:101940000004EB150004EB150004EB150004EB1587
:101950000004EB150004EB150004EB150004EB1577
:101960000004EB150004EB150004EB150004EB1567
:101970000004EB150004EB150004EB150004EB1557
:101980000004EB150004EB150004EB150004EB1547
:101990000004EB150004EB150004EB150004EB1537
:1019A0000004EB150004EB150080021600E6221679
:1019B00000BE3E16005E4F1600B86C1600A88C16CE
:1019C0000050A7160005C7160039E91600270617AC
:1019D00000DF221700AA441700016217005981177F
:1019E00000AAA7170056C8170032DB1700FEF2172F
:1019F0000086061800A3221800243D1800FD541884
:101A000000B1721800339118005F4419003B5E1951
:101A1000002D7C19002D7C19002D7C19002D7C19BE
:101A2000002D7C19002D7C1900EB0C1A00C74D1CF1
:101A3000006B9C1D0049D01E0001042000C3F5204E
:101A400000DBD62200B1F623007139260059442864
:101A500000FD4B2A0099E42A00F9AD2C0093E62DF5
:101A60000093DD2E00DD773000A9463100F1C03152
:101A700000270332002F7432001DCA3200D78C3386
:101A8000008D233400A9853400A9853400A985344C
:101A900000A9853400A9853400A9853400A98534BE
:101AA00000A9853400A9853400A9853400A98534AE
:101AB00000A9853400A9853400A9853400A985349E
:101AC00000A9853400A9853400A9853400A985348E
:101AD00000A9853400A9853400A9853400A985347E
:101AE00000A9853400A9853400A9853400A985346E
:101AF00000A9853400A9853400A9853400A985345E
:101B000000A9853400A9853400A9853400A985344D
:101B100000A9853400A9853400A9853400A985343D
:101B200000A9853400A9853400A9853400A985342D
:101B300000A9853400A9853400A9853400A985341D
:101B400000A9853400A9853400A9853400A985340D
:101B500000A9853400A9853400A9853400A98534FD
:101B600000A9853400A9853400A9853400A98534ED
:101B700000A9853400A9853400A9853400A98534DD
:101B800000A9853400A9853400A9853400A98534CD
:101B900000A9853400A9853400A9853400A98534BD
:101BA00000A9853400A9853400A9853400A98534AD
:101BB00000A9853400A9853400A9853400A985349D
:101BC00000A9853400A9853400A9853400A985348D
:101BD00000A9853400A9853400A9853400A985347D
:101BE00000A9853400A9853400A9853400A985346D
:101BF00000A9853400A9853400A9853400A985345D
:101C000000A9853400A9853400A9853400A985344C
:101C100000A9853400A9853400A9853400A985343C
:101C200000A9853400A9853400F39A3400F39A346E
:101C300000F39A3400F39A3400F39A3400F39A34A0
:101C400000F39A3400F39A3400F39A3400F39A3490
:101C500000F39A3400F39A3400F39A3400F39A3480
:101C600000F39A3400F39A3400F39A3400F39A3470
:101C700000F39A3400F39A3400F39A3400F39A3460
:101C800000F39A3400F39A3400F39A3400F39A3450
:101C900000F39A3400F39A3400F39A3400F39A3440
:101CA00000F39A3400F39A3400F39A3400F39A3430
:101CB00000F39A3400F39A3400F39A3400F39A3420
:101CC00000F39A3400F39A3400F39A3400F39A3410
:101CD00000F39A3400F39A3400F39A3400F39A3400
:101CE00000F39A3400F39A3400F39A3400F39A34F0
:101CF00000F39A3400F39A3400F39A3400F39A34E0
:101D000000F39A3400F39A3400F39A3400F39A34CF
:101D100000F39A3400F39A3400F39A3400F39A34BF
:101D200000F39A3400F39A3400F39A3400F39A34AF
:101D300000F39A3400F39A3400F39A3400F39A349F
:101D400000F39A3400F39A3400F39A3400F39A348F
:101D500000F39A3400F39A3400F39A3400F39A347F
:101D600000F39A3400F39A3400F39A3400F39A346F
:101D700000F39A3400F39A3400F39A3400F39A345F
:101D800000F39A3400F39A3400F39A3400F39A344F
:101D900000F39A3400F39A3400F39A3400F39A343F
:101DA00000F39A3400F39A340025732F0025730052
:101DB00025732573004572726F72206F70656E6EA9
:101DC000696E6720524F4D2066696C6500457272DE
:101DD0006F7220696E206D656D20706F73202564B1
:101DE000004572726F722072656164696E6720636C
:101DF0006F6D6D616E64004572726F722072656105
:101E000064696E67207265676973746572004572F4
:101E1000726F722072656164696E672076616C759D
:101E20006500504547202825303458292067726FB7
:101E30007570203120696E737472756374696F6E8A
:101E4000206E6F7420737570706F727465640050CB
:101E50004547202825303458292067726F75702037
:101E60003320696E737472756374696F6E206E6F60
:101E70007420737570706F72746564005045473AD2
:101E80002048414C5420416464723A2025687520F2
:101E90005448524541443A202568752000637572C4
:101EA00072656E7420646972203D20222573220DB4
:101EB0000022257322206973206E6F7420612064D4
:101EC00069720D00646972202225732220646F6597
:101ED00073206E6F74206578697374730D0065727A
:101EE000726F72206F70656E6E696E672025730069
:101EF00063616E206E6F7420637265617465206427
:101F0000697220222573220D0063616E206E6F744A
:101F10002072656D6F7665206469720D0063616E75
:101F2000206E6F742072656E616D652066696C65E8
:101F300020257320746F2025730063616E206E6FFF
:101F4000742072656E616D652066696C652025730D
:101F500020746F202573007374617475733D256858
:101F60007500693D256C75006673697A65323D259B
:101F70007500693D25642073697A653D25640069B3
:101F800069696969690063616E2774206F70656EA5
:101F9000206C6F61642066696C65006572726F7297
:101FA000206F70656E6E696E6720257300434C4F1D
:101FB00053450073656E64696E672066696C6500E1
:101FC00073656E64696E672066696C650065727220
:101FD0006F72206F70656E6E696E67202573006387
:101FE000616E2774206F70656E206C6F616420666F
:101FF000696C6500322E204E414D453D2025732CE5
:1020000020504F533D256C752C2053495A453D2592
:10201000750025732E5000312E204E414D453D2038
:1020200025732C20504F533D256C752C2053495A55
:10203000453D25750031002573253033640063610B
:102040006E277420736176652066696C6500546F35
:1020500074616C202564206469722873292C202502
:10206000642066696C65287329200D00252D3234A3
:10207000732025376C750D0025730D00646972207F
:102080006F6620222573257322206973200D00645A
:102090006972206F70656E206661696C65640065A9
:1020A00072726F72206F70656E6E696E6720257335
:1020B0000025732573006572726F72206F70656EF4
:1020C0006E696E6720257300252D32347320253705
:1020D0006C750D006572726F72206F70656E6E693F
:1020E0006E67202573006572726F72206F70656E67
:1020F0006E696E67202573006572726F72206F7053
:10210000656E6E696E6720257300646972206F6664
:1021100020222573257322206973200D005344204B
:1021200073697A6520256C75204B42200D46524517
:102130004520256C75204B4200646972206F662033
:10214000222573257322206973200D006469722093
:102150006F70656E206661696C6564002573257318
:10216000000F0F0F0F0F0F0F0F770F760F0F760F58
:102170000F0F0F0F0F0F0F0F0F0F0F0F0F0F0F0F6F
:102180000F000F0B0F0D0F0F0F101117151A161B45
:10219000181C1D1E1F2021222324250E1913141282
:1021A0000F0F262728292A2B2C2D2E2F30313233A2
:1021B0003435363738393A3B3C3D3E3F0F0F0F0F31
:1021C0000F0F262728292A2B2C2D2E2F3031323382
:1021D0003435363738393A3B3C3D3E3F0F0F0F0F11
:1021E0000F0F0F0F0F0F0F0F0F0F0F0F0F0F0F0FFF
:1021F0000F0F0F0F0F0F0F0F0F0F0F0F0F0F0F0FEF
:102200000F0F0F0F0F0F0F0F0F0F0F0F0F0F0F0FDE
:102210000F0F0F0F0F0F0F0F0F0F0F0F0F0F0F0FCE
:102220000F0F0F0F0F0F0F0F0F0F0F0F0F0F0F0FBE
:102230000F0F0F0F0F0F0F0F0F0F0F0F0F0F0F0FAE
:102240000F0F0F0F0F0F0F0F0F0F0F0F0F0F0F0F9E
:102250000F0F0F0F0F0F0F0F0F0F0F0F0F0F0F0F8E
:10226000FF100011001200130014001500170018D1
:10227000001A001B001D001F00210023002500275D
:102280000029002B002E003100340037003A003EB8
:10229000004100450049004D00520057005C0062BB
:1022A0000068006E0075007C0083008B0093009C2A
:1022B00000A500AF00B900C400D000DC00E900F7C1
:1022C0000006011501260137014A015D01720188EE
:1022D000019F01B801D201EE010B022A024B026EEE
:1022E000029302BA02E40210033F037003A403DC6A
:1022F00003170455049704DD0427057505C8052058
:10230000067D06E0064907B8072D08A9082D09B97A
:10231000094D0AEA0A900B400CFA0CC00D910E6FA1
:102320000F5A1053115B1272139A14D31520178091
:1023300018F519801B231DDE1EB420A522B524E448
:10234000263429A72B3F2EFF30E9330037453ABC0E
:102350003D5045473A20616464723D2568752C6C98
:10236000656E3D2568750063616E2774206F70652A
:102370006E206C6F61642066696C65002573253082
:10238000336400203F3F3F3F3F3F3F3F3F3F2226D8
:10239000243A3F28293E3C3D2B2D2A2F3B2C2E3022
:1023A0003132333435363738394142434445464774
:1023B00048494A4B4C4D4E4F505152535455565725
:1023C00058595A3F3F3F3F3F3F3F3F3F3F3F3F3FCF
:1023D0003F3F3F3F3F3F3F3F3F3F3F3F3F3F3F3F0D
:1023E0003F3F3F3F3F3F3F3F3F3F3F3F3F3F3F3FFD
:1023F0003F3F3F3F3F3F3F3F3F3F3F3F3F3F3F3FED
:102400003F3F3F203F3F3F3F3F3F3F3F3F3F222631
:10241000243A3F28293E3C3D2B2D2A2F3B2C2E30A1
:1024200031323334353637383941424344454647F3
:1024300048494A4B4C4D4E4F5051525354555657A4
:1024400058595A0F0F0F0F0F0F0F0F0F0F0F0F0FBE
:102450000F0F0F0F0F0F0F0F0F0F0F0F0F0F0F0F8C
:102460000F0F200F0F0F0F0F0F0F0F0F0F0F0F0F6B
:102470000F0F0F0F0F0F0F0F0F0F0F0F0F0F0F0F6C
:102480000F0F0F436F6D6D616E64206E6F7420725D
:1024900065636F676E697A65643A202573005652EA
:1024A0004546206973206E6F742070726573656E87
:1024B000742E20506C656173652C20636865636BB6
:1024C00020746865206361626C652E000D0A5200FD
:1024D000585356460025732E4552524F52004572AE
:1024E000726F720025732E444F4E4500446F6E6527
:1024F0000025732E50524F434553530025732E45EC
:1025000052524F520025732E444F4E450050726F69
:102510006772616D6D696E672043504C442E2E2E9C
:102520000025732E5853564600253032782000255A
:10253000303458200042414E4B3A25303258204129
:102540004C3A2530325820503A256C752053503A79
:10255000256C752053697A653A25642045503A25E3
:102560006C752000556E6B6E6F776E20636F6D6DAE
:10257000616E643A20256400414654455220434F21
:102580004D4D414E443D256400434F4D4D414E4419
:102590003D2564005265717565737465642044520D
:1025A0002073697A652028256C7520626974732907
:1025B0002069732067726561746572207468616E4A
:1025C00020746865206D6178696D756D2063686140
:1025D000696E2073697A6520737570706F727465A7
:1025E0006420627920746869732070726F67726109
:1025F0006D6D6572202825642062697473292E0030
:10260000556E696D706C656D656E74656420696E7C
:10261000737472756374696F6E3A2025732830780D
:10262000253032582900556E6B6E6F776E20696EBB
:10263000737472756374696F6E0020002062697430
:1026400073002F00214C6173742054444F3A0050A2
:10265000726F63657373656420256420696E73749B
:1026600072756374696F6E732E002A2A2A2A2A2AC9
:102670002A2A2A2A2A2A2A2A2A2A2A2A2A2A2A2ABA
:102680002A2A2A2A2A2A2A004661696C757265203C
:10269000617420696E737472756374696F6E202340
:1026A000253564002A2A2A2A2A2A2A2A2A2A2A2A74
:1026B0002A2A2A2A2A2A2A2A2A2A2A2A2A2A2A2A7A
:1026C0002A002A2A2A2A2A2A2A2A0053756363659D
:1026D000737321002A2A2A2A2A2A2A2A002100631F
:1026E0006F756E743A20256C642C20746872657363
:1026F000686F6C643A2025642C206D6F643A202545
:102700006C642C20617661696C3A20256400536505
:102710007269616C20706F72742074696D656F7579
:10272000742100554E4B4E4F574E5F535441544504
:1027300000445220636865636B206661696C656460
:10274000210000002200250028002B002E0031006F
:10275000340002010000050108010B010000210006
:10276000240027002A002D00300033000101000062
:10277000040107010A01534420696E697469616CA0
:10278000697A6174696F6E20646F6E652E005344C0
:1027900020696E697469616C697A6174696F6E2011
:1027A0006661696C65642100534420616C726561E7
:1027B000647920696E697469616C697A65642E0058
:1027C000564F49434520454D554C41544F522042A8
:1027D0006567696E007265736574696E67205A3843
:1027E0003000436C6F636B3A20256400494E4954B6
:1027F000006D61746368005432206E616D653D2523
:102800007320706F733D256C752073697A653D2563
:102810007500543100000020002300260029002C00
:10282000002F00320000010000030106010901052C
:10283000050505070508080808020202020A0A0839
:10284000080404040401010101010101010303035F
:102850000303030303040707070C0C0C0C0C0C0CFC
:102860000C0202020206060606060606060B0B0B03
:102870000B0B0B0B0B01021020200808102040103E
:102880002040800201020108040201010204081034
:102890002040808040201008040201800402018052
:1028A000402010080402010804020101020408107B
:1028B000204080010204081020408000000A0B0222
:1028C000090C0D0E080703040100000000000000C1
:1028D00000000000000000000000000000000000F8
:1028E00000000000000000121110000000000000B5
:1028F00000000000000000000000000000000000D8
:10290000002C000D0A5100007786E78C11241FBEB1
:10291000CFEFD1E2DEBFCDBF00E00CBF15E0A0E0FD
:10292000B2E0ECEDF9E201E00BBF02C007900D92BE
:10293000A433B107D9F726E1A4E3B5E001C01D92A5
:10294000AB32B207E1F714E1C5E8D4E100E006C01C
:1029500021970109802FFE010E94B893C438D10746
:1029600080E00807A9F70E94FC860C94DC940C9484
:102970000000653048F470E0660F771F680F791F1C
:10298000FB018181928108956B3048F470E0660FFD
:10299000771F680F791FFB018481958108956D3041
:1029A00049F070E0660F771F680F791FFB01868181
:1029B0009781089590E080E008952091280130915A
:1029C000290150E040E02F5F3F4F4F4F5F4F60E0E5
:1029D00074E284EF90E00E941992CA01B90108954F
:1029E000AF92BF92CF92DF92EF92FF920F931F931D
:1029F000CF93DF936C017B018B01040F151FEB015B
:102A00005E01AE18BF08C017D10759F06991D60111
:102A1000ED91FC910190F081E02DC6011995892B73
:102A200079F7C501DF91CF911F910F91FF90EF9042
:102A3000DF90CF90BF90AF900895FC01538D448DEF
:102A4000252F30E0842F90E0821B930B541710F059
:102A5000CF96089501970895FC01918D828D981766
:102A600061F0A28DAE0FBF2FB11D5D968C91928D3E
:102A70009F5F9F73928F90E008958FEF9FEF08956F
:102A8000FC01918D828D981731F0828DE80FF11D38
:102A9000858D90E008958FEF9FEF0895FC01918D53
:102AA000228D892F90E0805C9F4F821B91098F734C
:102AB0009927089582EC91E10E944E1521E0892B1F
:102AC00009F420E0822F0895FC01A48DA80FB92FEE
:102AD000B11DA35ABF4F2C91848D90E001968F7346
:102AE0009927848FA689B7892C93A089B1898C9165
:102AF000837080648C93938D848D981306C00288B4
:102B0000F389E02D80818F7D80830895EF92FF927D
:102B10000F931F93CF93DF93EC0181E0888F9B8D00
:102B20008C8D98131AC0E889F989808185FF15C0BA
:102B30009FB7F894EE89FF896083E889F9898081DD
:102B40008370806480839FBF81E090E0DF91CF91AC
:102B50001F910F91FF90EF900895F62E0B8D10E0CE
:102B60000F5F1F4F0F731127E02E8C8D8E110CC03D
:102B70000FB607FCFACFE889F989808185FFF5CF88
:102B8000CE010E946415F1CFEB8DEC0FFD2FF11DEE
:102B9000E35AFF4FF0829FB7F8940B8FEA89FB89C5
:102BA00080818062CFCF0F931F93CF93DF938C01EF
:102BB000D0E0C0E0F801EC0FFD1F6491662341F006
:102BC00082EC91E10E948615892B11F02196F2CFBB
:102BD000CE01DF91CF911F910F910895CF93DF9395
:102BE000EC01888D8823B9F0AA89BB89E889F98925
:102BF0008C9185FD03C0808186FD0DC00FB607FC5A
:102C0000F7CF8C9185FFF2CF808185FFEDCFCE018C
:102C10000E946415E9CFDF91CF91089580E090E0A4
:102C2000892B29F00E945A1581110E94000080E032
:102C300090E0892B49F080E090E0892B29F00E94F8
:102C4000000081110E94000080E090E0892B49F093
:102C500080E090E0892B29F00E94000081110E9401
:102C6000000080E090E0892B49F080E090E0892B23
:102C700029F00E94000081110C94000008958150F9
:102C8000823108F05AC0E82FF0E08827E55BF94E62
:102C90008F4F0C94B8936B166F165D1663166716FC
:102CA0009D16721678167C16821686168A1690164F
:102CB00094169D1698169E16A216809180008F7706
:102CC000809380000895809180008F7DF9CF80915E
:102CD0008000877FF5CF84B58F7784BD089584B554
:102CE0008F7DFBCF8091B0008F778093B0000895E7
:102CF0008091B0008F7DF9CF809190008F77809385
:102D000090000895809190008F7DF9CF8091900080
:102D1000877FF5CF8091A0008F778093A0000895E2
:102D20008091A0008F7DF9CF8091A000877FF5CFA3
:102D3000809120018F778093200108958091200158
:102D40008F7DF9CF80912001877FF5CFCF93DF93DF
:102D5000EEECF8E28491E8E8F8E2D491E2E4F8E2FB
:102D6000C491CC23A1F081110E943F16EC2FF0E01A
:102D7000EE0FFF1FEB5EF74DA591B491EC91ED23A3
:102D800081E090E009F480E0DF91CF91089580E048
:102D900090E0FACF1F93CF93DF93282F30E0F90113
:102DA000E554F74D8491F901EB58F74DD491F901B1
:102DB000E15DF74DC491CC23A9F0162F81110E943B
:102DC0003F16EC2FF0E0EE0FFF1FEE5BF84DA591E4
:102DD000B4918FB7F894EC91111108C0D095DE230F
:102DE000DC938FBFDF91CF911F910895DE2BF8CF39
:102DF000CF93DF9390E0FC01EB58F74D2491815D78
:102E0000974DFC0184918823C9F090E0880F991FA9
:102E1000FC01E45AF84DA591B491FC01EE5BF84D2C
:102E2000C591D49161110DC09FB7F8948C912095F4
:102E300082238C938881282328839FBFDF91CF91A1
:102E40000895623051F49FB7F8943C91822F809599
:102E500083238C93E8812E2BEFCF8FB7F894EC91DE
:102E60002E2B2C938FBFEACF1F93CF93DF93182F76
:102E7000EB0161E00E94F816209739F460E0812FA1
:102E8000DF91CF911F910C94CA16CF3FD10511F459
:102E900061E0F5CFE12FF0E0E554F74DE491E1502A
:102EA000E23108F0B3C0F0E08827E65AF84E8F4FC1
:102EB0000C94B8936C177417791783178D1706182D
:102EC00097179F17A717B117BB17C517D417DE178A
:102ED0000618E817F217FC1784B5806884BDC7BDD3
:102EE000DF91CF911F91089584B5806284BDC8BDE4
:102EF000F7CF80918000806880938000D093890014
:102F0000C0938800EDCF8091800080628093800024
:102F1000D0938B00C0938A00E3CF809180008860BB
:102F200080938000D0938D00C0938C00D9CF809186
:102F3000B00080688093B000C093B300D1CF80917F
:102F4000B00080628093B000C093B400C9CF80917C
:102F50009000806880939000D0939900C09398006F
:102F6000BFCF80919000806280939000D0939B00AF
:102F7000C0939A00B5CF80919000886080939000B4
:102F8000D0939D00C0939C00ABCF8091A00080683F
:102F90008093A0008091A0008F7B8093A000D093AD
:102FA000A900C093A8009CCF8091A000806280936C
:102FB000A000D093AB00C093AA0092CF8091A00054
:102FC00088608093A000D093AD00C093AC0088CF00
:102FD00080912001806880932001D0932901C093C3
:102FE00028017ECF80912001806280932001D093C0
:102FF0002B01C0932A0174CF8091200188608093B7
:103000002001D0932D01C0932C016ACFC038D10587
:103010000CF03ECF33CF3FB7F8948091630E909180
:10302000640EA091650EB091660E26B5A89B05C0F2
:103030002F3F19F00196A11DB11D3FBFBA2FA92F37
:10304000982F8827BC01CD01620F711D811D911D34
:1030500042E0660F771F881F991F4A95D1F70895A0
:103060008F929F92AF92BF92CF92DF92EF92FF9298
:103070004B015C010E940B186B017C010E940B1834
:103080006C197D098E099F09683E73408105910581
:10309000A8F321E0821A9108A108B10888EEC80EB1
:1030A00083E0D81EE11CF11C81149104A104B10439
:1030B00029F7FF90EF90DF90CF90BF90AF909F9057
:1030C0008F9008952FB7F89460915F0E7091600E05
:1030D0008091610E9091620E2FBF0895089508951A
:1030E00081E0089580E0089508958F929F92AF92B5
:1030F000BF92CF92DF92EF92FF92CF93DF93EC01DA
:103100006A017B010E940B184B015C018C0C9D1C19
:10311000AE1CBF1C81E0C81AD108E108F108AFEF6E
:10312000CA16DA06EA06FA0651F08A819B81DC01AA
:10313000ED91FC910480F581E02D1995EBCF0E9473
:103140000B18681579058A059B0550F48A819B81C7
:10315000DC01ED91FC910480F581E02D1995EFCF14
:10316000DF91CF91FF90EF90DF90CF90BF90AF9025
:103170009F908F9008951F93CF93DF93EC01162FAC
:103180008A819B81DC01ED91FC916623F9F000843A
:10319000F185E02D19958A819B81DC01ED91FC91EF
:1031A0000480F581E02D1995EC81F0E0EA5FFB4F9A
:1031B0008081112379F090E024E0959587952A95F8
:1031C000E1F78C83DF91CF911F9108950284F385FD
:1031D000E02DE0CF8F70F5CF2F923F924F925F920C
:1031E0006F927F928F929F92AF92BF92CF92DF9217
:1031F000EF92FF920F931F93CF93DF9300D000D0F5
:1032000000D0CDB7DEB79987888748015901EF8292
:103210007901680127E0C20ED11CE11CF11CE3E03A
:10322000F694E794D794C794EA95D1F71A012C0C39
:103230003D1CCB018C0D9D1D9C838B83412C512CFF
:1032400032014C145D046E047F0409F481C0AB812B
:10325000BC81EE91BC83AB83E983F1E08F1A9108C6
:10326000A108B10810E000E01A822FEF8216920642
:10327000A206B20609F45BC081149104A104B10452
:1032800001F52F812223E9F0A885B98512968D9149
:103290009C91DC01ED91FC910084F185E02D199564
:1032A000A885B9851496EC911497F0E0EA5FFB4F7E
:1032B000808190E034E0959587953A95E1F71496F2
:1032C0008C93F981EF2FF0E0FE83ED83A885B9851B
:1032D00012968D919C91DC01ED91FC91B981B0FF2A
:1032E00033C00484F585E02D19958D819E819595D7
:1032F00087958983E885F98582819381DC01ED9149
:10330000FC910680F781E02D1995002E01C0880FF1
:103310000A94EAF7BA81B82BBA830F5F1F4FD50121
:10332000C4010197A109B1090830110551F4D10177
:10333000EA81EE931D01FFEF4F1A5F0A6F0A7F0AC1
:1033400080CF4C015D0191CF0684F785E02DCCCF75
:1033500029960FB6F894DEBF0FBECDBFDF91CF9197
:103360001F910F91FF90EF90DF90CF90BF90AF90A3
:103370009F908F907F906F905F904F903F902F9095
:103380000895FC0180A1882361F1848D863308F0C3
:10339000865320917B00982F9870277F922B9093D3
:1033A0007B008770806480937C0080917A008064C9
:1033B00080937A0080917A0086FDFCCF909178000E
:1033C0008091790089279827892745E0489F9001B7
:1033D000499F300D112481E02E3F37404CF480E0AE
:1033E00007C0A68DB78D9C91828D982381E0B9F39B
:1033F00008950895DC011496ED91FC911597908144
:103400008C91892B8083089508960C94FA19029662
:103410000C94FA19DC011496ED91FC9115979081AA
:103420008C91809589238083089508960C940A1ABC
:1034300002960C940A1ACF93DF93EC01862F6A83CD
:1034400091E09B83262F30E0F901EB58F74DE49192
:10345000E883F901E15DF74DE491E98361E00E94C1
:10346000F816E981F0E0EE0FFF1FEE5BF84D859155
:1034700094919D838C83DF91CF910895CF93DF93B7
:10348000EC01862F6A8392E09B83262F30E0F901BE
:10349000EB58F74DE491E883F901E15DF74DE491D4
:1034A000E98362E00E94F816E981F0E0EE0FFF1F69
:1034B000EB5EF74D859194919D838C83DF91CF9145
:1034C00008958EBD00000DB407FEFDCF8EB50895A2
:1034D000FC01928183819CBD8DBD81E0878360E08A
:1034E00085810E94CA168FEF0C94611A8FEF0C949D
:1034F000611ACF93DF93EC010E946218C60FD71FA9
:103500000E94761A8F3F59F00E946218CE01861BE6
:10351000970B97FFF5CF80E0DF91CF91089581E081
:10352000FBCFCF93DF93FC012781222349F0EC01ED
:1035300061E085810E94CA168FEF0E94611A1F8286
:10354000DF91CF9108951F93CF93DF93EC0188E52E
:1035500092E00E94791A182F882361F08DEF0E9463
:10356000611ACE010E94911A1886812FDF91CF91A6
:103570001F9108958FE18E83CE010E94911AF5CF9D
:103580000F931F93CF93DF938C01862FEA010E9444
:10359000611AFE0181918EBDDE5FEC17FD0741F0DF
:1035A0008191000000000DB407FEFDCF8EBDF5CF68
:1035B0000DB407FEFDCF8FEF0E94611A8FEF0E94BE
:1035C000611A0E94761AF80181878F71853059F04F
:1035D00081E28683C8010E94911A80E0DF91CF9139
:1035E0001F910F91089581E0F9CFCF92DF92EF9272
:1035F000FF920F931F93CF93DF93EC018B017A011E
:103600000E9462186B0124EDC21A2EEFD20A0E94AA
:10361000761A89878F3FB1F40E946218C601861B13
:10362000970B97FFF4CF8EE18E83CE010E94911A03
:1036300080E0DF91CF911F910F91FF90EF90DF908D
:10364000CF9008958E3F11F089E1EECF8FEF8EBDC0
:10365000F801C7013FEF019749F0000000000DB4E9
:1036600007FEFDCF2EB53EBD2193F5CF81E0E81AD0
:10367000F1080E0D1F1D0DB407FEFDCF8EB5F8012C
:10368000808319860E94761A0E94761A81E0D1CF33
:10369000DF92EF92FF920F931F93CF93DF93EC0192
:1036A000162F022FF32EE42ED52E0E941E208823E3
:1036B000D1F18F81811103C0CE010E94681A1111CE
:1036C0002AC0812F80640E94611A8D2D0E94611A88
:1036D0008E2D0E94611A8F2D0E94611A802F0E94E8
:1036E000611A87E8111101C085E90E94611A0E94E0
:1036F000761A0AE010E00E94761A898787FF03C0D5
:1037000001501109C1F7DF91CF911F910F91FF90E7
:10371000EF90DF9008951C30A1F28CE291E00E94BE
:10372000791A8111CECF8FEFEECF8F929F92AF9209
:10373000BF92CF92DF92EF92FF920F931F93CF939E
:10374000DF93EC014A015B0169018885823049F40D
:103750008B859C85AD85BE8588159905AA05BB0519
:1037600059F18A85A5019401833039F089E0220F4F
:10377000331F441F551F8A95D1F769E1CE010E947E
:10378000481B882399F08EE08E83CE010E94911A07
:1037900080E0DF91CF911F910F91FF90EF90DF902C
:1037A000CF90BF90AF909F908F90089582E08887D0
:1037B0008B869C86AD86BE86F12CE12CE016F10648
:1037C000A9F088E592E00E94791A811102C085E291
:1037D000DBCFA6016CEFCE010E94C01A8823A9F2AC
:1037E0008FEFE81AF80A8EEFD81AE8CF8B859C8500
:1037F000AD85BE858E0D9F1DA11DB11D8B879C873C
:10380000AD87BE878F858111C4CFCE01DF91CF9167
:103810001F910F91FF90EF90DF90CF90BF90AF90EE
:103820009F908F900C94A31AEF92FF920F931F9387
:10383000CF93DF93EC0179011F85112369F001E03B
:1038400010E00E94951B182F812FDF91CF911F91BF
:103850000F91FF90EF9008958A85833039F089E0C9
:10386000440F551F661F771F8A95D1F79A01AB0148
:1038700068E1CE010E94481B882331F08DE08E83E1
:10388000CE010E94911AE0CFA7016EEFCE010E94F7
:10389000C01A8823A9F388E592E00E94791A082FBC
:1038A00084E2002361F320E030E0A9016DE0CE0165
:1038B0000E94481B882311F08AE0E1CF0E94761A0B
:1038C0008111FACFCE010E94911A102FBDCFEF9235
:1038D000FF921F93CF93DF93FC01208111E020FF23
:1038E00012C0EC017C01FBE0EF0EF11C4F8158850A
:1038F00069857A85970189819A810E94141C182F05
:10390000811108C010E0812FDF91CF911F91FF90AE
:10391000EF900895888181FD04C088818E7F88831F
:10392000F2CF4F81588569857A858B819C81AD81E5
:10393000BE81480F591F6A1F7B1F970189819A8199
:103940000E94141C8111E9CFDDCF0F931F93CF93F9
:10395000DF93CDB7DEB760970FB6F894DEBF0FBE2A
:10396000CDBF8C0120E030E0A90169E00E94481B36
:10397000882351F08CE1F8018683C8010E94911AD6
:1039800060E070E0CB015EC040E150E0BE016F5FDF
:103990007F4FC8010E94F51A882379F3C8010E945D
:1039A000911A8981829586958695837009F055C014
:1039B0006F8170E090E080E03AE0660F771F881F2B
:1039C000991F3A95D1F766277C7088279927098532
:1039D00010E046E0159507954A95E1F7012E000C99
:1039E000220B330B062B172B282B392B888590E0C5
:1039F000B0E0A0E0BC01CD0152E0660F771F881F48
:103A0000991F5A95D1F7602B712B822B932B6F5FE7
:103A10007F4F8F4F9F4F2A85220F322F36702B8575
:103A2000221F2227221F232B3E813F70230F332783
:103A3000331F2750310904C0660F771F881F991F55
:103A40002A95D2F760960FB6F894DEBF0FBECDBFB1
:103A5000DF91CF911F910F910895813009F090CFA0
:103A60006885062F10E030E020E09801112700273C
:103A7000002711272F73332789859A85982789274F
:103A80009827B0E0A0E0BC01CD01602B712B822B08
:103A9000932B6F5F7F4F8F4F9F4F2AE0660F771FEB
:103AA000881F991F2A95D1F7CDCFCF93DF93EC01D3
:103AB000188620E030E0A9016CE00E94481B8823B2
:103AC00049F089E08E83CE010E94911A80E0DF9157
:103AD000CF910895CE010E94911A81E0F8CF8F9284
:103AE0009F92AF92BF92CF92DF92EF92FF920F938D
:103AF0001F93CF93DF93EC014A015B016901888535
:103B0000813049F48B859C85AD85BE8588159905E6
:103B1000AA05BB0559F18A85A5019401833039F0C6
:103B200089E0220F331F441F551F8A95D1F762E1A8
:103B3000CE010E94481B882399F08CE08E83CE0131
:103B40000E94911A80E0DF91CF911F910F91FF9019
:103B5000EF90DF90CF90BF90AF909F908F9008959F
:103B600081E088878B869C86AD86BE86F12CE12C11
:103B7000E016F10671F040E052E0B601CE010E947D
:103B8000F51A882301F38FEFE81AF80A8EEFD81A96
:103B9000EFCF8B859C85AD85BE858E0D9F1DA11DAC
:103BA000B11D8B879C87AD87BE878F858111CBCF59
:103BB000CE01DF91CF911F910F91FF90EF90DF9099
:103BC000CF90BF90AF909F908F900C94551D8F9287
:103BD0009F92AF92BF92FF920F931F93CF93DF9369
:103BE000DC011196ED91FC91EF2B61F490E080E007
:103BF000DF91CF911F910F91FF90BF90AF909F9059
:103C00008F900895F22E4A015B01EC018F81988517
:103C1000A985BA8588159905AA05BB0561F0CE016D
:103C20000E94671C882311F3F2FE0DC018828F8258
:103C30009886A986BA862F2D2370F880F22AF882FA
:103C4000CE010B96D5CF01E010E09E01255F3F4FDE
:103C5000B501A40189819A810E946F1D8111E6CF6F
:103C6000C5CF2F923F924F925F926F927F928F9229
:103C70009F92AF92BF92CF92DF92EF92FF921F93EB
:103C8000CF93DF9300D000D000D01F92CDB7DEB726
:103C90009A87898749835A836B837C836A017B0176
:103CA00022E0C21AD108E108F108452B462B472B28
:103CB00041F4E985FA85E55FFD4FC080D180E2805F
:103CC000F38089859A85855E9D4F98878F83FC0157
:103CD00080819181A281B381C816D906EA06FB06CC
:103CE00018F0C12CD12C7601D701C60143E0B6955E
:103CF000A795979587954A95D1F71C01F1E03F224A
:103D000011E0C6018770992701C0110F8A95EAF763
:103D1000260137014601570129853A85295E3D4F25
:103D20003E832D83ED81FE8180819181A281B381CB
:103D3000B501A4013CE076956795579547953A956E
:103D4000D1F7480F591F6A1F7B1F20E089859A858C
:103D50000E94E71D009709F472C0FC01E20DF31DFB
:103D60002081FFEF8F1A9F0AAF0ABF0A322F31233B
:103D7000D1F5B501A4014419550966097709413007
:103D800051056105710589F589819A81AB81BC81F5
:103D9000892B8A2B8B2B49F4A985BA85A55FBD4F4A
:103DA000FD014082518262827382C301B2016E5F63
:103DB0007F4F8F4F9F4F2A960FB6F894DEBF0FBEEE
:103DC000CDBFDF91CF911F91FF90EF90DF90CF900B
:103DD000BF90AF909F908F907F906F905F904F902B
:103DE0003F902F90089524013501C814D904EA04A6
:103DF000FB0449F1AF81B8854D915D916D917C9146
:103E000084169506A606B70680F4110F09F0A9CF0F
:103E100091012F5F3F4F312C212C11E02115B2E091
:103E20003B0708F07FCF190198CF212C22E0322EDA
:103E3000412C512C3201812C912C5401E9CF60E0AE
:103E400070E0CB01B8CF61E070E080E090E0B3CFEC
:103E50004F925F926F927F928F929F92AF92BF929A
:103E6000CF92DF92EF92FF920F931F93CF93DF9346
:103E7000C091F714D091F814209709F47FC0888C72
:103E8000998CAA8CBB8C2FEF821A920AA20AB20AD2
:103E90008D81803119F0803209F0CCC04C895D8968
:103EA0006E897F89C12CD12C76018E01005E1F4F57
:103EB00081149104A104B10409F44DC02A013B010D
:103EC0008FEF481A580A680A780A22E0C8010E944F
:103ED000E71D009709F4AEC0ED8120E830E0E03145
:103EE00011F420E031E0A90170E060E0841695064D
:103EF000A606B70608F49401E031B9F4FC0190E09D
:103F000080E041915191452B29F4AFEFCA1ADA0AAA
:103F1000EA0AFA0A01962817390799F7821A930ACA
:103F2000A108B108B301A201C3CFFC0150E040E0F9
:103F300081919191A191B191892B8A2B8B2B29F49D
:103F4000BFEFCB1ADB0AEB0AFB0A4F5F5F4F241768
:103F5000350771F7E3CFC701B601DF91CF911F910C
:103F60000F91FF90EF90DF90CF90BF90AF909F9018
:103F70008F907F906F905F904F900895C091F9144B
:103F8000D091FA14209709F455C0FE01E95EFD4F67
:103F90004081518162817381812C912C5401412C8B
:103FA000512C32018E01055E1D4F6A017B012FEFFE
:103FB000C21AD20AE20AF20A20E0CE010E94E71DEC
:103FC0000097C1F1FC019E5F51915F3FD9F448E039
:103FD000840E911CA11CB11CA8E04A0E511C611C4E
:103FE000711CD8014D915D916D917C9144165506DF
:103FF00066067706C8F0CB01BA01681979098A0903
:104000009B09ABCF552341F328E030E041E0652F19
:10401000642329F06FEF861A960AA60AB60A440F9F
:1040200021503109A1F7D8CFB701A601E817F90748
:1040300059F6BBCF6FEF7FEFCB018FCFFC0120850F
:10404000223011F40C94A31A213011F40C94551D54
:1040500081E008958F929F92AF92BF92CF92DF92AC
:10406000EF92FF920F931F93423051056105710546
:1040700060F480E01F910F91FF90EF90DF90CF9060
:10408000BF90AF909F908F900895FC01C08CD18C11
:10409000E28CF38CC416D506E606F70650F3480109
:1040A00059016A018581803229F584899589A6891B
:1040B000B78917E076956795579547951A95D1F783
:1040C000480F591F6A1F7B1F23E0CF0180960E9473
:1040D000E71D009771F2CC0CDD1CCC0CDD1CF1E06F
:1040E000DF228C0D9D1DFC0180829182A282B38211
:1040F00081E0C0CF803109F0BCCF44895589668901
:1041000077894D0D511D611D711D23E0CF018096F2
:104110000E94E71D009709F4ACCFCC0CDD1CF1E048
:10412000DF22C80ED91EF60111830083E1CFCF92A2
:10413000DF92EF92FF920F931F93CF93DF93423062
:1041400051056105710550F48FEFDF91CF911F91FB
:104150000F91FF90EF90DF90CF900895FC01C08CFD
:10416000D18CE28CF38CC416D506E606F70660F314
:1041700089016A01EC018581803299F584899589EC
:10418000A689B789E7E07695679557954795EA95AB
:10419000D1F7480F591F6A1F7B1F22E0CE0180967E
:1041A0000E94E71D009781F2CC0CDD1CCC0CDD1CBD
:1041B000F1E0DF228C0D9D1DFC0180819181A281A7
:1041C000B381488D598D6A8D7B8D481759076A07D1
:1041D0007B0730F1F80180839183A283B38381E070
:1041E000B4CF803109F0B0CF448955896689778989
:1041F0004D0D511D611D711D22E0CF0180960E9461
:10420000E71D009709F4A0CFCC0CDD1CF1E0DF2204
:10421000C80ED91EF60180819181B0E0A0E0D1CF17
:1042200080E093CF9F92AF92BF92CF92DF92EF92B6
:10423000FF920F931F93CF93DF9300D01F92CDB7C0
:10424000DEB75C016A017B019E012F5F3F4FB70122
:10425000A601C5010E949720982E87FD34C000E07A
:1042600010E09801B701A601C5010E942A20882309
:1042700051F1F5014085518562857385C416D506D7
:10428000E606F70650F4F1E0CF1AD108E108F1088C
:10429000F501C086D186E286F386C980DA80EB809C
:1042A000FC809110D1CF0F900F900F900F90DF9165
:1042B000CF911F910F91FF90EF90DF90CF90BF9023
:1042C000AF909F90089580E0EECFFC019C01255FA8
:1042D0003F4F80E080FB879587F99191890FE21726
:1042E000F307C1F708954F925F926F927F928F927A
:1042F0009F92AF92BF92CF92DF92EF92FF920F9375
:104300001F93CF93DF93EC014A015B014C845D84E2
:104310006E847F842881222309F45CC048895989EE
:104320006A897B89481559056A057B0581F08114E6
:104330009104A104B10469F41C861D861E861F86A3
:10434000888A998AAA8ABB8A8A818F7D8A8381E03A
:1043500046C023FF2CC0888D998DAA8DBB8D8815F2
:104360009905AA05BB05B0F1EE81FF813481375F65
:104370007501640181E0C81AD108E108F108032E33
:1043800004C0F694E794D794C7940A94D2F78A812C
:1043900086FF36C08C8D9D8DAE8DBF8D8C0D9D1D85
:1043A000AE1DBF1D8C879D87AE87BF87C9CF26FFF7
:1043B000DBCFEE81FF818681978125E0880F991FF1
:1043C0002A95E1F7B0E0A0E088159905AA05BB059C
:1043D00008F0B6CF4C865D866E867F8680E0DF91E2
:1043E000CF911F910F91FF90EF90DF90CF90BF90F2
:1043F000AF909F908F907F906F905F904F900895B7
:10440000DB01CA010197A109B10904C0B695A795BE
:10441000979587953A95D2F7C816D906EA06FB060E
:1044200020F0452B462B472B49F527FF22C0848DD2
:10443000958DA68DB78D8C879D87AE87BF878E01A2
:10444000045F1F4FC114D104E104F10409F478CFD3
:104450004C855D856E857F8598018E819F810E9448
:10446000972091E0C91AD108E108F108181654F311
:10447000B1CF8C8D9D8DAE8DBF8DDDCFC81AD90A81
:10448000EA0AFB0ADCCFCF93DF93EC01262F4C899D
:104490005D896E897F898E819F8180960E94E71D4C
:1044A000009759F02C813D812F70332745E0220F72
:1044B000331F4A95E1F7820F931FDF91CF91089543
:1044C0003F924F925F926F927F928F929F92AF92A4
:1044D000BF92CF92DF92EF92FF920F931F93CF93F1
:1044E000DF9300D01F92CDB7DEB75C01FC0144849E
:1044F00055846684778486809780F401C084D18453
:10450000E284F384C414D504E604F704C0F4730110
:10451000620110E0FFEFCF1ADF0AEF0AFF0AF40191
:10452000808D918DA28DB38D8C159D05AE05BF0537
:1045300040F4111132C0C084D184E284F38411E0CC
:10454000E9CF4C145D046E047F0439F19E012F5FA6
:104550003F4FB701A601C4010E94972087FD1DC0EF
:104560008823C1F289819A81AB81BC81892B8A2BF6
:104570008B2B81F6112329F0F401C086D186E286C7
:10458000F3860FEF1FEF2FEF3FE0B701A601C40145
:104590000E942A20382E811118C0312C832D0F90B3
:1045A0000F900F900F90DF91CF911F910F91FF907F
:1045B000EF90DF90CF90BF90AF909F908F907F90C3
:1045C0006F905F904F903F900895411451046104A3
:1045D0007104B9F4F501C486D586E686F786828132
:1045E0004114510461047104B1F0FFEF4F1A5F0AE6
:1045F0006F0A7F0A4C145D046E047F0479F08F7B90
:104600000BC097018601B301A201C4010E942A20B8
:104610008111E0CFC2CF8064F5018283F5018281F0
:1046200080688283BBCF40E050E0BA010C947321D4
:10463000CF93DF93EC0180960E94671C882331F0B2
:1046400088819981DF91CF910C941E2080E0DF91C9
:10465000CF910895CF93DF93FC012081211104C0F5
:1046600081E0DF91CF910895EC01828187FF28C01E
:1046700061E0CF010E944322FC01892B29F489814A
:104680008160898380E0EDCF8081853EC1F38881A0
:1046900087738387888183FF08C0888D998DAA8D51
:1046A000BB8D848F958FA68FB78F8C8D9D8DAE8D92
:1046B000BF8D938F828FB58BA48B8A818F778A83EE
:1046C0008E819F810E9418238823C9F2C9CFCF937E
:1046D000DF93EC010E942A2318821A82DF91CF9186
:1046E00008958F929F92AF92BF92CF92DF92EF92F6
:1046F000FF920F931F93423051056105710560F4DD
:1047000080E01F910F91FF90EF90DF90CF90BF90CE
:10471000AF909F908F900895FC01E55EFD4FC080A3
:10472000D180E280F380EFEFCE1ADE0AEE0AFE0AB5
:10473000C416D506E606F70618F3480159016A01C2
:10474000FC01E15FFD4F37E07695679557954795FA
:104750003A95D1F70081118122813381400F511F99
:10476000621F731F21E00E94E71D009749F2CC0CE5
:10477000DD1CCC0CDD1CF1E0DF22C80ED91EF601D9
:1047800080829182A282B38281E0BBCFCF92DF92FE
:10479000EF92FF920F931F93CF93DF93E901FC01F8
:1047A000E55EFD4F00811181228133810F5F1F4F34
:1047B0002F4F3F4F041715072607370750F48FEF89
:1047C000DF91CF911F910F91FF90EF90DF90CF90ED
:1047D00008956A01FC01E15FFD4F37E0769567952A
:1047E000579547953A95D1F7008111812281338100
:1047F000400F511F621F731F20E00E94E71D0097AA
:10480000F1F2CC0CDD1CCC0CDD1C21E0D222C80E58
:10481000D91EF60180819181A281B3818F3FFFEF84
:104820009F07AF07BF0731F088839983AA83BB83B3
:1048300081E0C6CF80E0C4CF0F931F93CF93DF9367
:10484000EB01E42FDC01AD5DBD4F4D915D916D91AC
:104850007C9113970C811D812E813F814023512330
:104860006223732329E076956795579547952A9596
:10487000D1F7088119812A813B8102501109210950
:1048800031091B96FC9104C0000F111F221F331F1A
:10489000FA95D2F7400F511F621F731F57970D9162
:1048A0001D912D913C91400F511F621F731F2E2FA0
:1048B0000E94E71D009729F02C813D813170820F05
:1048C000931FDF91CF911F910F9108954F925F92A7
:1048D0006F927F928F929F92AF92BF92CF92DF9210
:1048E000EF920F931F93CF93DF936C01480159010F
:1048F000DB01CA010297A109B109AC01BD01480D54
:10490000591D6A1D7B1DF601E55EFD4F0081118179
:1049100022813381041715072607370708F47FC063
:1049200070974080518062807380EE2009F46CC0E3
:10493000481659066A067B0688F044165506660630
:10494000770660F4401751076207730718F040E0DC
:1049500050E0BA0140835183628373839C012770C6
:10496000332711E001C0110F2A95EAF72C013D0110
:104970002CE076946794579447942A95D1F7F601E2
:10498000E95EFD4F4081518162817381440D551D67
:10499000661D771D33E0B695A795979587953A954F
:1049A000D1F7EC01D1702A013B012FEF421A520AD4
:1049B000620A720A21E0C6010E94E71D009779F1A0
:1049C000FC01EC0FFD1FA12F2081422F4A2331E073
:1049D00009F430E03E1519F12A272083B1E08B1A43
:1049E0009108A108B10861F1AA0F71F73196B301DE
:1049F000A201D0E0C0E011E0A1E09F01281B390B2B
:104A00002115324009F7CFCF84159505A605B705C6
:104A100008F0A4CF80839183A283B3839FCF80E0EB
:104A2000DF91CF911F910F91EF90DF90CF90BF90CA
:104A3000AF909F908F907F906F905F904F90089570
:104A400081E0EECF4F925F926F927F928F929F9212
:104A5000AF92BF92CF92DF92EF92FF920F931F938C
:104A6000CF93DF9300D01F92CDB7DEB74C016A0120
:104A70007B012A013B019E012F5F3F4FB701A60139
:104A8000C4010E94C623A82E87FD49C000E010E0A3
:104A90009801B701A601C4010E947123B82E882392
:104AA000F1F18FEFC81AD80AE80AF80AAA2049F0EB
:104AB00089819A81AB81BC818C159D05AE05BF05AE
:104AC00091F0970186010419150926093709E12C8F
:104AD000B301A201C4010E946624882301F1498028
:104AE0005A806B807C80C980DA80EB80FC80A110CA
:104AF000C2CF8B2D0F900F900F900F90DF91CF9121
:104B00001F910F91FF90EF90DF90CF90BF90AF90EB
:104B10009F908F907F906F905F904F900895B12CF1
:104B2000E8CF4F925F926F927F928F929F92AF9257
:104B3000BF92EF92FF920F931F93CF93DF93EC01FD
:104B400088A199A1488D598D6A8D7B8D411551059C
:104B500061057105F9F04F5F5F4F6F4F7F4F0E9406
:104B6000311E4B015C0122E082169104A104B104C4
:104B7000A8F4F12C8F2DDF91CF911F910F91FF9011
:104B8000EF90BF90AF909F908F907F906F905F90CD
:104B90004F90089540E050E0BA01E1CFEE24E39455
:104BA00001E010E020E030E0BC01A40188A199A15F
:104BB0000E946624F82E8823E1F2488D598D6A8D73
:104BC0007B8D8EA5411551056105710539F4806411
:104BD0008EA7888E998EAA8EBB8ECCCF86FF2AC0D8
:104BE0004F5F5F4F6F4F7F4F481559056A057B0533
:104BF00081F38F7B8EA74C8D5D8D6E8D7F8D88A10F
:104C000099A1488C598C6A8C7B8C44155505660596
:104C1000770580F42A013B012FEF421A520A620AFB
:104C2000720A930182010E947123B301A2018111D2
:104C3000E6CF9FCF0FEF1FEF9801B501A40188A128
:104C400099A10E947123882309F493CF488D598D2F
:104C50006A8D7B8D411551056105710509F4B9CF48
:104C60009501840188A199A10E9471238111B1CF7E
:104C700080CFCF93DF93EC010E94671C882341F023
:104C8000C55DDD4F88819981DF91CF910C941E2005
:104C900080E0DF91CF9108952F923F924F925F92E3
:104CA0006F927F928F929F92AF92BF92CF92DF923C
:104CB000EF92FF920F931F93CF93DF93CDB7DEB7A1
:104CC00062970FB6F894DEBF0FBECDBF988B8F876B
:104CD0004801222E3D834E83352E2B01DC01589650
:104CE0002D913D914D915C915B972B873C874D8732
:104CF0005E879C96BC91BF83BB2309F4E3C0FC0193
:104D0000F081F887DC011196BC91B987FC01F28132
:104D1000FA87DC0113966C90139714967C90149785
:104D20001596BC91FC01F681F98BFC01F781FA8B99
:104D3000288539854A85562D672D7B2F89899F2F98
:104D40005801C22CDD80EE80F32C82010E94FB937F
:104D5000F1F09401422D5D2D6E2D732DC201A0E066
:104D60000E940494B1F4AF85B88958961D921D92A3
:104D70001D921C925B97EF85F88980829182228236
:104D80002D8123833E81348335824682578281E0A0
:104D9000A4C0EF81E3FF10C0EF85F8892089318935
:104DA000428953896489758986899789DD80EE8077
:104DB0000E94FB9308F486C0EF85F889A0A0B1A0FB
:104DC000C501825D9D4FFC011081175F9401422D4A
:104DD0005D816E81732DC201AFEF0E94E693012FBA
:104DE0000E94C293942F852FA901692F782F690102
:104DF0007B01EF85F88986A586FF0DC0848D958D92
:104E0000A68DB78D840F951FA61FB71F808F918F1A
:104E1000A28FB38FB0CF288539854A85562D672D4F
:104E20007B2F89899A89AFEF0E94E6930E94C293F3
:104E300029833A834B835C8329813A814B815C814E
:104E4000C216D306E406F50668F0288539854A853A
:104E5000562D672D7B2F89899A89A0E00E940494A2
:104E600009F05BC0BF81B6FF51C0F501E15EFD4FA7
:104E700080819181A281B381EF85F889808F918FA4
:104E8000A28FB38F6F84788838E1630E711CC114D0
:104E9000D104E104F10409F46ECFAF85B8895896C6
:104EA0004D915D916D917C915B97930190968D9161
:104EB0009C910E94C623B1E0CB1AD108E108F10809
:104EC00018162CF38B859C85AD85BE85EF85F889FA
:104ED000808F918FA28FB38F80E062960FB6F89487
:104EE000DEBF0FBECDBFDF91CF911F910F91FF901D
:104EF000EF90DF90CF90BF90AF909F908F907F907A
:104F00006F905F904F903F902F900895EF85F889B4
:104F1000848D958DA68DB78DAFCF29813A814B8138
:104F20005C81C21AD30AE40AF50AACCF9F92AF9211
:104F3000BF92CF92DF92EF92FF920F931F93CF9386
:104F4000DF9300D000D000D0CDB7DEB78C01942E17
:104F500089E0F801B296DE01119601900D928A95D2
:104F6000E1F7F801A0A0B1A0F0E26F9FC001112409
:104F7000B0E0A0E04D815E816F817885F501ED5D47
:104F8000FD4FC080D180E280F380C422D522E6228A
:104F9000F722C80ED91EEA1EFB1E840F951FA61FFE
:104FA000B71F8D839E83AF83B8873B968081875FD1
:104FB00004C0F694E794D794C7948A95D2F7C114A5
:104FC000D104E104F10489F149815A816B817C812A
:104FD0008985882371F04F5F5F4F6F4F7F4F498303
:104FE0005A836B837C8321E0C21AD108E108F1085F
:104FF000E6CF9E012F5F3F4FC5010E94C62381303F
:1050000091F390E080E029960FB6F894DEBF0FBED2
:10501000CDBFDF91CF911F910F91FF90EF90DF9067
:10502000CF90BF90AF909F900895492DBE016F5FC4
:105030007F4FF80180A191A10E941C24E4CFFF9230
:105040000F931F93CF93DF93FC0124A5211107C079
:1050500081E0DF91CF911F910F91FF900895EC01B6
:1050600086A587FF8AC08F7786A7F12C10E000E025
:105070008BA58F1508F469C040E06F2DCE010E940A
:105080009627FC01892B09F473C08081803C61F173
:10509000813C69F0853809F06BC08CA5877390E07E
:1050A00095838483A8A1B9A18C9181608C93408160
:1050B00090E080E000FB1795079517F9DF01A80F36
:1050C000B91F2C91020F111D8130910521F423E0AD
:1050D00030E0453811F021E030E0820F931F80323C
:1050E000910540F3F394C4CF81819EA596FF2BC018
:1050F00082608183788969895A894B893C892D89A5
:105100009E898F8970876187528743873487258777
:10511000968787878C8D9D8DAE8DBF8D848B958B6B
:10512000A68BB78B788569855A854B853C852D85FF
:105130009E858F85708F618F528F438F348F258F1F
:10514000968F878FAFCF8D7FD4CF41E0BE016E5D4C
:105150007F4F88A199A10E941C24009749F0FC016F
:105160001383028388A199A10E943926811170CFEF
:105170008DA581608DA780E06CCF80A191A10E9458
:105180003926811165CF9DA591609DA762CFCF93F0
:10519000DF93EC010E941F281CA61EA6DF91CF9171
:1051A0000895CF93DF93EC0188A999A9009749F05E
:1051B0000E94672319AA18AA1BAA1AAADF91CF91E5
:1051C00008958AA99BA9009719F00E94C728F2CFD9
:1051D00081E0F0CF8F929F92AF92BF92EF920F93A8
:1051E0001F93CF93DF9300D000D000D01F92CDB794
:1051F000DEB79A838983DC019E969C919E9791FFEE
:1052000063C0BA87A9875C968D909D90AD90BC9045
:105210005F9781149104A104B104A9F410E0E98519
:10522000FA8583A5811708F466C041E0612FCF019C
:105230000E949627009709F447C0DC012C912F7734
:105240002C931F5FECCFA985BA859096ED91FC91C8
:10525000919796FF4AC018962C91189719963C91F1
:1052600019971A964C911A971B965C911B971C964E
:105270006C911C971D967C911D971E968C911E9784
:105280001F969C91AFEF0E94E693DF01A25DBD4F98
:105290000C91075F0E94C29329833A834B835C83FE
:1052A0006D837E838F83988709811A812B813C814E
:1052B0000F5F1F4F2F4F3F4FE12CB501A401CF01CE
:1052C0000E9466248111AACF80E02A960FB6F89436
:1052D000DEBF0FBECDBFDF91CF911F910F91EF9039
:1052E000BF90AF909F908F900895B501A401CF011A
:1052F0000E942225E7CFE985FA8514A616A680A18B
:1053000091A12A960FB6F894DEBF0FBECDBFDF91F4
:10531000CF911F910F91EF90BF90AF909F908F9082
:105320000C9439260F931F9300E010E020E030E04A
:1053300040E050E060E070E00E944C261F910F9129
:105340000895982F803290F0877F823279F09A33D7
:1053500069F0892F8F7B8C3349F082EC890F823082
:1053600028F081E09C3519F080E0089581E00895EF
:10537000AF92BF92CF92DF92FF920F931F93CF9382
:10538000DF93EB015A018C0198012F5F3F4FD80149
:105390008C918032D1F0198308831F821E82F8011C
:1053A000DF01FD906D01FF2031F1BFE2FB1619F125
:1053B000F7FE0DC080E0DF91CF911F910F91FF901C
:1053C000DF90CF90BF90AF9008958901DDCF8F2DF2
:1053D0000E94A1298111EECFC601801B910BEEE244
:1053E000FE1639F0F0E2FF1621F09F838E83DD82F6
:1053F000CC82F601D5CF8E819F8101978F3F910599
:10540000C8F62E2F9F2F81918032D9F38F32C9F3A6
:10541000D5012C9311969C930C811D812881398193
:10542000FE013A96CE01459640E241938E179F07C2
:10543000E1F781E0F90190819E3209F480E0F90101
:105440002F5F3F4F90819E32D1F398012150310957
:10545000E217F30720F4D9019C919E32B9F740E09E
:1054600067E0A0E050E078E0E017F10708F045C001
:1054700090819E3241F42E173F0769F46AE0A8E05C
:1054800070E13196F1CF9232A1F09C3791F0B5EAFC
:10549000B90FB33070F0B6EDB90FB63010F49D32DD
:1054A00041F4B6ECB90FB63020F0BFEDB90FBE3500
:1054B00028F0907C9038B9F580E0E3CF6A1740F48B
:1054C0006A30D1F02E173F07B8F0F9013197F4CFC9
:1054D000BFE9B90FBA3158F59052472BFF24F39426
:1054E000FA0EAC0FBD2FB11D1A969C93B6E0BF15F6
:1054F00008F0F886AF2DC5CF80E09A85903209F488
:1055000059CF882329F0542309F042E0498753CF2B
:1055100081E089878885C80FD11D8EE78A8781E35E
:105520008B8781E048CF80E09FE56A1748F2BFEBA8
:10553000B90FBA3198F6572BD1CFCF92DF92EF92B5
:10554000FF921F93CF93DF93EA016901FB019F0153
:105550002F5F3F4F80818032E9F0F983E883FD833C
:10556000EC839E2F8F2F7F01D7011D917D01112389
:10557000D1F01F3289F0812F0E94A129811146C0EC
:1055800017FD45C01E3221F0103211F0FD82EC8271
:10559000F701E7CFF901DBCF9E2F8F2F219120322A
:1055A000D9F32F32C9F3F601908381836881798121
:1055B0007B836A838C819D8150E040E0EA81FB819E
:1055C000E817F907B1F09F012F5F3F4F3B832A8314
:1055D00030812FE9230F2A3108F4305240FB5795D0
:1055E000479557F9430F511D40FB5795479557F97C
:1055F000E5CF861B970B9F838E83598748879C0135
:105600002150310981E02F3F310508F080E0DF9122
:10561000CF911F91FF90EF90DF90CF900895AF92C0
:10562000BF92CF92DF92EF92FF920F931F93CF938F
:10563000DF93EC016A017B0159018F819885A9856F
:10564000BA858C159D05AE05BF0590F49501B7018F
:10565000A60189819A810E946F1DDF91CF911F91D0
:105660000F91FF90EF90DF90CF90BF90AF90089593
:10567000400F511F611D711D84179507A607B707BD
:1056800028F7CE010E94671C8111E0CFE6CFAF92D0
:10569000BF92CF92DF92EF92FF920F931F93DC01A4
:1056A000DC96ED91FC91DD97309731F1808140E0FF
:1056B00050E0BA0183FF0CC0408D518D628D738D17
:1056C00080899189A289B389481B590B6A0B7B0B8E
:1056D0004115B0E85B076105710520F04FEF5FE70A
:1056E00060E070E0CA011F910F91FF90EF90DF9092
:1056F000CF90BF90AF900895DE96ED91FC9180E041
:1057000090E0309781F384A583FF23C020893189FD
:10571000428953896489758986899789A080B18077
:10572000C280D380E480F580068117810E94F293C5
:10573000F22FE32F2F3F3F474105510561057105CA
:105740008105910519F010F0FFEFEFE78F2F9E2FE5
:10575000CACF20E030E040E050E060E070E080E060
:1057600090E0E6CFFC0184AD95AD009711F00C946C
:105770002A2386AD97AD009711F00C941F28089549
:105780000E94A616892BE1F360E08FE00E94CA1602
:105790001ABC61E08FE00E94CA168FB10895809113
:1057A000F70E91E089278093F70E6091F70E8EE057
:1057B0000C94CA16809308010E94CF2B0E94A61653
:1057C000892BE1F360E08FE00E94CA161ABC61E009
:1057D0008FE00C94CA168FEF809330021092390C30
:1057E000089560E08BE20E94CA160E94CF2B0C94B1
:1057F000EB2B61E08BE20E94CA160E94CF2B0C9427
:10580000EB2B60E081E30E94CA160E94CF2B0C9420
:10581000EB2B61E081E30E94CA160E94CF2B0C940F
:10582000EB2B60E08CE20E94CA160E94CF2B0C94F6
:10583000EB2B61E08CE20E94CA160E94CF2B0C94E5
:10584000EB2B8FEF0E94DA2B80E00E94DA2B0E9474
:10585000CF2B0C94EB2B0E94CF2B80E00E94DA2BF5
:105860000E94CF2B0C94EB2B0E94CF2B8FEF8093B9
:1058700030020C94EB2B2AEC32E0FC0131832083C4
:1058800004960C94D128E4E7F0E080818F77808340
:1058900060E08EE10E94F81660E081E10E94F81657
:1058A00060E084E10E94F81660E085E10E94F8164D
:1058B00060E086E20E94F81660E088E20E94F81636
:1058C00061E087E00E94CA1611B817B862E086E16D
:1058D0000E94F81662E087E10E94F81662E088E113
:1058E0000E94F81662E089E10E94F81662E08AE1FF
:1058F0000E94F81662E08BE10E94F81662E08CE1EB
:105900000E94F81662E08DE10C94F816E4E7F0E0EE
:10591000808180688083A5E7B0E08C9181608C9362
:105920008081877F808380818B7F808361E08EE1AF
:105930000E94F81661E081E10E94F81661E084E1BE
:105940000E94F81661E085E10E94F81661E086E2A7
:105950000E94F81660E08EE10E94CA1660E081E1C4
:105960000E94CA1660E084E10E94CA1660E085E1E8
:105970000E94CA1660E086E20E94CA1660E087E0D4
:105980000C94CA161092320BEFE6FEE0128A118ACE
:1059900017A616A61092BB0E1092BA0E08959DE19E
:1059A000899FF0011124E159F14F148E138E8091DB
:1059B0008A0E90918B0E2091A70E3091A80E822B0B
:1059C000932B2091C40E3091C50E822B932B892BE3
:1059D00011F41092E30E08950F931F93CF93DF936A
:1059E000182F9B010091E30EF8941092EB0E109289
:1059F000EA0EC82FD0E0D093F30EC093F20E70934E
:105A0000E50E6093E40E672B09F43EC0A0E8B9E808
:105A10000E943B922DE83AE840E050E00E94199243
:105A20002093E60E3093E70E4093E80E5093E90E74
:105A300085E090E09093ED0E8093EC0E103108F02D
:105A400050C0FE018827E85DF24D8F4F0C94B8934B
:105A5000382D382D382D382D502D502D502D502DBE
:105A60005B2D382D682D6B2D6E2D712D742D502DC5
:105A70008FE090E09093F10E8093F00E82E390E33C
:105A80009093F50E8093F40E1092EF0E1092EE0E9E
:105A90000093E30E7894DF91CF911F910F910895B9
:105AA0008EED9FE29093F50E8093F40E1092F10E1E
:105AB0001092F00EE9CF81E99FE29093F50E80936A
:105AC000F40E8FE090E09093F10E8093F00EDCCF17
:105AD0008DEF9EE2F2CF86EA9EE2EFCF87E79DE26E
:105AE000E1CF8CE49EE2DECF88EB9DE2DBCF0F932B
:105AF0001F938091EE0E9091EF0E2091EC0E30915D
:105B0000ED0E820F931F9093EF0E8093EE0E409157
:105B1000E60E5091E70E6091E80E7091E90E8C014F
:105B200030E020E0041715072607370780F02091A2
:105B3000F00E3091F10E2F5F3F4F3093F10E209316
:105B4000F00E841B950B9093EF0E8093EE0E8091D8
:105B5000F00E9091F10E409740F01092F10E1092DD
:105B6000F00E1092EF0E1092EE0E1F910F9108950D
:105B70000F931F938091EA0E9091EB0E009731F0F6
:105B8000019709F448C01F910F9108958091EE0E7E
:105B90009091EF0E2091EC0E3091ED0E820F931F3D
:105BA0009093EF0E8093EE0E4091E60E5091E70E2B
:105BB0006091E80E7091E90E8C0130E020E004174E
:105BC00015072607370780F02091F00E3091F10E6F
:105BD0002F5F3F4F3093F10E2093F00E841B950BF7
:105BE0009093EF0E8093EE0E8091F00E9091F10E57
:105BF000409748F28FE090E09093F10E8093F00E82
:105C00001092EF0E1092EE0E81E090E09093EB0E6A
:105C10008093EA0EB8CF8091EE0E9091EF0E209116
:105C2000EC0E3091ED0E820F931F9093EF0E809348
:105C3000EE0E4091E60E5091E70E6091E80E7091E5
:105C4000E90E8C0130E020E004171507260737071E
:105C500098F02091F00E3091F10E2115310531F0C0
:105C6000215031093093F10E2093F00E841B950BD7
:105C70009093EF0E8093EE0E8091F00E9091F10EC6
:105C8000892B09F080CF1092EF0E1092EE0E109239
:105C9000EB0E1092EA0E77CF0F931F938091EA0ECE
:105CA0009091EB0E009731F0019709F448C01F91D5
:105CB0000F9108958091EE0E9091EF0E2091EC0ED1
:105CC0003091ED0E820F931F9093EF0E8093EE0EA6
:105CD0004091E60E5091E70E6091E80E7091E90E4A
:105CE0008C0130E020E0041715072607370780F005
:105CF0002091F00E3091F10E2F5F3F4F3093F10E57
:105D00002093F00E841B950B9093EF0E8093EE0E74
:105D10008091F00E9091F10E409748F28FE090E064
:105D20009093F10E8093F00E1092EF0E1092EE0E03
:105D300081E090E09093EB0E8093EA0EB8CF8FE075
:105D400090E09093F10E8093F00EB1CF0F931F93DC
:105D50008091EA0E9091EB0E009731F0019709F4D3
:105D600045C01F910F9108958091EE0E9091EF0E16
:105D70002091EC0E3091ED0E820F931F9093EF0E59
:105D80008093EE0E4091E60E5091E70E6091E80E82
:105D90007091E90E8C0130E020E00417150726070A
:105DA000370798F02091F00E3091F10E2115310552
:105DB00031F0215031093093F10E2093F00E841B05
:105DC000950B9093EF0E8093EE0E8091F00E9091D4
:105DD000F10E892B31F61092EF0E1092EE0E81E04B
:105DE00090E09093EB0E8093EA0EBBCF8FE090E0B3
:105DF0009093F10E8093F00EB4CF0F931F93809188
:105E0000EA0E9091EB0E009731F0019709F445C02E
:105E10001F910F9108958091EE0E9091EF0E2091B9
:105E2000EC0E3091ED0E820F931F9093EF0E809346
:105E3000EE0E4091E60E5091E70E6091E80E7091E3
:105E4000E90E8C0130E020E004171507260737071C
:105E500098F02091F00E3091F10E2115310531F0BE
:105E6000215031093093F10E2093F00E841B950BD5
:105E70009093EF0E8093EE0E8091F00E9091F10EC4
:105E8000892B31F61092EF0E1092EE0E81E090E029
:105E90009093EB0E8093EA0EBBCF8091EE0E909123
:105EA000EF0E2091EC0E3091ED0E820F931F909328
:105EB000EF0E8093EE0E4091E60E5091E70E60914A
:105EC000E80E7091E90E8C0130E020E00417150710
:105ED0002607370780F02091F00E3091F10E2F5FEA
:105EE0003F4F3093F10E2093F00E841B950B90934F
:105EF000EF0E8093EE0E8091F00E9091F10E409790
:105F000008F486CF8FE090E09093F10E8093F00E2E
:105F10001092EF0E1092EE0E1092EB0E1092EA0E0F
:105F200077CF0F931F938091EA0E9091EB0E892B00
:105F300009F041C08091EE0E9091EF0E2091EC0E91
:105F40003091ED0E820F931F9093EF0E8093EE0E23
:105F50004091E60E5091E70E6091E80E7091E90EC7
:105F60008C0130E020E0041715072607370798F06A
:105F70002091F00E3091F10E2115310531F02150B4
:105F800031093093F10E2093F00E841B950B909302
:105F9000EF0E8093EE0E8091F00E9091F10E892B12
:105FA00051F48FE090E09093F10E8093F00E1092F8
:105FB000EF0E1092EE0E1F910F9108950F931F9305
:105FC0008091EA0E9091EB0E009731F0019709F461
:105FD00044C01F910F9108958091EE0E9091EF0EA5
:105FE0002091EC0E3091ED0E820F931F9093EF0EE7
:105FF0008093EE0E4091E60E5091E70E6091E80E10
:106000007091E90E8C0130E020E004171507260797
:10601000370780F02091F00E3091F10E2F5F3F4F47
:106020003093F10E2093F00E841B950B9093EF0E9E
:106030008093EE0E8091F00E9091F10E409748F211
:106040008FE090E09093F10E8093F00E81E090E06D
:106050009093EB0E8093EA0EBCCF1092F10E10924B
:10606000F00EB7CF0F931F938091EA0E9091EB0E35
:10607000009731F0019709F445C01F910F910895E1
:106080008091EE0E9091EF0E2091EC0E3091ED0E7E
:10609000820F931F9093EF0E8093EE0E4091E60EC9
